{
  "_format": "hh-sol-artifact-1",
  "contractName": "TruflationDataFetcher",
  "sourceName": "contracts/TruflationDataFetcher.sol",
  "abi": [
    {
      "inputs": [],
      "stateMutability": "nonpayable",
      "type": "constructor"
    },
    {
      "anonymous": false,
      "inputs": [
        {
          "indexed": true,
          "internalType": "bytes32",
          "name": "id",
          "type": "bytes32"
        }
      ],
      "name": "ChainlinkCancelled",
      "type": "event"
    },
    {
      "anonymous": false,
      "inputs": [
        {
          "indexed": true,
          "internalType": "bytes32",
          "name": "id",
          "type": "bytes32"
        }
      ],
      "name": "ChainlinkFulfilled",
      "type": "event"
    },
    {
      "anonymous": false,
      "inputs": [
        {
          "indexed": true,
          "internalType": "bytes32",
          "name": "id",
          "type": "bytes32"
        }
      ],
      "name": "ChainlinkRequested",
      "type": "event"
    },
    {
      "inputs": [],
      "name": "chainlinkContract",
      "outputs": [
        {
          "internalType": "address",
          "name": "",
          "type": "address"
        }
      ],
      "stateMutability": "view",
      "type": "function"
    },
    {
      "inputs": [
        {
          "internalType": "string",
          "name": "_jobId",
          "type": "string"
        }
      ],
      "name": "changeJobId",
      "outputs": [],
      "stateMutability": "nonpayable",
      "type": "function"
    },
    {
      "inputs": [
        {
          "internalType": "address",
          "name": "_oracle",
          "type": "address"
        }
      ],
      "name": "changeOracle",
      "outputs": [],
      "stateMutability": "nonpayable",
      "type": "function"
    },
    {
      "inputs": [
        {
          "internalType": "bytes",
          "name": "checkData",
          "type": "bytes"
        }
      ],
      "name": "checkUpkeep",
      "outputs": [
        {
          "internalType": "bool",
          "name": "upkeepNeeded",
          "type": "bool"
        },
        {
          "internalType": "bytes",
          "name": "performData",
          "type": "bytes"
        }
      ],
      "stateMutability": "view",
      "type": "function"
    },
    {
      "inputs": [],
      "name": "disableKeeper",
      "outputs": [],
      "stateMutability": "nonpayable",
      "type": "function"
    },
    {
      "inputs": [
        {
          "internalType": "string",
          "name": "service_",
          "type": "string"
        },
        {
          "internalType": "string",
          "name": "data_",
          "type": "string"
        },
        {
          "internalType": "string",
          "name": "keypath_",
          "type": "string"
        },
        {
          "internalType": "string",
          "name": "abi_",
          "type": "string"
        },
        {
          "internalType": "string",
          "name": "multiplier_",
          "type": "string"
        }
      ],
      "name": "doRequest",
      "outputs": [
        {
          "internalType": "bytes32",
          "name": "requestId",
          "type": "bytes32"
        }
      ],
      "stateMutability": "nonpayable",
      "type": "function"
    },
    {
      "inputs": [],
      "name": "enableKeeper",
      "outputs": [],
      "stateMutability": "nonpayable",
      "type": "function"
    },
    {
      "inputs": [],
      "name": "fee",
      "outputs": [
        {
          "internalType": "uint256",
          "name": "",
          "type": "uint256"
        }
      ],
      "stateMutability": "view",
      "type": "function"
    },
    {
      "inputs": [
        {
          "internalType": "bytes32",
          "name": "_requestId",
          "type": "bytes32"
        },
        {
          "internalType": "bytes",
          "name": "bytesData",
          "type": "bytes"
        }
      ],
      "name": "fulfillBytes",
      "outputs": [],
      "stateMutability": "nonpayable",
      "type": "function"
    },
    {
      "inputs": [
        {
          "internalType": "bytes32",
          "name": "_requestId",
          "type": "bytes32"
        },
        {
          "internalType": "bytes",
          "name": "_inflation",
          "type": "bytes"
        }
      ],
      "name": "fulfillYoyInflation",
      "outputs": [],
      "stateMutability": "nonpayable",
      "type": "function"
    },
    {
      "inputs": [],
      "name": "getChainlinkToken",
      "outputs": [
        {
          "internalType": "address",
          "name": "",
          "type": "address"
        }
      ],
      "stateMutability": "view",
      "type": "function"
    },
    {
      "inputs": [],
      "name": "interval",
      "outputs": [
        {
          "internalType": "uint256",
          "name": "",
          "type": "uint256"
        }
      ],
      "stateMutability": "view",
      "type": "function"
    },
    {
      "inputs": [],
      "name": "jobId",
      "outputs": [
        {
          "internalType": "string",
          "name": "",
          "type": "string"
        }
      ],
      "stateMutability": "view",
      "type": "function"
    },
    {
      "inputs": [],
      "name": "lastTimeStamp",
      "outputs": [
        {
          "internalType": "uint256",
          "name": "",
          "type": "uint256"
        }
      ],
      "stateMutability": "view",
      "type": "function"
    },
    {
      "inputs": [],
      "name": "oracleId",
      "outputs": [
        {
          "internalType": "address",
          "name": "",
          "type": "address"
        }
      ],
      "stateMutability": "view",
      "type": "function"
    },
    {
      "inputs": [],
      "name": "owner",
      "outputs": [
        {
          "internalType": "address",
          "name": "",
          "type": "address"
        }
      ],
      "stateMutability": "view",
      "type": "function"
    },
    {
      "inputs": [
        {
          "internalType": "bytes",
          "name": "performData",
          "type": "bytes"
        }
      ],
      "name": "performUpkeep",
      "outputs": [],
      "stateMutability": "nonpayable",
      "type": "function"
    },
    {
      "inputs": [],
      "name": "requestYoyInflation",
      "outputs": [
        {
          "internalType": "bytes32",
          "name": "requestId",
          "type": "bytes32"
        }
      ],
      "stateMutability": "nonpayable",
      "type": "function"
    },
    {
      "inputs": [],
      "name": "result",
      "outputs": [
        {
          "internalType": "bytes",
          "name": "",
          "type": "bytes"
        }
      ],
      "stateMutability": "view",
      "type": "function"
    },
    {
      "inputs": [
        {
          "internalType": "bytes32",
          "name": "",
          "type": "bytes32"
        }
      ],
      "name": "results",
      "outputs": [
        {
          "internalType": "bytes",
          "name": "",
          "type": "bytes"
        }
      ],
      "stateMutability": "view",
      "type": "function"
    },
    {
      "inputs": [],
      "name": "withdrawLink",
      "outputs": [],
      "stateMutability": "nonpayable",
      "type": "function"
    },
    {
      "inputs": [],
      "name": "yoyInflation",
      "outputs": [
        {
          "internalType": "string",
          "name": "",
          "type": "string"
        }
      ],
      "stateMutability": "view",
      "type": "function"
    }
  ],
  "bytecode": "0x60a06040526001600455600980546001600160a01b03191673326c977e6efc84e512bb9c30f76e30c160ed06fb1790553480156200003c57600080fd5b50600954600280546001600160a01b0319166001600160a01b03909216919091179055600a80546001600160a01b031916736d141cf6c43f7eabf94e288f5aa3f233572784991790556040805180820190915260208082527f6432323065356536383738383434363239303961303330323133383562376165918101918252620000c991600b9162000105565b506706f05b59d3b20000600c5561012c60805242600e55600f805460ff19166001179055600d80546001600160a01b03191633179055620001e7565b8280546200011390620001ab565b90600052602060002090601f01602090048101928262000137576000855562000182565b82601f106200015257805160ff191683800117855562000182565b8280016001018555821562000182579182015b828111156200018257825182559160200191906001019062000165565b506200019092915062000194565b5090565b5b8082111562000190576000815560010162000195565b600181811c90821680620001c057607f821691505b602082108103620001e157634e487b7160e01b600052602260045260246000fd5b50919050565b6080516117da6200020a60003960008181610255015261050001526117da6000f3fe608060405234801561001057600080fd5b50600436106101425760003560e01c80638dc654a2116100b8578063c2939d971161007c578063c2939d9714610292578063c2fb85231461029a578063caf89f89146102ad578063ddca3f43146102c0578063eb4d1939146102c9578063ed5df9dd146102d157600080fd5b80638dc654a2146102355780639063e2161461023d578063947a36fb14610250578063af5d945b14610277578063bb694f161461027f57600080fd5b806347c421b51161010a57806347c421b5146101be5780634c6b25b1146101d157806365372147146101f15780636e04ff0d146101f957806372582c8d1461021a5780638da5cb5b1461022257600080fd5b8063165d35e1146101475780632121778d1461016c5780633f3b3b271461017f578063454fa6e1146101965780634585e33b146101a9575b600080fd5b61014f6102d9565b6040516001600160a01b0390911681526020015b60405180910390f35b600a5461014f906001600160a01b031681565b610188600e5481565b604051908152602001610163565b6101886101a43660046111ea565b6102f2565b6101bc6101b73660046112bb565b610407565b005b6101bc6101cc36600461132c565b610418565b6101e46101df366004611355565b610451565b60405161016391906113bb565b6101e46104eb565b61020c6102073660046112bb565b6104f8565b6040516101639291906113ce565b610188610584565b600d5461014f906001600160a01b031681565b6101bc6106d0565b6101bc61024b3660046113e9565b610828565b6101887f000000000000000000000000000000000000000000000000000000000000000081565b6101e4610856565b6101bc61028d36600461141d565b610863565b6101e46108f7565b6101bc6102a836600461141d565b610904565b60095461014f906001600160a01b031681565b610188600c5481565b6101bc6109b2565b6101bc6109d5565b60006102ed6002546001600160a01b031690565b905090565b600080610310610302600b6114ab565b3063c2fb852360e01b6109fb565b6040805180820190915260078152667365727669636560c81b602082015290915061033d90829089610a20565b6040805180820190915260048152636461746160e01b602082015261036490829088610a20565b6040805180820190915260078152660d6caf2e0c2e8d60cb1b602082015261038e90829087610a20565b60408051808201909152600381526261626960e81b60208201526103b490829086610a20565b60408051808201909152600a81526936bab63a34b83634b2b960b11b60208201526103e190829085610a20565b600a54600c546103fc916001600160a01b0316908390610a3e565b979650505050505050565b42600e55610413610584565b505050565b600d546001600160a01b0316331461042f57600080fd5b600a80546001600160a01b0319166001600160a01b0392909216919091179055565b6008602052600090815260409020805461046a90611477565b80601f016020809104026020016040519081016040528092919081815260200182805461049690611477565b80156104e35780601f106104b8576101008083540402835291602001916104e3565b820191906000526020600020905b8154815290600101906020018083116104c657829003601f168201915b505050505081565b6007805461046a90611477565b6000606060007f0000000000000000000000000000000000000000000000000000000000000000600e544261052d9190611532565b600f549110915060ff1680156105405750805b925084848080601f01602080910402602001604051908101604052809392919081815260200183838082843760009201919091525095989297509195505050505050565b6000806105a2610594600b6114ab565b30635db4a78b60e11b6109fb565b9050610602604051806040016040528060078152602001667365727669636560c81b815250604051806040016040528060128152602001711d1c9d599b185d1a5bdb8bd8dd5c9c995b9d60721b81525083610a209092919063ffffffff16565b610663604051806040016040528060078152602001660d6caf2e0c2e8d60cb1b815250604051806040016040528060158152602001743cb2b0b927bb32b92cb2b0b924b7333630ba34b7b760591b81525083610a209092919063ffffffff16565b6106af6040518060400160405280600381526020016261626960e81b815250604051806040016040528060048152602001633539b7b760e11b81525083610a209092919063ffffffff16565b600a54600c546106ca916001600160a01b0316908390610a3e565b91505090565b600d546001600160a01b031633146106e757600080fd5b60006106fb6002546001600160a01b031690565b6040516370a0823160e01b81523060048201529091506001600160a01b0382169063a9059cbb90339083906370a0823190602401602060405180830381865afa15801561074c573d6000803e3d6000fd5b505050506040513d601f19601f820116820180604052508101906107709190611549565b6040516001600160e01b031960e085901b1681526001600160a01b03909216600483015260248201526044016020604051808303816000875af11580156107bb573d6000803e3d6000fd5b505050506040513d601f19601f820116820180604052508101906107df9190611562565b6108255760405162461bcd60e51b81526020600482015260126024820152712ab730b13632903a37903a3930b739b332b960711b60448201526064015b60405180910390fd5b50565b600d546001600160a01b0316331461083f57600080fd5b805161085290600b90602084019061106b565b5050565b6006805461046a90611477565b60008281526005602052604090205482906001600160a01b0316331461089b5760405162461bcd60e51b815260040161081c90611584565b60008181526005602052604080822080546001600160a01b03191690555182917f7cc135e0cebb02c3480ae5d74d377283180a2601f8f644edf7987b009316c63a91a281516108f190600690602085019061106b565b50505050565b600b805461046a90611477565b60008281526005602052604090205482906001600160a01b0316331461093c5760405162461bcd60e51b815260040161081c90611584565b60008181526005602052604080822080546001600160a01b03191690555182917f7cc135e0cebb02c3480ae5d74d377283180a2601f8f644edf7987b009316c63a91a2815161099290600790602085019061106b565b50600083815260086020908152604090912083516108f19285019061106b565b600d546001600160a01b031633146109c957600080fd5b600f805460ff19169055565b600d546001600160a01b031633146109ec57600080fd5b600f805460ff19166001179055565b610a036110ef565b610a0b6110ef565b610a1781868686610ad1565b95945050505050565b6080830151610a2f9083610b17565b60808301516104139082610b17565b600454600090610a4f8160016115cc565b600455835160408086015160808701515191516000936320214ca360e11b93610a879386938493923092918a916001916024016115e4565b60408051601f198184030181529190526020810180516001600160e01b03166001600160e01b0319909316929092179091529050610ac786838684610b2e565b9695505050505050565b610ad96110ef565b610ae98560800151610100610c8c565b50508284526001600160a01b03821660208501526001600160e01b031981166040850152835b949350505050565b610b248260038351610cf7565b6104138282610dfe565b6040516bffffffffffffffffffffffff193060601b1660208201526034810184905260009060540160408051808303601f1901815282825280516020918201206000818152600590925291812080546001600160a01b0319166001600160a01b038a1617905590925082917fb5e6e01e79f91267dc17b4e6314d5d4d03593d2ceee0fbb452b750bd70ea5af99190a2600254604051630200057560e51b81526001600160a01b0390911690634000aea090610bf19088908790879060040161164c565b6020604051808303816000875af1158015610c10573d6000803e3d6000fd5b505050506040513d601f19601f82011682018060405250810190610c349190611562565b610b0f5760405162461bcd60e51b815260206004820152602360248201527f756e61626c6520746f207472616e73666572416e6443616c6c20746f206f7261604482015262636c6560e81b606482015260840161081c565b604080518082019091526060815260006020820152610cac602083611673565b15610cd457610cbc602083611673565b610cc7906020611532565b610cd190836115cc565b91505b506020808301829052604080518085526000815283019091019052815b92915050565b6017816001600160401b031611610d1b576108f18360e0600585901b168317610e2c565b60ff816001600160401b031611610d5757610d41836018611fe0600586901b1617610e2c565b506108f1836001600160401b0383166001610e51565b61ffff816001600160401b031611610d9457610d7e836019611fe0600586901b1617610e2c565b506108f1836001600160401b0383166002610e51565b63ffffffff816001600160401b031611610dd357610dbd83601a611fe0600586901b1617610e2c565b506108f1836001600160401b0383166004610e51565b610de883601b611fe0600586901b1617610e2c565b506108f1836001600160401b0383166008610e51565b604080518082019091526060815260006020820152610e2583846000015151848551610e77565b9392505050565b604080518082019091526060815260006020820152610e258384600001515184610f61565b604080518082019091526060815260006020820152610b0f848560000151518585610fbc565b6040805180820190915260608152600060208201528251821115610e9a57600080fd5b6020850151610ea983866115cc565b1115610edc57610edc85610ecc87602001518786610ec791906115cc565b61103d565b610ed7906002611695565b611054565b600080865180518760208301019350808887011115610efb5787860182525b505050602084015b60208410610f3b5780518252610f1a6020836115cc565b9150610f276020826115cc565b9050610f34602085611532565b9350610f03565b51815160001960208690036101000a019081169019919091161790525083949350505050565b60408051808201909152606081526000602082015283602001518310610f9657610f968485602001516002610ed79190611695565b8351805160208583010184815350808503610fb2576001810182525b5093949350505050565b6040805180820190915260608152600060208201526020850151610fe085846115cc565b1115610ff457610ff485610ecc86856115cc565b6000600161100484610100611798565b61100e9190611532565b90508551838682010185831982511617815250805184870111156110325783860181525b509495945050505050565b60008183111561104e575081610cf1565b50919050565b81516110608383610c8c565b506108f18382610dfe565b82805461107790611477565b90600052602060002090601f01602090048101928261109957600085556110df565b82601f106110b257805160ff19168380011785556110df565b828001600101855582156110df579182015b828111156110df5782518255916020019190600101906110c4565b506110eb92915061112a565b5090565b6040805160a0810182526000808252602080830182905282840182905260608084018390528451808601909552845283015290608082015290565b5b808211156110eb576000815560010161112b565b634e487b7160e01b600052604160045260246000fd5b60006001600160401b038084111561116f5761116f61113f565b604051601f8501601f19908116603f011681019082821181831017156111975761119761113f565b816040528093508581528686860111156111b057600080fd5b858560208301376000602087830101525050509392505050565b600082601f8301126111db57600080fd5b610e2583833560208501611155565b600080600080600060a0868803121561120257600080fd5b85356001600160401b038082111561121957600080fd5b61122589838a016111ca565b9650602088013591508082111561123b57600080fd5b61124789838a016111ca565b9550604088013591508082111561125d57600080fd5b61126989838a016111ca565b9450606088013591508082111561127f57600080fd5b61128b89838a016111ca565b935060808801359150808211156112a157600080fd5b506112ae888289016111ca565b9150509295509295909350565b600080602083850312156112ce57600080fd5b82356001600160401b03808211156112e557600080fd5b818501915085601f8301126112f957600080fd5b81358181111561130857600080fd5b86602082850101111561131a57600080fd5b60209290920196919550909350505050565b60006020828403121561133e57600080fd5b81356001600160a01b0381168114610e2557600080fd5b60006020828403121561136757600080fd5b5035919050565b6000815180845260005b8181101561139457602081850181015186830182015201611378565b818111156113a6576000602083870101525b50601f01601f19169290920160200192915050565b602081526000610e25602083018461136e565b8215158152604060208201526000610b0f604083018461136e565b6000602082840312156113fb57600080fd5b81356001600160401b0381111561141157600080fd5b610b0f848285016111ca565b6000806040838503121561143057600080fd5b8235915060208301356001600160401b0381111561144d57600080fd5b8301601f8101851361145e57600080fd5b61146d85823560208401611155565b9150509250929050565b600181811c9082168061148b57607f821691505b60208210810361104e57634e487b7160e01b600052602260045260246000fd5b8054600090600180821691901c816114c157607f165b602081108083036114e257634e487b7160e01b600052602260045260246000fd5b849250601f8211156114fa5784600052602060002092505b825493508015611514576000198260200360031b1b841693505b505050919050565b634e487b7160e01b600052601160045260246000fd5b6000828210156115445761154461151c565b500390565b60006020828403121561155b57600080fd5b5051919050565b60006020828403121561157457600080fd5b81518015158114610e2557600080fd5b60208082526028908201527f536f75726365206d75737420626520746865206f7261636c65206f6620746865604082015267081c995c5d595cdd60c21b606082015260800190565b600082198211156115df576115df61151c565b500190565b6001600160a01b0389811682526020820189905260408201889052861660608201526001600160e01b03198516608082015260a0810184905260c0810183905261010060e0820181905260009061163d8382018561136e565b9b9a5050505050505050505050565b60018060a01b0384168152826020820152606060408201526000610a17606083018461136e565b60008261169057634e487b7160e01b600052601260045260246000fd5b500690565b60008160001904831182151516156116af576116af61151c565b500290565b600181815b808511156116ef5781600019048211156116d5576116d561151c565b808516156116e257918102915b93841c93908002906116b9565b509250929050565b60008261170657506001610cf1565b8161171357506000610cf1565b816001811461172957600281146117335761174f565b6001915050610cf1565b60ff8411156117445761174461151c565b50506001821b610cf1565b5060208310610133831016604e8410600b8410161715611772575081810a610cf1565b61177c83836116b4565b80600019048211156117905761179061151c565b029392505050565b6000610e2583836116f756fea26469706673582212205eaabfaad381399851c8856f4a601acc36389c3c100b4cce0c9aac27b7854b3b64736f6c634300080d0033",
  "linkReferences": {},
  "deployedLinkReferences": {}
}