{
  "_format": "hh-sol-artifact-1",
  "contractName": "TruflationDataFetcher",
  "sourceName": "contracts/TruflationDataFetcher.sol",
  "abi": [
    {
      "inputs": [],
      "stateMutability": "nonpayable",
      "type": "constructor"
    },
    {
      "anonymous": false,
      "inputs": [
        {
          "indexed": true,
          "internalType": "bytes32",
          "name": "id",
          "type": "bytes32"
        }
      ],
      "name": "ChainlinkCancelled",
      "type": "event"
    },
    {
      "anonymous": false,
      "inputs": [
        {
          "indexed": true,
          "internalType": "bytes32",
          "name": "id",
          "type": "bytes32"
        }
      ],
      "name": "ChainlinkFulfilled",
      "type": "event"
    },
    {
      "anonymous": false,
      "inputs": [
        {
          "indexed": true,
          "internalType": "bytes32",
          "name": "id",
          "type": "bytes32"
        }
      ],
      "name": "ChainlinkRequested",
      "type": "event"
    },
    {
      "anonymous": false,
      "inputs": [
        {
          "indexed": true,
          "internalType": "address",
          "name": "from",
          "type": "address"
        },
        {
          "indexed": true,
          "internalType": "address",
          "name": "to",
          "type": "address"
        }
      ],
      "name": "OwnershipTransferRequested",
      "type": "event"
    },
    {
      "anonymous": false,
      "inputs": [
        {
          "indexed": true,
          "internalType": "address",
          "name": "from",
          "type": "address"
        },
        {
          "indexed": true,
          "internalType": "address",
          "name": "to",
          "type": "address"
        }
      ],
      "name": "OwnershipTransferred",
      "type": "event"
    },
    {
      "inputs": [],
      "name": "acceptOwnership",
      "outputs": [],
      "stateMutability": "nonpayable",
      "type": "function"
    },
    {
      "inputs": [
        {
          "internalType": "string",
          "name": "_jobId",
          "type": "string"
        }
      ],
      "name": "changeJobId",
      "outputs": [],
      "stateMutability": "nonpayable",
      "type": "function"
    },
    {
      "inputs": [
        {
          "internalType": "address",
          "name": "_oracle",
          "type": "address"
        }
      ],
      "name": "changeOracle",
      "outputs": [],
      "stateMutability": "nonpayable",
      "type": "function"
    },
    {
      "inputs": [
        {
          "internalType": "bytes",
          "name": "checkData",
          "type": "bytes"
        }
      ],
      "name": "checkUpkeep",
      "outputs": [
        {
          "internalType": "bool",
          "name": "upkeepNeeded",
          "type": "bool"
        },
        {
          "internalType": "bytes",
          "name": "performData",
          "type": "bytes"
        }
      ],
      "stateMutability": "view",
      "type": "function"
    },
    {
      "inputs": [],
      "name": "disableKeeper",
      "outputs": [],
      "stateMutability": "nonpayable",
      "type": "function"
    },
    {
      "inputs": [
        {
          "internalType": "string",
          "name": "service_",
          "type": "string"
        },
        {
          "internalType": "string",
          "name": "keypath_",
          "type": "string"
        }
      ],
      "name": "doRequest",
      "outputs": [
        {
          "internalType": "bytes32",
          "name": "requestId",
          "type": "bytes32"
        }
      ],
      "stateMutability": "nonpayable",
      "type": "function"
    },
    {
      "inputs": [],
      "name": "educationInflation",
      "outputs": [
        {
          "internalType": "string",
          "name": "",
          "type": "string"
        }
      ],
      "stateMutability": "view",
      "type": "function"
    },
    {
      "inputs": [],
      "name": "enableKeeper",
      "outputs": [],
      "stateMutability": "nonpayable",
      "type": "function"
    },
    {
      "inputs": [],
      "name": "fee",
      "outputs": [
        {
          "internalType": "uint256",
          "name": "",
          "type": "uint256"
        }
      ],
      "stateMutability": "view",
      "type": "function"
    },
    {
      "inputs": [],
      "name": "foodInflation",
      "outputs": [
        {
          "internalType": "string",
          "name": "",
          "type": "string"
        }
      ],
      "stateMutability": "view",
      "type": "function"
    },
    {
      "inputs": [
        {
          "internalType": "bytes32",
          "name": "_requestId",
          "type": "bytes32"
        },
        {
          "internalType": "bytes",
          "name": "bytesData",
          "type": "bytes"
        }
      ],
      "name": "fulfillBytes",
      "outputs": [],
      "stateMutability": "nonpayable",
      "type": "function"
    },
    {
      "inputs": [
        {
          "internalType": "bytes32",
          "name": "_requestId",
          "type": "bytes32"
        },
        {
          "internalType": "bytes",
          "name": "_inflation",
          "type": "bytes"
        }
      ],
      "name": "fulfillYoyInflation",
      "outputs": [],
      "stateMutability": "nonpayable",
      "type": "function"
    },
    {
      "inputs": [],
      "name": "getChainlinkToken",
      "outputs": [
        {
          "internalType": "address",
          "name": "",
          "type": "address"
        }
      ],
      "stateMutability": "view",
      "type": "function"
    },
    {
      "inputs": [],
      "name": "housingInflation",
      "outputs": [
        {
          "internalType": "string",
          "name": "",
          "type": "string"
        }
      ],
      "stateMutability": "view",
      "type": "function"
    },
    {
      "inputs": [],
      "name": "interval",
      "outputs": [
        {
          "internalType": "uint256",
          "name": "",
          "type": "uint256"
        }
      ],
      "stateMutability": "view",
      "type": "function"
    },
    {
      "inputs": [],
      "name": "jobId",
      "outputs": [
        {
          "internalType": "string",
          "name": "",
          "type": "string"
        }
      ],
      "stateMutability": "view",
      "type": "function"
    },
    {
      "inputs": [],
      "name": "lastTimeStamp",
      "outputs": [
        {
          "internalType": "uint256",
          "name": "",
          "type": "uint256"
        }
      ],
      "stateMutability": "view",
      "type": "function"
    },
    {
      "inputs": [],
      "name": "medicalInflation",
      "outputs": [
        {
          "internalType": "string",
          "name": "",
          "type": "string"
        }
      ],
      "stateMutability": "view",
      "type": "function"
    },
    {
      "inputs": [],
      "name": "oracleId",
      "outputs": [
        {
          "internalType": "address",
          "name": "",
          "type": "address"
        }
      ],
      "stateMutability": "view",
      "type": "function"
    },
    {
      "inputs": [],
      "name": "owner",
      "outputs": [
        {
          "internalType": "address",
          "name": "",
          "type": "address"
        }
      ],
      "stateMutability": "view",
      "type": "function"
    },
    {
      "inputs": [
        {
          "internalType": "bytes",
          "name": "performData",
          "type": "bytes"
        }
      ],
      "name": "performUpkeep",
      "outputs": [],
      "stateMutability": "nonpayable",
      "type": "function"
    },
    {
      "inputs": [],
      "name": "personalItemInflation",
      "outputs": [
        {
          "internalType": "string",
          "name": "",
          "type": "string"
        }
      ],
      "stateMutability": "view",
      "type": "function"
    },
    {
      "inputs": [],
      "name": "requestYoyInflation",
      "outputs": [
        {
          "internalType": "bytes32",
          "name": "requestId",
          "type": "bytes32"
        }
      ],
      "stateMutability": "nonpayable",
      "type": "function"
    },
    {
      "inputs": [],
      "name": "result",
      "outputs": [
        {
          "internalType": "bytes",
          "name": "",
          "type": "bytes"
        }
      ],
      "stateMutability": "view",
      "type": "function"
    },
    {
      "inputs": [
        {
          "internalType": "bytes32",
          "name": "",
          "type": "bytes32"
        }
      ],
      "name": "results",
      "outputs": [
        {
          "internalType": "bytes",
          "name": "",
          "type": "bytes"
        }
      ],
      "stateMutability": "view",
      "type": "function"
    },
    {
      "inputs": [],
      "name": "simulateRequestForCategoryInflations",
      "outputs": [],
      "stateMutability": "nonpayable",
      "type": "function"
    },
    {
      "inputs": [
        {
          "internalType": "address",
          "name": "to",
          "type": "address"
        }
      ],
      "name": "transferOwnership",
      "outputs": [],
      "stateMutability": "nonpayable",
      "type": "function"
    },
    {
      "inputs": [],
      "name": "transportationInflation",
      "outputs": [
        {
          "internalType": "string",
          "name": "",
          "type": "string"
        }
      ],
      "stateMutability": "view",
      "type": "function"
    },
    {
      "inputs": [],
      "name": "withdrawLink",
      "outputs": [],
      "stateMutability": "nonpayable",
      "type": "function"
    },
    {
      "inputs": [],
      "name": "yoyInflation",
      "outputs": [
        {
          "internalType": "string",
          "name": "",
          "type": "string"
        }
      ],
      "stateMutability": "view",
      "type": "function"
    }
  ],
  "bytecode": "0x60a060405260016004553480156200001657600080fd5b5033806000816200006e5760405162461bcd60e51b815260206004820152601860248201527f43616e6e6f7420736574206f776e657220746f207a65726f000000000000000060448201526064015b60405180910390fd5b600680546001600160a01b0319166001600160a01b0384811691909117909155811615620000a157620000a18162000143565b50620000af915050620001ef565b601180546001600160a01b031916736d141cf6c43f7eabf94e288f5aa3f233572784991790556040805180820190915260208082527f6432323065356536383738383434363239303961303330323133383562376165918101918252620001199160129162000290565b506706f05b59d3b2000060135561012c608052426014556015805460ff19166001179055620003a4565b336001600160a01b038216036200019d5760405162461bcd60e51b815260206004820152601760248201527f43616e6e6f74207472616e7366657220746f2073656c66000000000000000000604482015260640162000065565b600780546001600160a01b0319166001600160a01b03838116918217909255600654604051919216907fed8889f560326eb138920d842192f0eb3dd22b4f139c87a2c57538e05bae127890600090a350565b6200028e73c89bd4e1632d3a43cb03aaad5262cbe4038bc5716001600160a01b03166338cc48316040518163ffffffff1660e01b8152600401602060405180830381865afa15801562000246573d6000803e3d6000fd5b505050506040513d601f19601f820116820180604052508101906200026c919062000336565b600280546001600160a01b0319166001600160a01b0392909216919091179055565b565b8280546200029e9062000368565b90600052602060002090601f016020900481019282620002c257600085556200030d565b82601f10620002dd57805160ff19168380011785556200030d565b828001600101855582156200030d579182015b828111156200030d578251825591602001919060010190620002f0565b506200031b9291506200031f565b5090565b5b808211156200031b576000815560010162000320565b6000602082840312156200034957600080fd5b81516001600160a01b03811681146200036157600080fd5b9392505050565b600181811c908216806200037d57607f821691505b6020821081036200039e57634e487b7160e01b600052602260045260246000fd5b50919050565b608051611ada620003c76000396000818161031f01526106d80152611ada6000f3fe608060405234801561001057600080fd5b50600436106101da5760003560e01c80638b0af88411610104578063c2939d97116100a2578063eb4d193911610071578063eb4d193914610388578063ed5df9dd14610390578063f2fde38b14610398578063ffff5397146103ab57600080fd5b8063c2939d971461035c578063c2fb852314610364578063cda7b0e214610377578063ddca3f431461037f57600080fd5b80639063e216116100de5780639063e21614610307578063947a36fb1461031a578063af5d945b14610341578063bb694f161461034957600080fd5b80638b0af884146102e65780638da5cb5b146102ee5780638dc654a2146102ff57600080fd5b80633f43c9621161017c578063653721471161014b57806365372147146102ad5780636e04ff0d146102b557806372582c8d146102d657806379ba5097146102de57600080fd5b80633f43c962146102615780634585e33b1461027457806347c421b5146102875780634c6b25b11461029a57600080fd5b8063165d35e1116101b8578063165d35e11461020f5780632121778d1461022f57806334b9024d146102425780633f3b3b271461024a57600080fd5b80630395dd8d146101df578063053a709d146101fd57806313d1a10514610207575b600080fd5b6101e76103b3565b6040516101f49190611504565b60405180910390f35b610205610441565b005b6101e761054e565b61021761055b565b6040516001600160a01b0390911681526020016101f4565b601154610217906001600160a01b031681565b6101e7610574565b61025360145481565b6040519081526020016101f4565b61025361026f3660046115c2565b610581565b610205610282366004611625565b610667565b610205610295366004611696565b610680565b6101e76102a83660046116bf565b6106aa565b6101e76106c3565b6102c86102c3366004611625565b6106d0565b6040516101f49291906116d8565b61025361075c565b6102056108a8565b6101e761095b565b6006546001600160a01b0316610217565b610205610968565b6102056103153660046116f3565b610aa9565b6102537f000000000000000000000000000000000000000000000000000000000000000081565b6101e7610ac8565b610205610357366004611727565b610ad5565b6101e7610b69565b610205610372366004611727565b610b76565b6101e7610c24565b61025360135481565b610205610c31565b610205610c45565b6102056103a6366004611696565b610c5c565b6101e7610c6d565b600c80546103c090611777565b80601f01602080910402602001604051908101604052809291908181526020018280546103ec90611777565b80156104395780601f1061040e57610100808354040283529160200191610439565b820191906000526020600020905b81548152906001019060200180831161041c57829003601f168201915b505050505081565b60408051808201909152600580825264189997189b60d91b602090920191825261046d91600b916113e3565b50604080518082019091526005808252640c4c8b8c4d60da1b602090920191825261049a91600c916113e3565b5060408051808201909152600580825264032312e34360dc1b60209092019182526104c791600d916113e3565b50604080518082019091526004808252631997191b60e11b60209092019182526104f391600e916113e3565b5060408051808201909152600480825263312e343160e01b602090920191825261051f91600f916113e3565b5060408051808201909152600480825263352e303160e01b602090920191825261054b916010916113e3565b50565b600d80546103c090611777565b600061056f6002546001600160a01b031690565b905090565b600b80546103c090611777565b60008061059f61059160126117ab565b3063c2fb852360e01b610c7a565b6040805180820190915260078152667365727669636560c81b60208201529091506105cc90829086610c9f565b6040805180820190915260078152660d6caf2e0c2e8d60cb1b60208201526105f690829085610c9f565b6106426040518060400160405280600381526020016261626960e81b815250604051806040016040528060048152602001633539b7b760e11b81525083610c9f9092919063ffffffff16565b60115460135461065d916001600160a01b0316908390610cbd565b9150505b92915050565b42601455610673610441565b61067b61075c565b505050565b610688610d50565b601180546001600160a01b0319166001600160a01b0392909216919091179055565b600a60205260009081526040902080546103c090611777565b600980546103c090611777565b6000606060007f0000000000000000000000000000000000000000000000000000000000000000601454426107059190611832565b6015549110915060ff1680156107185750805b925084848080601f01602080910402602001604051908101604052809392919081815260200183838082843760009201919091525095989297509195505050505050565b60008061077a61076c60126117ab565b30635db4a78b60e11b610c7a565b90506107da604051806040016040528060078152602001667365727669636560c81b815250604051806040016040528060128152602001711d1c9d599b185d1a5bdb8bd8dd5c9c995b9d60721b81525083610c9f9092919063ffffffff16565b61083b604051806040016040528060078152602001660d6caf2e0c2e8d60cb1b815250604051806040016040528060158152602001743cb2b0b927bb32b92cb2b0b924b7333630ba34b7b760591b81525083610c9f9092919063ffffffff16565b6108876040518060400160405280600381526020016261626960e81b815250604051806040016040528060048152602001633539b7b760e11b81525083610c9f9092919063ffffffff16565b6011546013546108a2916001600160a01b0316908390610cbd565b91505090565b6007546001600160a01b031633146109005760405162461bcd60e51b815260206004820152601660248201527526bab9ba10313290383937b837b9b2b21037bbb732b960511b60448201526064015b60405180910390fd5b600680546001600160a01b0319808216339081179093556007805490911690556040516001600160a01b03909116919082907f8be0079c531659141344cd1fd0a4f28419497f9722a3daafe3b4186f6b6457e090600090a350565b601080546103c090611777565b610970610d50565b60006109846002546001600160a01b031690565b6040516370a0823160e01b81523060048201529091506001600160a01b0382169063a9059cbb90339083906370a0823190602401602060405180830381865afa1580156109d5573d6000803e3d6000fd5b505050506040513d601f19601f820116820180604052508101906109f99190611849565b6040516001600160e01b031960e085901b1681526001600160a01b03909216600483015260248201526044016020604051808303816000875af1158015610a44573d6000803e3d6000fd5b505050506040513d601f19601f82011682018060405250810190610a689190611862565b61054b5760405162461bcd60e51b81526020600482015260126024820152712ab730b13632903a37903a3930b739b332b960711b60448201526064016108f7565b610ab1610d50565b8051610ac49060129060208401906113e3565b5050565b600880546103c090611777565b60008281526005602052604090205482906001600160a01b03163314610b0d5760405162461bcd60e51b81526004016108f790611884565b60008181526005602052604080822080546001600160a01b03191690555182917f7cc135e0cebb02c3480ae5d74d377283180a2601f8f644edf7987b009316c63a91a28151610b639060089060208501906113e3565b50505050565b601280546103c090611777565b60008281526005602052604090205482906001600160a01b03163314610bae5760405162461bcd60e51b81526004016108f790611884565b60008181526005602052604080822080546001600160a01b03191690555182917f7cc135e0cebb02c3480ae5d74d377283180a2601f8f644edf7987b009316c63a91a28151610c049060099060208501906113e3565b506000838152600a602090815260409091208351610b63928501906113e3565b600f80546103c090611777565b610c39610d50565b6015805460ff19169055565b610c4d610d50565b6015805460ff19166001179055565b610c64610d50565b61054b81610da5565b600e80546103c090611777565b610c82611467565b610c8a611467565b610c9681868686610e4f565b95945050505050565b6080830151610cae9083610e95565b608083015161067b9082610e95565b600454600090610cce8160016118cc565b600455835160408086015160808701515191516000936320214ca360e11b93610d069386938493923092918a916001916024016118e4565b60408051601f198184030181529190526020810180516001600160e01b03166001600160e01b0319909316929092179091529050610d4686838684610eac565b9695505050505050565b6006546001600160a01b03163314610da35760405162461bcd60e51b815260206004820152601660248201527527b7363c9031b0b63630b1363290313c9037bbb732b960511b60448201526064016108f7565b565b336001600160a01b03821603610dfd5760405162461bcd60e51b815260206004820152601760248201527f43616e6e6f74207472616e7366657220746f2073656c6600000000000000000060448201526064016108f7565b600780546001600160a01b0319166001600160a01b03838116918217909255600654604051919216907fed8889f560326eb138920d842192f0eb3dd22b4f139c87a2c57538e05bae127890600090a350565b610e57611467565b610e67856080015161010061100a565b50508284526001600160a01b03821660208501526001600160e01b031981166040850152835b949350505050565b610ea2826003835161106f565b61067b8282611176565b6040516bffffffffffffffffffffffff193060601b1660208201526034810184905260009060540160408051808303601f1901815282825280516020918201206000818152600590925291812080546001600160a01b0319166001600160a01b038a1617905590925082917fb5e6e01e79f91267dc17b4e6314d5d4d03593d2ceee0fbb452b750bd70ea5af99190a2600254604051630200057560e51b81526001600160a01b0390911690634000aea090610f6f9088908790879060040161194c565b6020604051808303816000875af1158015610f8e573d6000803e3d6000fd5b505050506040513d601f19601f82011682018060405250810190610fb29190611862565b610e8d5760405162461bcd60e51b815260206004820152602360248201527f756e61626c6520746f207472616e73666572416e6443616c6c20746f206f7261604482015262636c6560e81b60648201526084016108f7565b60408051808201909152606081526000602082015261102a602083611973565b156110525761103a602083611973565b611045906020611832565b61104f90836118cc565b91505b506020828101829052604080518085526000815290920101905290565b6017816001600160401b03161161109357610b638360e0600585901b1683176111a4565b60ff816001600160401b0316116110cf576110b9836018611fe0600586901b16176111a4565b50610b63836001600160401b03831660016111c9565b61ffff816001600160401b03161161110c576110f6836019611fe0600586901b16176111a4565b50610b63836001600160401b03831660026111c9565b63ffffffff816001600160401b03161161114b5761113583601a611fe0600586901b16176111a4565b50610b63836001600160401b03831660046111c9565b61116083601b611fe0600586901b16176111a4565b50610b63836001600160401b03831660086111c9565b60408051808201909152606081526000602082015261119d838460000151518485516111ef565b9392505050565b60408051808201909152606081526000602082015261119d83846000015151846112d9565b604080518082019091526060815260006020820152610e8d848560000151518585611334565b604080518082019091526060815260006020820152825182111561121257600080fd5b602085015161122183866118cc565b111561125457611254856112448760200151878661123f91906118cc565b6113b5565b61124f906002611995565b6113cc565b6000808651805187602083010193508088870111156112735787860182525b505050602084015b602084106112b357805182526112926020836118cc565b915061129f6020826118cc565b90506112ac602085611832565b935061127b565b51815160001960208690036101000a019081169019919091161790525083949350505050565b6040805180820190915260608152600060208201528360200151831061130e5761130e848560200151600261124f9190611995565b835180516020858301018481535080850361132a576001810182525b5093949350505050565b604080518082019091526060815260006020820152602085015161135885846118cc565b111561136c5761136c8561124486856118cc565b6000600161137c84610100611a98565b6113869190611832565b90508551838682010185831982511617815250805184870111156113aa5783860181525b509495945050505050565b6000818311156113c6575081610661565b50919050565b81516113d8838361100a565b50610b638382611176565b8280546113ef90611777565b90600052602060002090601f0160209004810192826114115760008555611457565b82601f1061142a57805160ff1916838001178555611457565b82800160010185558215611457579182015b8281111561145757825182559160200191906001019061143c565b506114639291506114a2565b5090565b6040805160a0810182526000808252602080830182905282840182905260608084018390528451808601909552845283015290608082015290565b5b8082111561146357600081556001016114a3565b6000815180845260005b818110156114dd576020818501810151868301820152016114c1565b818111156114ef576000602083870101525b50601f01601f19169290920160200192915050565b60208152600061119d60208301846114b7565b634e487b7160e01b600052604160045260246000fd5b60006001600160401b038084111561154757611547611517565b604051601f8501601f19908116603f0116810190828211818310171561156f5761156f611517565b8160405280935085815286868601111561158857600080fd5b858560208301376000602087830101525050509392505050565b600082601f8301126115b357600080fd5b61119d8383356020850161152d565b600080604083850312156115d557600080fd5b82356001600160401b03808211156115ec57600080fd5b6115f8868387016115a2565b9350602085013591508082111561160e57600080fd5b5061161b858286016115a2565b9150509250929050565b6000806020838503121561163857600080fd5b82356001600160401b038082111561164f57600080fd5b818501915085601f83011261166357600080fd5b81358181111561167257600080fd5b86602082850101111561168457600080fd5b60209290920196919550909350505050565b6000602082840312156116a857600080fd5b81356001600160a01b038116811461119d57600080fd5b6000602082840312156116d157600080fd5b5035919050565b8215158152604060208201526000610e8d60408301846114b7565b60006020828403121561170557600080fd5b81356001600160401b0381111561171b57600080fd5b61065d848285016115a2565b6000806040838503121561173a57600080fd5b8235915060208301356001600160401b0381111561175757600080fd5b8301601f8101851361176857600080fd5b61161b8582356020840161152d565b600181811c9082168061178b57607f821691505b6020821081036113c657634e487b7160e01b600052602260045260246000fd5b8054600090600180821691901c816117c157607f165b602081108083036117e257634e487b7160e01b600052602260045260246000fd5b849250601f8211156117fa5784600052602060002092505b825493508015611814576000198260200360031b1b841693505b505050919050565b634e487b7160e01b600052601160045260246000fd5b6000828210156118445761184461181c565b500390565b60006020828403121561185b57600080fd5b5051919050565b60006020828403121561187457600080fd5b8151801515811461119d57600080fd5b60208082526028908201527f536f75726365206d75737420626520746865206f7261636c65206f6620746865604082015267081c995c5d595cdd60c21b606082015260800190565b600082198211156118df576118df61181c565b500190565b6001600160a01b0389811682526020820189905260408201889052861660608201526001600160e01b03198516608082015260a0810184905260c0810183905261010060e0820181905260009061193d838201856114b7565b9b9a5050505050505050505050565b60018060a01b0384168152826020820152606060408201526000610c9660608301846114b7565b60008261199057634e487b7160e01b600052601260045260246000fd5b500690565b60008160001904831182151516156119af576119af61181c565b500290565b600181815b808511156119ef5781600019048211156119d5576119d561181c565b808516156119e257918102915b93841c93908002906119b9565b509250929050565b600082611a0657506001610661565b81611a1357506000610661565b8160018114611a295760028114611a3357611a4f565b6001915050610661565b60ff841115611a4457611a4461181c565b50506001821b610661565b5060208310610133831016604e8410600b8410161715611a72575081810a610661565b611a7c83836119b4565b8060001904821115611a9057611a9061181c565b029392505050565b600061119d83836119f756fea26469706673582212208f7852a2572d2c5c095d9582857682d65465ef65adf71c5530aec55c235603b564736f6c634300080d0033",
  "linkReferences": {},
  "deployedLinkReferences": {}
}