{
  "_format": "hh-sol-artifact-1",
  "contractName": "UnofDexSwap",
  "sourceName": "contracts/swap/UnofDexSwap.sol",
  "abi": [
    {
      "inputs": [
        {
          "internalType": "address",
          "name": "_router",
          "type": "address"
        },
        {
          "internalType": "address",
          "name": "_wrappedToken",
          "type": "address"
        }
      ],
      "stateMutability": "nonpayable",
      "type": "constructor"
    },
    {
      "stateMutability": "payable",
      "type": "fallback"
    },
    {
      "inputs": [
        {
          "internalType": "address",
          "name": "token1Address",
          "type": "address"
        },
        {
          "internalType": "uint256",
          "name": "token1Amount",
          "type": "uint256"
        },
        {
          "internalType": "uint256",
          "name": "slippage",
          "type": "uint256"
        }
      ],
      "name": "addNativeTokenLiquidity",
      "outputs": [
        {
          "internalType": "uint256",
          "name": "nativeTokenAmountAdded",
          "type": "uint256"
        },
        {
          "internalType": "uint256",
          "name": "token1AmountAdded",
          "type": "uint256"
        },
        {
          "internalType": "uint256",
          "name": "liquidity",
          "type": "uint256"
        }
      ],
      "stateMutability": "payable",
      "type": "function"
    },
    {
      "inputs": [
        {
          "internalType": "address",
          "name": "token0Address",
          "type": "address"
        },
        {
          "internalType": "address",
          "name": "token1Address",
          "type": "address"
        },
        {
          "internalType": "uint256",
          "name": "token0Amount",
          "type": "uint256"
        },
        {
          "internalType": "uint256",
          "name": "token1Amount",
          "type": "uint256"
        },
        {
          "internalType": "uint256",
          "name": "slippage",
          "type": "uint256"
        }
      ],
      "name": "addNonNativeTokenLiquidity",
      "outputs": [
        {
          "internalType": "uint256",
          "name": "token0AmountAdded",
          "type": "uint256"
        },
        {
          "internalType": "uint256",
          "name": "token1AmountAdded",
          "type": "uint256"
        },
        {
          "internalType": "uint256",
          "name": "liquidity",
          "type": "uint256"
        }
      ],
      "stateMutability": "nonpayable",
      "type": "function"
    },
    {
      "inputs": [
        {
          "internalType": "address",
          "name": "tokenAddress",
          "type": "address"
        }
      ],
      "name": "getAllowance",
      "outputs": [
        {
          "internalType": "uint256",
          "name": "allowance",
          "type": "uint256"
        }
      ],
      "stateMutability": "view",
      "type": "function"
    },
    {
      "inputs": [
        {
          "internalType": "address",
          "name": "tokenOutAddress",
          "type": "address"
        },
        {
          "internalType": "uint256",
          "name": "tokenInAmount",
          "type": "uint256"
        }
      ],
      "name": "getNativeQuote",
      "outputs": [
        {
          "internalType": "uint256",
          "name": "tokenOutAmount",
          "type": "uint256"
        }
      ],
      "stateMutability": "view",
      "type": "function"
    },
    {
      "inputs": [
        {
          "internalType": "address",
          "name": "tokenInAddress",
          "type": "address"
        },
        {
          "internalType": "address",
          "name": "tokenOutAddress",
          "type": "address"
        },
        {
          "internalType": "uint256",
          "name": "tokenInAmount",
          "type": "uint256"
        }
      ],
      "name": "getQuote",
      "outputs": [
        {
          "internalType": "uint256",
          "name": "tokenOutAmount",
          "type": "uint256"
        }
      ],
      "stateMutability": "view",
      "type": "function"
    },
    {
      "inputs": [
        {
          "internalType": "address",
          "name": "tokenOutAddress",
          "type": "address"
        }
      ],
      "name": "swapNativeToken",
      "outputs": [
        {
          "internalType": "uint256",
          "name": "swapAmount",
          "type": "uint256"
        }
      ],
      "stateMutability": "payable",
      "type": "function"
    },
    {
      "inputs": [
        {
          "internalType": "address",
          "name": "tokenInAddress",
          "type": "address"
        },
        {
          "internalType": "address",
          "name": "tokenOutAddress",
          "type": "address"
        },
        {
          "internalType": "uint256",
          "name": "tokenInAmount",
          "type": "uint256"
        }
      ],
      "name": "swapNonNativeToken",
      "outputs": [
        {
          "internalType": "uint256",
          "name": "swapAmount",
          "type": "uint256"
        }
      ],
      "stateMutability": "nonpayable",
      "type": "function"
    },
    {
      "stateMutability": "payable",
      "type": "receive"
    }
  ],
  "bytecode": "0x60803461008d57601f610b8138819003918201601f19168301916001600160401b0383118484101761009257808492604094855283398101031261008d57610052602061004b836100a8565b92016100a8565b600080546001600160a01b039384166001600160a01b03199182161790915560018054929093169116179055604051610ac490816100bd8239f35b600080fd5b634e487b7160e01b600052604160045260246000fd5b51906001600160a01b038216820361008d5756fe6040608081526004908136101561001d575b5050361561001b57005b005b600091823560e01c908163181e74051461063557816376b174d1146104f857816388d4ec1b146104695781638bacecbc146102fb5781638c5468761461017a578163c515ee23146100a2575063eb5a662e03610011573461009e57602036600319011261009e57602090610097610092610715565b6107b9565b9051908152f35b5080fd5b905082346101775761011f916100b736610730565b9092918651936100c685610765565b60028552873660208701376100da85610834565b6001600160a01b039283169052816100f186610857565b911690528454169186519586948593849363d06ca61f60e01b855284015288602484015260448301906108e3565b03915afa90811561016b5790610140918460209592610148575b5050610857565b519051908152f35b61016492503d8091833e61015c8183610797565b810190610867565b3880610139565b505051903d90823e3d90fd5b80fd5b83833461009e5760a036600319011261009e57610195610715565b6001600160a01b0390602435828116908181036102f75760443590606435906101ec82608435926101cf6101c8896107b9565b1515610920565b6101db6101c8826107b9565b6101e6868933610976565b33610976565b610219610212606461020a816102028689610a7b565b049486610a7b565b049285610a58565b9183610a58565b9161012c4201938442116102e457926101049592889795928b9560609a875416958c519e8f9b8c9a62e8e33760e81b8c5216908a0152602489015260448801526064870152608486015260a48501523360c485015260e48401525af180156102d957829183916102a1575b5191825260208201929092526040810191909152606090f35b0390f35b925050506102c861029d9260603d81116102d2575b6102c08183610797565b810190610a3d565b9093508392610284565b503d6102b6565b5051903d90823e3d90fd5b634e487b7160e01b8a5260118b5260248afd5b8580fd5b83833461009e5761030b36610730565b90916103196101c8826107b9565b610324828233610976565b83519261033084610765565b600284528436602086013761034484610834565b6001600160a01b0392831690528161035b85610857565b91169052845416835163d06ca61f60e01b8152828782015284602482015285818061038960448201886108e3565b0381855afa90811561045f57906103a7918791610445575b50610857565b519161012c42018042116104325795809786976103eb83979851988997889687956338ed173960e01b8752860152602485015260a0604485015260a48401906108e3565b90336064840152608483015203925af190811561016b5790610140918460209592610417575050610857565b61042b92503d8091833e61015c8183610797565b8480610139565b634e487b7160e01b875260118852602487fd5b61045991503d8089833e61015c8183610797565b886103a1565b85513d88823e3d90fd5b9050346104f45782826003193601126101775761011f91610488610715565b9084519161049583610765565b60028352853660208501376001546001600160a01b03919082166104b885610834565b52816104c385610857565b9116905283541690855180958194829363d06ca61f60e01b84526024359084015288602484015260448301906108e3565b8280fd5b8383602036600319011261009e5761050e610715565b81519061051a82610765565b60028252823660208401376001546001600160a01b039190821661053d84610834565b528161054884610857565b91169052835416825163d06ca61f60e01b8152348682015283602482015284818061057660448201876108e3565b0381855afa90811561062b57906105939186916106115750610857565b5161012c42018042116105fe57916105d09391878794875196879586948594637ff36ab560e01b86528501526080602485015260848401906108e3565b903360448401526064830152039134905af190811561016b5790610140918460209592610417575050610857565b634e487b7160e01b865260118752602486fd5b61062591503d8088833e61015c8183610797565b876103a1565b84513d87823e3d90fd5b8383606036600319011261009e5761064b610715565b6044359060243561065e6101c8836107b9565b610669818333610976565b61069661068f60646106878161067f8834610a7b565b049685610a7b565b049434610a58565b9382610a58565b9261012c4201908142116104325791606094939160c49360018060a01b0395868a54169389519b8c98899763f305d71960e01b8952169087015260248601526044850152606484015233608484015260a483015234905af180156102d957829183916102a1575191825260208201929092526040810191909152606090f35b600435906001600160a01b038216820361072b57565b600080fd5b606090600319011261072b576001600160a01b0390600435828116810361072b5791602435908116810361072b579060443590565b6060810190811067ffffffffffffffff82111761078157604052565b634e487b7160e01b600052604160045260246000fd5b90601f8019910116810190811067ffffffffffffffff82111761078157604052565b604051636eb1769f60e11b815233600482015230602482015290602090829060449082906001600160a01b03165afa908115610828576000916107fa575090565b906020823d8211610820575b8161081360209383610797565b8101031261017757505190565b3d9150610806565b6040513d6000823e3d90fd5b8051156108415760200190565b634e487b7160e01b600052603260045260246000fd5b8051600110156108415760400190565b90602090818382031261072b57825167ffffffffffffffff9384821161072b570181601f8201121561072b578051938411610781578360051b90604051946108b185840187610797565b8552838086019282010192831161072b578301905b8282106108d4575050505090565b815181529083019083016108c6565b90815180825260208080930193019160005b828110610903575050505090565b83516001600160a01b0316855293810193928101926001016108f5565b1561092757565b60405162461bcd60e51b815260206004820152600f60248201526e20b63637bbb0b731b29032b93937b960891b6044820152606490fd5b9081602091031261072b5751801515810361072b5790565b6040516323b872dd60e01b81526001600160a01b0391821660048201523060248201526044810184905260209392821692909184836064816000885af1908115610828578593604492610a20575b50600054166000604051958694859363095ea7b360e01b8552600485015260248401525af18015610828576109f7575050565b81610a1692903d10610a19575b610a0e8183610797565b81019061095e565b50565b503d610a04565b610a3690853d8711610a1957610a0e8183610797565b50386109c4565b9081606091031261072b578051916040602083015192015190565b91908203918211610a6557565b634e487b7160e01b600052601160045260246000fd5b81810292918115918404141715610a655756fea26469706673582212207bb4a39db94a1fa5f0f4664bb5dd0a926b326944549b2de5fef5ea4f90a56e2a64736f6c63430008120033",
  "linkReferences": {},
  "deployedLinkReferences": {}
}