{
  "_format": "hh-sol-artifact-1",
  "contractName": "Exchange",
  "sourceName": "contracts/Exchange.sol",
  "abi": [
    {
      "inputs": [],
      "stateMutability": "nonpayable",
      "type": "constructor"
    },
    {
      "anonymous": false,
      "inputs": [
        {
          "indexed": true,
          "internalType": "address",
          "name": "signer",
          "type": "address"
        },
        {
          "indexed": true,
          "internalType": "uint256",
          "name": "tokenId",
          "type": "uint256"
        },
        {
          "indexed": false,
          "internalType": "uint256",
          "name": "price",
          "type": "uint256"
        },
        {
          "indexed": false,
          "internalType": "address",
          "name": "priceFeed",
          "type": "address"
        },
        {
          "indexed": false,
          "internalType": "int256",
          "name": "tresholdPrice",
          "type": "int256"
        }
      ],
      "name": "MakerAsk",
      "type": "event"
    },
    {
      "anonymous": false,
      "inputs": [
        {
          "indexed": true,
          "internalType": "address",
          "name": "taker",
          "type": "address"
        },
        {
          "indexed": true,
          "internalType": "address",
          "name": "maker",
          "type": "address"
        },
        {
          "indexed": true,
          "internalType": "uint256",
          "name": "tokenId",
          "type": "uint256"
        },
        {
          "indexed": false,
          "internalType": "uint256",
          "name": "price",
          "type": "uint256"
        }
      ],
      "name": "TakerBid",
      "type": "event"
    },
    {
      "inputs": [
        {
          "components": [
            {
              "internalType": "address",
              "name": "signer",
              "type": "address"
            },
            {
              "internalType": "address",
              "name": "collection",
              "type": "address"
            },
            {
              "internalType": "uint256",
              "name": "price",
              "type": "uint256"
            },
            {
              "internalType": "uint256",
              "name": "tokenId",
              "type": "uint256"
            },
            {
              "internalType": "uint256",
              "name": "startTime",
              "type": "uint256"
            },
            {
              "internalType": "uint256",
              "name": "endTime",
              "type": "uint256"
            },
            {
              "internalType": "address",
              "name": "priceFeed",
              "type": "address"
            },
            {
              "internalType": "int256",
              "name": "tresholdPrice",
              "type": "int256"
            }
          ],
          "internalType": "struct OrderTypes.MakerOrder",
          "name": "makerAsk",
          "type": "tuple"
        }
      ],
      "name": "createMakerAsk",
      "outputs": [],
      "stateMutability": "nonpayable",
      "type": "function"
    },
    {
      "inputs": [],
      "name": "deployer",
      "outputs": [
        {
          "internalType": "address",
          "name": "",
          "type": "address"
        }
      ],
      "stateMutability": "view",
      "type": "function"
    },
    {
      "inputs": [
        {
          "internalType": "uint256",
          "name": "id",
          "type": "uint256"
        }
      ],
      "name": "getMakerAsk",
      "outputs": [
        {
          "components": [
            {
              "internalType": "address",
              "name": "signer",
              "type": "address"
            },
            {
              "internalType": "address",
              "name": "collection",
              "type": "address"
            },
            {
              "internalType": "uint256",
              "name": "price",
              "type": "uint256"
            },
            {
              "internalType": "uint256",
              "name": "tokenId",
              "type": "uint256"
            },
            {
              "internalType": "uint256",
              "name": "startTime",
              "type": "uint256"
            },
            {
              "internalType": "uint256",
              "name": "endTime",
              "type": "uint256"
            },
            {
              "internalType": "address",
              "name": "priceFeed",
              "type": "address"
            },
            {
              "internalType": "int256",
              "name": "tresholdPrice",
              "type": "int256"
            }
          ],
          "internalType": "struct OrderTypes.MakerOrder",
          "name": "",
          "type": "tuple"
        }
      ],
      "stateMutability": "view",
      "type": "function"
    },
    {
      "inputs": [],
      "name": "getMakerAsks",
      "outputs": [
        {
          "components": [
            {
              "internalType": "address",
              "name": "signer",
              "type": "address"
            },
            {
              "internalType": "address",
              "name": "collection",
              "type": "address"
            },
            {
              "internalType": "uint256",
              "name": "price",
              "type": "uint256"
            },
            {
              "internalType": "uint256",
              "name": "tokenId",
              "type": "uint256"
            },
            {
              "internalType": "uint256",
              "name": "startTime",
              "type": "uint256"
            },
            {
              "internalType": "uint256",
              "name": "endTime",
              "type": "uint256"
            },
            {
              "internalType": "address",
              "name": "priceFeed",
              "type": "address"
            },
            {
              "internalType": "int256",
              "name": "tresholdPrice",
              "type": "int256"
            }
          ],
          "internalType": "struct OrderTypes.MakerOrder",
          "name": "",
          "type": "tuple"
        }
      ],
      "stateMutability": "view",
      "type": "function"
    },
    {
      "inputs": [
        {
          "internalType": "address",
          "name": "account",
          "type": "address"
        }
      ],
      "name": "getMakerAsksByAccount",
      "outputs": [
        {
          "internalType": "uint256[2][]",
          "name": "",
          "type": "uint256[2][]"
        }
      ],
      "stateMutability": "view",
      "type": "function"
    },
    {
      "inputs": [
        {
          "internalType": "address",
          "name": "feed",
          "type": "address"
        }
      ],
      "name": "getMakerAsksByFeed",
      "outputs": [
        {
          "internalType": "uint256[2][]",
          "name": "",
          "type": "uint256[2][]"
        },
        {
          "internalType": "address[]",
          "name": "",
          "type": "address[]"
        }
      ],
      "stateMutability": "view",
      "type": "function"
    },
    {
      "inputs": [
        {
          "internalType": "address",
          "name": "",
          "type": "address"
        },
        {
          "internalType": "uint256",
          "name": "",
          "type": "uint256"
        }
      ],
      "name": "makerAskByAccountAndId",
      "outputs": [
        {
          "internalType": "address",
          "name": "signer",
          "type": "address"
        },
        {
          "internalType": "address",
          "name": "collection",
          "type": "address"
        },
        {
          "internalType": "uint256",
          "name": "price",
          "type": "uint256"
        },
        {
          "internalType": "uint256",
          "name": "tokenId",
          "type": "uint256"
        },
        {
          "internalType": "uint256",
          "name": "startTime",
          "type": "uint256"
        },
        {
          "internalType": "uint256",
          "name": "endTime",
          "type": "uint256"
        },
        {
          "internalType": "address",
          "name": "priceFeed",
          "type": "address"
        },
        {
          "internalType": "int256",
          "name": "tresholdPrice",
          "type": "int256"
        }
      ],
      "stateMutability": "view",
      "type": "function"
    },
    {
      "inputs": [
        {
          "internalType": "address",
          "name": "",
          "type": "address"
        },
        {
          "internalType": "uint256",
          "name": "",
          "type": "uint256"
        }
      ],
      "name": "makerAskByFeedAndId",
      "outputs": [
        {
          "internalType": "address",
          "name": "signer",
          "type": "address"
        },
        {
          "internalType": "address",
          "name": "collection",
          "type": "address"
        },
        {
          "internalType": "uint256",
          "name": "price",
          "type": "uint256"
        },
        {
          "internalType": "uint256",
          "name": "tokenId",
          "type": "uint256"
        },
        {
          "internalType": "uint256",
          "name": "startTime",
          "type": "uint256"
        },
        {
          "internalType": "uint256",
          "name": "endTime",
          "type": "uint256"
        },
        {
          "internalType": "address",
          "name": "priceFeed",
          "type": "address"
        },
        {
          "internalType": "int256",
          "name": "tresholdPrice",
          "type": "int256"
        }
      ],
      "stateMutability": "view",
      "type": "function"
    },
    {
      "inputs": [
        {
          "internalType": "uint256",
          "name": "",
          "type": "uint256"
        }
      ],
      "name": "makerAskByTokenId",
      "outputs": [
        {
          "internalType": "address",
          "name": "signer",
          "type": "address"
        },
        {
          "internalType": "address",
          "name": "collection",
          "type": "address"
        },
        {
          "internalType": "uint256",
          "name": "price",
          "type": "uint256"
        },
        {
          "internalType": "uint256",
          "name": "tokenId",
          "type": "uint256"
        },
        {
          "internalType": "uint256",
          "name": "startTime",
          "type": "uint256"
        },
        {
          "internalType": "uint256",
          "name": "endTime",
          "type": "uint256"
        },
        {
          "internalType": "address",
          "name": "priceFeed",
          "type": "address"
        },
        {
          "internalType": "int256",
          "name": "tresholdPrice",
          "type": "int256"
        }
      ],
      "stateMutability": "view",
      "type": "function"
    },
    {
      "inputs": [
        {
          "internalType": "address",
          "name": "",
          "type": "address"
        }
      ],
      "name": "makerAskCountByAccount",
      "outputs": [
        {
          "internalType": "uint256",
          "name": "",
          "type": "uint256"
        }
      ],
      "stateMutability": "view",
      "type": "function"
    },
    {
      "inputs": [
        {
          "internalType": "address",
          "name": "",
          "type": "address"
        }
      ],
      "name": "makerAskCountByFeed",
      "outputs": [
        {
          "internalType": "uint256",
          "name": "",
          "type": "uint256"
        }
      ],
      "stateMutability": "view",
      "type": "function"
    },
    {
      "inputs": [
        {
          "internalType": "address",
          "name": "",
          "type": "address"
        }
      ],
      "name": "makerAskUpperLimitByAccount",
      "outputs": [
        {
          "internalType": "uint256",
          "name": "",
          "type": "uint256"
        }
      ],
      "stateMutability": "view",
      "type": "function"
    },
    {
      "inputs": [
        {
          "internalType": "address",
          "name": "",
          "type": "address"
        }
      ],
      "name": "makerAskUpperLimitByFeed",
      "outputs": [
        {
          "internalType": "uint256",
          "name": "",
          "type": "uint256"
        }
      ],
      "stateMutability": "view",
      "type": "function"
    },
    {
      "inputs": [
        {
          "components": [
            {
              "internalType": "address",
              "name": "taker",
              "type": "address"
            },
            {
              "internalType": "uint256",
              "name": "price",
              "type": "uint256"
            },
            {
              "internalType": "address",
              "name": "collection",
              "type": "address"
            },
            {
              "internalType": "uint256",
              "name": "tokenId",
              "type": "uint256"
            }
          ],
          "internalType": "struct OrderTypes.TakerOrder",
          "name": "takerBid",
          "type": "tuple"
        }
      ],
      "name": "matchAskWithTakerBid",
      "outputs": [],
      "stateMutability": "payable",
      "type": "function"
    },
    {
      "inputs": [],
      "name": "predictionMarketAddress",
      "outputs": [
        {
          "internalType": "address",
          "name": "",
          "type": "address"
        }
      ],
      "stateMutability": "view",
      "type": "function"
    },
    {
      "inputs": [
        {
          "internalType": "address",
          "name": "_predictionMarket",
          "type": "address"
        }
      ],
      "name": "setPredictionMarketAddress",
      "outputs": [],
      "stateMutability": "nonpayable",
      "type": "function"
    }
  ],
  "bytecode": "0x608060405234801561001057600080fd5b50600080546001600160a01b03191633179055611786806100326000396000f3fe6080604052600436106100f35760003560e01c8063c2ce10fe1161008a578063d8d61ffa11610059578063d8d61ffa14610433578063e4be25b414610448578063f22b5e20146104bf578063fbbec746146104ec57600080fd5b8063c2ce10fe14610344578063c7801368146103d3578063c9f5ae7b14610400578063d5f394881461041357600080fd5b806383839200116100c657806383839200146101cf57806385edae491461028a578063a2f01e3b146102ac578063b1ab92de1461032457600080fd5b80631db0a700146100f8578063220a47e71461012f578063375211751461016a5780637984c209146101a2575b600080fd5b34801561010457600080fd5b506101186101133660046114ad565b610519565b60405161012692919061152b565b60405180910390f35b34801561013b57600080fd5b5061015c61014a3660046114ad565b60086020526000908152604090205481565b604051908152602001610126565b34801561017657600080fd5b5060015461018a906001600160a01b031681565b6040516001600160a01b039091168152602001610126565b3480156101ae57600080fd5b5061015c6101bd3660046114ad565b60066020526000908152604090205481565b3480156101db57600080fd5b5061023d6101ea36600461158b565b6004602081905260009182526040909120805460018201546002830154600384015494840154600585015460068601546007909601546001600160a01b0395861697948616969395929391929091169088565b604080516001600160a01b03998a16815297891660208901528701959095526060860193909352608085019190915260a084015290921660c082015260e081019190915261010001610126565b34801561029657600080fd5b506102aa6102a53660046114ad565b610741565b005b3480156102b857600080fd5b5061023d6102c73660046115a4565b60076020818152600093845260408085209091529183529120805460018201546002830154600384015460048501546005860154600687015496909701546001600160a01b03958616979486169693959294919391929091169088565b34801561033057600080fd5b506102aa61033f3660046115d0565b6107e1565b34801561035057600080fd5b5061036461035f36600461158b565b610c20565b604051610126919060006101008201905060018060a01b0380845116835280602085015116602084015260408401516040840152606084015160608401526080840151608084015260a084015160a08401528060c08501511660c08401525060e083015160e083015292915050565b3480156103df57600080fd5b5061015c6103ee3660046114ad565b60036020526000908152604090205481565b6102aa61040e3660046115e9565b610ca1565b34801561041f57600080fd5b5060005461018a906001600160a01b031681565b34801561043f57600080fd5b506103646111cb565b34801561045457600080fd5b5061023d6104633660046115a4565b60056020818152600093845260408085209091529183529120805460018201546002830154600384015460048501549585015460068601546007909601546001600160a01b039586169794861696939592949391929091169088565b3480156104cb57600080fd5b506104df6104da3660046114ad565b6111d6565b60405161012691906115fb565b3480156104f857600080fd5b5061015c6105073660046114ad565b60026020526000908152604090205481565b6001600160a01b0381166000908152600660209081526040808320546002909252822054606092839291908167ffffffffffffffff81111561055d5761055d61160e565b60405190808252806020026020018201604052801561059657816020015b610583611417565b81526020019060019003908161057b5790505b50905060008267ffffffffffffffff8111156105b4576105b461160e565b6040519080825280602002602001820160405280156105dd578160200160208202803683370190505b5090506000805b858211610733576001600160a01b03808a166000908152600560208181526040808420878552825292839020835161010081018552815486168152600182015486169281019290925260028101549382019390935260038301546060820152600483015460808201529082015460a0820152600682015490921660c0830181905260079091015460e083015215610720578060600151816040015186848151811061069157610691611624565b60200260200101516000600281106106ab576106ab611624565b602002018785815181106106c1576106c1611624565b60200260200101516001600281106106db576106db611624565b602002019190915252805184518590849081106106fa576106fa611624565b6001600160a01b03909216602092830291909101909101528161071c81611650565b9250505b8261072a81611650565b935050506105e4565b509197909650945050505050565b6000546001600160a01b031633146107bf5760405162461bcd60e51b815260206004820152603660248201527f4f6e6c79206465706c6f7965722063616e206368616e6765207468652070726560448201527564696374696f6e206d61726b6574206164647265737360501b60648201526084015b60405180910390fd5b600180546001600160a01b0319166001600160a01b0392909216919091179055565b6107ee60208201826114ad565b6001600160a01b0316336001600160a01b0316148061081757506001546001600160a01b031633145b6108635760405162461bcd60e51b815260206004820152601860248201527f6d616b6572206d757374206265207468652073656e646572000000000000000060448201526064016107b6565b600061087560408301602084016114ad565b6040516331a9108f60e11b8152606084013560048201526001600160a01b039190911690636352211e90602401602060405180830381865afa1580156108bf573d6000803e3d6000fd5b505050506040513d601f19601f820116820180604052508101906108e39190611669565b9050336001600160a01b038216148061090657506001546001600160a01b031633145b6109615760405162461bcd60e51b815260206004820152602660248201527f6d616b6572206d75737420626520746865206f776e6572206f7220746865207060448201526513585c9ad95d60d21b60648201526084016107b6565b60006109706060840135610c20565b516001600160a01b0316036109fe576002600061099360e0850160c086016114ad565b6001600160a01b03168152602081019190915260400160009081208054916109ba83611650565b909155506003905060006109d160208501856114ad565b6001600160a01b03168152602081019190915260400160009081208054916109f883611650565b91905055505b8160056000610a1360e0840160c085016114ad565b6001600160a01b0316815260208082019290925260409081016000908120606087013582529092529020610a4782826116b9565b5082905060076000610a5c60208401846114ad565b6001600160a01b0316815260208082019290925260409081016000908120606087013582529092529020610a9082826116b9565b5060009050600681610aa860e0860160c087016114ad565b6001600160a01b03166001600160a01b031681526020019081526020016000205490508083606001351115610b0b57606083013560066000610af060e0870160c088016114ad565b6001600160a01b031681526020810191909152604001600020555b6000600881610b1d60208701876114ad565b6001600160a01b03166001600160a01b031681526020019081526020016000205490508084606001351115610b7d57606084013560086000610b6260208801886114ad565b6001600160a01b031681526020810191909152604001600020555b606084013560009081526004602052604090208490610b9c82826116b9565b50506060840135610bb060208601866114ad565b6001600160a01b03167fc717a66d8a9ee77f9f7f2fa49b9dcc0eb12fe60b6eec2ec1d489b84745694c3f6040870135610bef60e0890160c08a016114ad565b604080519283526001600160a01b03909116602083015260e08901359082015260600160405180910390a350505050565b610c28611435565b5060009081526004602081815260409283902083516101008101855281546001600160a01b039081168252600183015481169382019390935260028201549481019490945260038101546060850152918201546080840152600582015460a084015260068201541660c08301526007015460e082015290565b610cae60208201826114ad565b6001600160a01b0316336001600160a01b031614610d0e5760405162461bcd60e51b815260206004820152601f60248201527f4f726465723a2054616b6572206d757374206265207468652073656e6465720060448201526064016107b6565b60608082013560009081526004602081815260409283902083516101008101855281546001600160a01b039081168083526001840154821694830194909452600283015495820195909552600382015495810195909552918201546080850152600582015460a0850152600682015490921660c08401526007015460e0830152610dda5760405162461bcd60e51b815260206004820152601a60248201527f4f726465723a20546f6b656e206973206e6f74206c697374656400000000000060448201526064016107b6565b610de760208301836114ad565b6001600160a01b031681600001516001600160a01b031603610e5d5760405162461bcd60e51b815260206004820152602960248201527f4f726465723a204d616b657220616e642054616b65722063616e6e6f74206265604482015268207468652073616d6560b81b60648201526084016107b6565b81602001353414610ebc5760405162461bcd60e51b815260206004820152602360248201527f4f726465723a204e6f7420656e6f756768203c6e61746976652063757272656e60448201526231bc9f60e91b60648201526084016107b6565b6000610ec88383611380565b905080610f175760405162461bcd60e51b815260206004820152601b60248201527f53747261746567793a20457865637574696f6e20696e76616c6964000000000060448201526064016107b6565b81516040516000916001600160a01b03169034908381818185875af1925050503d8060008114610f63576040519150601f19603f3d011682016040523d82523d6000602084013e610f68565b606091505b5050905080610fb15760405162461bcd60e51b81526020600482015260156024820152743330b4b632b21032ba3432b9103a3930b739b332b960591b60448201526064016107b6565b8251610fdd90610fc460208701876114ad565b60608701803590610fd89060408a016114ad565b6113a7565b82516060850135906001600160a01b0316610ffb60208701876114ad565b6001600160a01b03167fe07841b3b66aa3cf104926838e291cf5f51fab97ba83637607b3f430a9588cdd876020013560405161103991815260200190565b60405180910390a46060840135600090815260046020818152604080842080546001600160a01b031990811682556001820180548216905560028083018790556003830187905594820186905560058201869055600682018054909116905560070184905560c08701516001600160a01b0316845291905281208054916110bf83611739565b909155505060c08301516001600160a01b03908116600090815260056020818152604080842060608901518552825280842080546001600160a01b0319908116825560018201805482169055600282018690556003808301879055600483018790559482018690556006820180549091169055600701849055875190941683525290812080549161114f83611739565b909155505082516001600160a01b03166000908152600760208181526040808420606090970151845295905293812080546001600160a01b031990811682556001820180548216905560028201839055600382018390556004820183905560058201839055600682018054909116905590930192909255505050565b6111d3611435565b90565b6001600160a01b03811660009081526008602090815260408083205460039092528220546060928167ffffffffffffffff8111156112165761121661160e565b60405190808252806020026020018201604052801561124f57816020015b61123c611417565b8152602001906001900390816112345790505b5090506000805b848211611375576001600160a01b0380881660009081526007602081815260408084208785528252928390208351610100810185528154861680825260018301548716938201939093526002820154948101949094526003810154606085015260048101546080850152600581015460a0850152600681015490941660c084015292015460e08201529015611362578060600151816040015185848151811061130157611301611624565b602002602001015160006002811061131b5761131b611624565b6020020186858151811061133157611331611624565b602002602001015160016002811061134b5761134b611624565b6020020191909152528161135e81611650565b9250505b8261136c81611650565b93505050611256565b509095945050505050565b6000826020013582604001511480156113a0575082606001358260600151145b9392505050565b604051632142170760e11b81526001600160a01b0385811660048301528481166024830152604482018490528216906342842e0e90606401600060405180830381600087803b1580156113f957600080fd5b505af115801561140d573d6000803e3d6000fd5b5050505050505050565b60405180604001604052806002906020820280368337509192915050565b60405180610100016040528060006001600160a01b0316815260200160006001600160a01b031681526020016000815260200160008152602001600081526020016000815260200160006001600160a01b03168152602001600081525090565b6001600160a01b03811681146114aa57600080fd5b50565b6000602082840312156114bf57600080fd5b81356113a081611495565b60008151808452602080850194508084016000805b8481101561151f57825188835b6002811015611509578251825291860191908601906001016114ec565b50505060409790970196918301916001016114df565b50959695505050505050565b60408152600061153e60408301856114ca565b82810360208481019190915284518083528582019282019060005b8181101561157e5784516001600160a01b031683529383019391830191600101611559565b5090979650505050505050565b60006020828403121561159d57600080fd5b5035919050565b600080604083850312156115b757600080fd5b82356115c281611495565b946020939093013593505050565b600061010082840312156115e357600080fd5b50919050565b6000608082840312156115e357600080fd5b6020815260006113a060208301846114ca565b634e487b7160e01b600052604160045260246000fd5b634e487b7160e01b600052603260045260246000fd5b634e487b7160e01b600052601160045260246000fd5b6000600182016116625761166261163a565b5060010190565b60006020828403121561167b57600080fd5b81516113a081611495565b6000813561169381611495565b92915050565b80546001600160a01b0319166001600160a01b0392909216919091179055565b81356116c481611495565b6116ce8183611699565b5060208201356116dd81611495565b6116ea8160018401611699565b5060408201356002820155606082013560038201556080820135600482015560a0820135600582015561172b61172260c08401611686565b60068301611699565b60e082013560078201555050565b6000816117485761174861163a565b50600019019056fea2646970667358221220ef7cf5eddebe5e8c39b8d6c82b4a657588383f2af1d117fc7a0df3bf3bfcaccc64736f6c634300080d0033",
  "linkReferences": {},
  "deployedLinkReferences": {}
}