{"contracts/UnofDexSwap.sol":{"UnofDexSwap":{"abi":[{"inputs":[{"internalType":"address","name":"_router","type":"address"},{"internalType":"address","name":"_wrappedToken","type":"address"}],"stateMutability":"nonpayable","type":"constructor"},{"stateMutability":"payable","type":"fallback"},{"inputs":[{"internalType":"address","name":"token1Address","type":"address"},{"internalType":"uint256","name":"token1Amount","type":"uint256"},{"internalType":"uint256","name":"slippage","type":"uint256"}],"name":"addNativeTokenLiquidity","outputs":[{"internalType":"uint256","name":"nativeTokenAmountAdded","type":"uint256"},{"internalType":"uint256","name":"token1AmountAdded","type":"uint256"},{"internalType":"uint256","name":"liquidity","type":"uint256"}],"stateMutability":"payable","type":"function"},{"inputs":[{"internalType":"address","name":"token0Address","type":"address"},{"internalType":"address","name":"token1Address","type":"address"},{"internalType":"uint256","name":"token0Amount","type":"uint256"},{"internalType":"uint256","name":"token1Amount","type":"uint256"},{"internalType":"uint256","name":"slippage","type":"uint256"}],"name":"addNonNativeTokenLiquidity","outputs":[{"internalType":"uint256","name":"token0AmountAdded","type":"uint256"},{"internalType":"uint256","name":"token1AmountAdded","type":"uint256"},{"internalType":"uint256","name":"liquidity","type":"uint256"}],"stateMutability":"nonpayable","type":"function"},{"inputs":[{"internalType":"address","name":"tokenAddress","type":"address"}],"name":"getAllowance","outputs":[{"internalType":"uint256","name":"allowance","type":"uint256"}],"stateMutability":"view","type":"function"},{"inputs":[{"internalType":"address","name":"tokenOutAddress","type":"address"},{"internalType":"uint256","name":"tokenInAmount","type":"uint256"}],"name":"getNativeQuote","outputs":[{"internalType":"uint256","name":"tokenOutAmount","type":"uint256"}],"stateMutability":"view","type":"function"},{"inputs":[{"internalType":"address","name":"tokenInAddress","type":"address"},{"internalType":"address","name":"tokenOutAddress","type":"address"},{"internalType":"uint256","name":"tokenInAmount","type":"uint256"}],"name":"getQuote","outputs":[{"internalType":"uint256","name":"tokenOutAmount","type":"uint256"}],"stateMutability":"view","type":"function"},{"inputs":[{"internalType":"address","name":"tokenOutAddress","type":"address"}],"name":"swapNativeToken","outputs":[{"internalType":"uint256","name":"swapAmount","type":"uint256"}],"stateMutability":"payable","type":"function"},{"inputs":[{"internalType":"address","name":"tokenInAddress","type":"address"},{"internalType":"address","name":"tokenOutAddress","type":"address"},{"internalType":"uint256","name":"tokenInAmount","type":"uint256"}],"name":"swapNonNativeToken","outputs":[{"internalType":"uint256","name":"swapAmount","type":"uint256"}],"stateMutability":"nonpayable","type":"function"},{"stateMutability":"payable","type":"receive"}],"evm":{"bytecode":{"linkReferences":{},"object":"60803461008d57601f610b8138819003918201601f19168301916001600160401b0383118484101761009257808492604094855283398101031261008d57610052602061004b836100a8565b92016100a8565b600080546001600160a01b039384166001600160a01b03199182161790915560018054929093169116179055604051610ac490816100bd8239f35b600080fd5b634e487b7160e01b600052604160045260246000fd5b51906001600160a01b038216820361008d5756fe6040608081526004908136101561001d575b5050361561001b57005b005b600091823560e01c908163181e74051461063557816376b174d1146104f857816388d4ec1b146104695781638bacecbc146102fb5781638c5468761461017a578163c515ee23146100a2575063eb5a662e03610011573461009e57602036600319011261009e57602090610097610092610715565b6107b9565b9051908152f35b5080fd5b905082346101775761011f916100b736610730565b9092918651936100c685610765565b60028552873660208701376100da85610834565b6001600160a01b039283169052816100f186610857565b911690528454169186519586948593849363d06ca61f60e01b855284015288602484015260448301906108e3565b03915afa90811561016b5790610140918460209592610148575b5050610857565b519051908152f35b61016492503d8091833e61015c8183610797565b810190610867565b3880610139565b505051903d90823e3d90fd5b80fd5b83833461009e5760a036600319011261009e57610195610715565b6001600160a01b0390602435828116908181036102f75760443590606435906101ec82608435926101cf6101c8896107b9565b1515610920565b6101db6101c8826107b9565b6101e6868933610976565b33610976565b610219610212606461020a816102028689610a7b565b049486610a7b565b049285610a58565b9183610a58565b9161012c4201938442116102e457926101049592889795928b9560609a875416958c519e8f9b8c9a62e8e33760e81b8c5216908a0152602489015260448801526064870152608486015260a48501523360c485015260e48401525af180156102d957829183916102a1575b5191825260208201929092526040810191909152606090f35b0390f35b925050506102c861029d9260603d81116102d2575b6102c08183610797565b810190610a3d565b9093508392610284565b503d6102b6565b5051903d90823e3d90fd5b634e487b7160e01b8a5260118b5260248afd5b8580fd5b83833461009e5761030b36610730565b90916103196101c8826107b9565b610324828233610976565b83519261033084610765565b600284528436602086013761034484610834565b6001600160a01b0392831690528161035b85610857565b91169052845416835163d06ca61f60e01b8152828782015284602482015285818061038960448201886108e3565b0381855afa90811561045f57906103a7918791610445575b50610857565b519161012c42018042116104325795809786976103eb83979851988997889687956338ed173960e01b8752860152602485015260a0604485015260a48401906108e3565b90336064840152608483015203925af190811561016b5790610140918460209592610417575050610857565b61042b92503d8091833e61015c8183610797565b8480610139565b634e487b7160e01b875260118852602487fd5b61045991503d8089833e61015c8183610797565b886103a1565b85513d88823e3d90fd5b9050346104f45782826003193601126101775761011f91610488610715565b9084519161049583610765565b60028352853660208501376001546001600160a01b03919082166104b885610834565b52816104c385610857565b9116905283541690855180958194829363d06ca61f60e01b84526024359084015288602484015260448301906108e3565b8280fd5b8383602036600319011261009e5761050e610715565b81519061051a82610765565b60028252823660208401376001546001600160a01b039190821661053d84610834565b528161054884610857565b91169052835416825163d06ca61f60e01b8152348682015283602482015284818061057660448201876108e3565b0381855afa90811561062b57906105939186916106115750610857565b5161012c42018042116105fe57916105d09391878794875196879586948594637ff36ab560e01b86528501526080602485015260848401906108e3565b903360448401526064830152039134905af190811561016b5790610140918460209592610417575050610857565b634e487b7160e01b865260118752602486fd5b61062591503d8088833e61015c8183610797565b876103a1565b84513d87823e3d90fd5b8383606036600319011261009e5761064b610715565b6044359060243561065e6101c8836107b9565b610669818333610976565b61069661068f60646106878161067f8834610a7b565b049685610a7b565b049434610a58565b9382610a58565b9261012c4201908142116104325791606094939160c49360018060a01b0395868a54169389519b8c98899763f305d71960e01b8952169087015260248601526044850152606484015233608484015260a483015234905af180156102d957829183916102a1575191825260208201929092526040810191909152606090f35b600435906001600160a01b038216820361072b57565b600080fd5b606090600319011261072b576001600160a01b0390600435828116810361072b5791602435908116810361072b579060443590565b6060810190811067ffffffffffffffff82111761078157604052565b634e487b7160e01b600052604160045260246000fd5b90601f8019910116810190811067ffffffffffffffff82111761078157604052565b604051636eb1769f60e11b815233600482015230602482015290602090829060449082906001600160a01b03165afa908115610828576000916107fa575090565b906020823d8211610820575b8161081360209383610797565b8101031261017757505190565b3d9150610806565b6040513d6000823e3d90fd5b8051156108415760200190565b634e487b7160e01b600052603260045260246000fd5b8051600110156108415760400190565b90602090818382031261072b57825167ffffffffffffffff9384821161072b570181601f8201121561072b578051938411610781578360051b90604051946108b185840187610797565b8552838086019282010192831161072b578301905b8282106108d4575050505090565b815181529083019083016108c6565b90815180825260208080930193019160005b828110610903575050505090565b83516001600160a01b0316855293810193928101926001016108f5565b1561092757565b60405162461bcd60e51b815260206004820152600f60248201526e20b63637bbb0b731b29032b93937b960891b6044820152606490fd5b9081602091031261072b5751801515810361072b5790565b6040516323b872dd60e01b81526001600160a01b0391821660048201523060248201526044810184905260209392821692909184836064816000885af1908115610828578593604492610a20575b50600054166000604051958694859363095ea7b360e01b8552600485015260248401525af18015610828576109f7575050565b81610a1692903d10610a19575b610a0e8183610797565b81019061095e565b50565b503d610a04565b610a3690853d8711610a1957610a0e8183610797565b50386109c4565b9081606091031261072b578051916040602083015192015190565b91908203918211610a6557565b634e487b7160e01b600052601160045260246000fd5b81810292918115918404141715610a655756fea264697066735822122049c8ee693e7dc138e8df5e2a419d58a3f36b6c38c35526a78c13eb600f5583b964736f6c63430008120033","opcodes":"PUSH1 0x80 CALLVALUE PUSH2 0x8D JUMPI PUSH1 0x1F PUSH2 0xB81 CODESIZE DUP2 SWAP1 SUB SWAP2 DUP3 ADD PUSH1 0x1F NOT AND DUP4 ADD SWAP2 PUSH1 0x1 PUSH1 0x1 PUSH1 0x40 SHL SUB DUP4 GT DUP5 DUP5 LT OR PUSH2 0x92 JUMPI DUP1 DUP5 SWAP3 PUSH1 0x40 SWAP5 DUP6 MSTORE DUP4 CODECOPY DUP2 ADD SUB SLT PUSH2 0x8D JUMPI PUSH2 0x52 PUSH1 0x20 PUSH2 0x4B DUP4 PUSH2 0xA8 JUMP JUMPDEST SWAP3 ADD PUSH2 0xA8 JUMP JUMPDEST PUSH1 0x0 DUP1 SLOAD PUSH1 0x1 PUSH1 0x1 PUSH1 0xA0 SHL SUB SWAP4 DUP5 AND PUSH1 0x1 PUSH1 0x1 PUSH1 0xA0 SHL SUB NOT SWAP2 DUP3 AND OR SWAP1 SWAP2 SSTORE PUSH1 0x1 DUP1 SLOAD SWAP3 SWAP1 SWAP4 AND SWAP2 AND OR SWAP1 SSTORE PUSH1 0x40 MLOAD PUSH2 0xAC4 SWAP1 DUP2 PUSH2 0xBD DUP3 CODECOPY RETURN JUMPDEST PUSH1 0x0 DUP1 REVERT JUMPDEST PUSH4 0x4E487B71 PUSH1 0xE0 SHL PUSH1 0x0 MSTORE PUSH1 0x41 PUSH1 0x4 MSTORE PUSH1 0x24 PUSH1 0x0 REVERT JUMPDEST MLOAD SWAP1 PUSH1 0x1 PUSH1 0x1 PUSH1 0xA0 SHL SUB DUP3 AND DUP3 SUB PUSH2 0x8D JUMPI JUMP INVALID PUSH1 0x40 PUSH1 0x80 DUP2 MSTORE PUSH1 0x4 SWAP1 DUP2 CALLDATASIZE LT ISZERO PUSH2 0x1D JUMPI JUMPDEST POP POP CALLDATASIZE ISZERO PUSH2 0x1B JUMPI STOP JUMPDEST STOP JUMPDEST PUSH1 0x0 SWAP2 DUP3 CALLDATALOAD PUSH1 0xE0 SHR SWAP1 DUP2 PUSH4 0x181E7405 EQ PUSH2 0x635 JUMPI DUP2 PUSH4 0x76B174D1 EQ PUSH2 0x4F8 JUMPI DUP2 PUSH4 0x88D4EC1B EQ PUSH2 0x469 JUMPI DUP2 PUSH4 0x8BACECBC EQ PUSH2 0x2FB JUMPI DUP2 PUSH4 0x8C546876 EQ PUSH2 0x17A JUMPI DUP2 PUSH4 0xC515EE23 EQ PUSH2 0xA2 JUMPI POP PUSH4 0xEB5A662E SUB PUSH2 0x11 JUMPI CALLVALUE PUSH2 0x9E JUMPI PUSH1 0x20 CALLDATASIZE PUSH1 0x3 NOT ADD SLT PUSH2 0x9E JUMPI PUSH1 0x20 SWAP1 PUSH2 0x97 PUSH2 0x92 PUSH2 0x715 JUMP JUMPDEST PUSH2 0x7B9 JUMP JUMPDEST SWAP1 MLOAD SWAP1 DUP2 MSTORE RETURN JUMPDEST POP DUP1 REVERT JUMPDEST SWAP1 POP DUP3 CALLVALUE PUSH2 0x177 JUMPI PUSH2 0x11F SWAP2 PUSH2 0xB7 CALLDATASIZE PUSH2 0x730 JUMP JUMPDEST SWAP1 SWAP3 SWAP2 DUP7 MLOAD SWAP4 PUSH2 0xC6 DUP6 PUSH2 0x765 JUMP JUMPDEST PUSH1 0x2 DUP6 MSTORE DUP8 CALLDATASIZE PUSH1 0x20 DUP8 ADD CALLDATACOPY PUSH2 0xDA DUP6 PUSH2 0x834 JUMP JUMPDEST PUSH1 0x1 PUSH1 0x1 PUSH1 0xA0 SHL SUB SWAP3 DUP4 AND SWAP1 MSTORE DUP2 PUSH2 0xF1 DUP7 PUSH2 0x857 JUMP JUMPDEST SWAP2 AND SWAP1 MSTORE DUP5 SLOAD AND SWAP2 DUP7 MLOAD SWAP6 DUP7 SWAP5 DUP6 SWAP4 DUP5 SWAP4 PUSH4 0xD06CA61F PUSH1 0xE0 SHL DUP6 MSTORE DUP5 ADD MSTORE DUP9 PUSH1 0x24 DUP5 ADD MSTORE PUSH1 0x44 DUP4 ADD SWAP1 PUSH2 0x8E3 JUMP JUMPDEST SUB SWAP2 GAS STATICCALL SWAP1 DUP2 ISZERO PUSH2 0x16B JUMPI SWAP1 PUSH2 0x140 SWAP2 DUP5 PUSH1 0x20 SWAP6 SWAP3 PUSH2 0x148 JUMPI JUMPDEST POP POP PUSH2 0x857 JUMP JUMPDEST MLOAD SWAP1 MLOAD SWAP1 DUP2 MSTORE RETURN JUMPDEST PUSH2 0x164 SWAP3 POP RETURNDATASIZE DUP1 SWAP2 DUP4 RETURNDATACOPY PUSH2 0x15C DUP2 DUP4 PUSH2 0x797 JUMP JUMPDEST DUP2 ADD SWAP1 PUSH2 0x867 JUMP JUMPDEST CODESIZE DUP1 PUSH2 0x139 JUMP JUMPDEST POP POP MLOAD SWAP1 RETURNDATASIZE SWAP1 DUP3 RETURNDATACOPY RETURNDATASIZE SWAP1 REVERT JUMPDEST DUP1 REVERT JUMPDEST DUP4 DUP4 CALLVALUE PUSH2 0x9E JUMPI PUSH1 0xA0 CALLDATASIZE PUSH1 0x3 NOT ADD SLT PUSH2 0x9E JUMPI PUSH2 0x195 PUSH2 0x715 JUMP JUMPDEST PUSH1 0x1 PUSH1 0x1 PUSH1 0xA0 SHL SUB SWAP1 PUSH1 0x24 CALLDATALOAD DUP3 DUP2 AND SWAP1 DUP2 DUP2 SUB PUSH2 0x2F7 JUMPI PUSH1 0x44 CALLDATALOAD SWAP1 PUSH1 0x64 CALLDATALOAD SWAP1 PUSH2 0x1EC DUP3 PUSH1 0x84 CALLDATALOAD SWAP3 PUSH2 0x1CF PUSH2 0x1C8 DUP10 PUSH2 0x7B9 JUMP JUMPDEST ISZERO ISZERO PUSH2 0x920 JUMP JUMPDEST PUSH2 0x1DB PUSH2 0x1C8 DUP3 PUSH2 0x7B9 JUMP JUMPDEST PUSH2 0x1E6 DUP7 DUP10 CALLER PUSH2 0x976 JUMP JUMPDEST CALLER PUSH2 0x976 JUMP JUMPDEST PUSH2 0x219 PUSH2 0x212 PUSH1 0x64 PUSH2 0x20A DUP2 PUSH2 0x202 DUP7 DUP10 PUSH2 0xA7B JUMP JUMPDEST DIV SWAP5 DUP7 PUSH2 0xA7B JUMP JUMPDEST DIV SWAP3 DUP6 PUSH2 0xA58 JUMP JUMPDEST SWAP2 DUP4 PUSH2 0xA58 JUMP JUMPDEST SWAP2 PUSH2 0x12C TIMESTAMP ADD SWAP4 DUP5 TIMESTAMP GT PUSH2 0x2E4 JUMPI SWAP3 PUSH2 0x104 SWAP6 SWAP3 DUP9 SWAP8 SWAP6 SWAP3 DUP12 SWAP6 PUSH1 0x60 SWAP11 DUP8 SLOAD AND SWAP6 DUP13 MLOAD SWAP15 DUP16 SWAP12 DUP13 SWAP11 PUSH3 0xE8E337 PUSH1 0xE8 SHL DUP13 MSTORE AND SWAP1 DUP11 ADD MSTORE PUSH1 0x24 DUP10 ADD MSTORE PUSH1 0x44 DUP9 ADD MSTORE PUSH1 0x64 DUP8 ADD MSTORE PUSH1 0x84 DUP7 ADD MSTORE PUSH1 0xA4 DUP6 ADD MSTORE CALLER PUSH1 0xC4 DUP6 ADD MSTORE PUSH1 0xE4 DUP5 ADD MSTORE GAS CALL DUP1 ISZERO PUSH2 0x2D9 JUMPI DUP3 SWAP2 DUP4 SWAP2 PUSH2 0x2A1 JUMPI JUMPDEST MLOAD SWAP2 DUP3 MSTORE PUSH1 0x20 DUP3 ADD SWAP3 SWAP1 SWAP3 MSTORE PUSH1 0x40 DUP2 ADD SWAP2 SWAP1 SWAP2 MSTORE PUSH1 0x60 SWAP1 RETURN JUMPDEST SUB SWAP1 RETURN JUMPDEST SWAP3 POP POP POP PUSH2 0x2C8 PUSH2 0x29D SWAP3 PUSH1 0x60 RETURNDATASIZE DUP2 GT PUSH2 0x2D2 JUMPI JUMPDEST PUSH2 0x2C0 DUP2 DUP4 PUSH2 0x797 JUMP JUMPDEST DUP2 ADD SWAP1 PUSH2 0xA3D JUMP JUMPDEST SWAP1 SWAP4 POP DUP4 SWAP3 PUSH2 0x284 JUMP JUMPDEST POP RETURNDATASIZE PUSH2 0x2B6 JUMP JUMPDEST POP MLOAD SWAP1 RETURNDATASIZE SWAP1 DUP3 RETURNDATACOPY RETURNDATASIZE SWAP1 REVERT JUMPDEST PUSH4 0x4E487B71 PUSH1 0xE0 SHL DUP11 MSTORE PUSH1 0x11 DUP12 MSTORE PUSH1 0x24 DUP11 REVERT JUMPDEST DUP6 DUP1 REVERT JUMPDEST DUP4 DUP4 CALLVALUE PUSH2 0x9E JUMPI PUSH2 0x30B CALLDATASIZE PUSH2 0x730 JUMP JUMPDEST SWAP1 SWAP2 PUSH2 0x319 PUSH2 0x1C8 DUP3 PUSH2 0x7B9 JUMP JUMPDEST PUSH2 0x324 DUP3 DUP3 CALLER PUSH2 0x976 JUMP JUMPDEST DUP4 MLOAD SWAP3 PUSH2 0x330 DUP5 PUSH2 0x765 JUMP JUMPDEST PUSH1 0x2 DUP5 MSTORE DUP5 CALLDATASIZE PUSH1 0x20 DUP7 ADD CALLDATACOPY PUSH2 0x344 DUP5 PUSH2 0x834 JUMP JUMPDEST PUSH1 0x1 PUSH1 0x1 PUSH1 0xA0 SHL SUB SWAP3 DUP4 AND SWAP1 MSTORE DUP2 PUSH2 0x35B DUP6 PUSH2 0x857 JUMP JUMPDEST SWAP2 AND SWAP1 MSTORE DUP5 SLOAD AND DUP4 MLOAD PUSH4 0xD06CA61F PUSH1 0xE0 SHL DUP2 MSTORE DUP3 DUP8 DUP3 ADD MSTORE DUP5 PUSH1 0x24 DUP3 ADD MSTORE DUP6 DUP2 DUP1 PUSH2 0x389 PUSH1 0x44 DUP3 ADD DUP9 PUSH2 0x8E3 JUMP JUMPDEST SUB DUP2 DUP6 GAS STATICCALL SWAP1 DUP2 ISZERO PUSH2 0x45F JUMPI SWAP1 PUSH2 0x3A7 SWAP2 DUP8 SWAP2 PUSH2 0x445 JUMPI JUMPDEST POP PUSH2 0x857 JUMP JUMPDEST MLOAD SWAP2 PUSH2 0x12C TIMESTAMP ADD DUP1 TIMESTAMP GT PUSH2 0x432 JUMPI SWAP6 DUP1 SWAP8 DUP7 SWAP8 PUSH2 0x3EB DUP4 SWAP8 SWAP9 MLOAD SWAP9 DUP10 SWAP8 DUP9 SWAP7 DUP8 SWAP6 PUSH4 0x38ED1739 PUSH1 0xE0 SHL DUP8 MSTORE DUP7 ADD MSTORE PUSH1 0x24 DUP6 ADD MSTORE PUSH1 0xA0 PUSH1 0x44 DUP6 ADD MSTORE PUSH1 0xA4 DUP5 ADD SWAP1 PUSH2 0x8E3 JUMP JUMPDEST SWAP1 CALLER PUSH1 0x64 DUP5 ADD MSTORE PUSH1 0x84 DUP4 ADD MSTORE SUB SWAP3 GAS CALL SWAP1 DUP2 ISZERO PUSH2 0x16B JUMPI SWAP1 PUSH2 0x140 SWAP2 DUP5 PUSH1 0x20 SWAP6 SWAP3 PUSH2 0x417 JUMPI POP POP PUSH2 0x857 JUMP JUMPDEST PUSH2 0x42B SWAP3 POP RETURNDATASIZE DUP1 SWAP2 DUP4 RETURNDATACOPY PUSH2 0x15C DUP2 DUP4 PUSH2 0x797 JUMP JUMPDEST DUP5 DUP1 PUSH2 0x139 JUMP JUMPDEST PUSH4 0x4E487B71 PUSH1 0xE0 SHL DUP8 MSTORE PUSH1 0x11 DUP9 MSTORE PUSH1 0x24 DUP8 REVERT JUMPDEST PUSH2 0x459 SWAP2 POP RETURNDATASIZE DUP1 DUP10 DUP4 RETURNDATACOPY PUSH2 0x15C DUP2 DUP4 PUSH2 0x797 JUMP JUMPDEST DUP9 PUSH2 0x3A1 JUMP JUMPDEST DUP6 MLOAD RETURNDATASIZE DUP9 DUP3 RETURNDATACOPY RETURNDATASIZE SWAP1 REVERT JUMPDEST SWAP1 POP CALLVALUE PUSH2 0x4F4 JUMPI DUP3 DUP3 PUSH1 0x3 NOT CALLDATASIZE ADD SLT PUSH2 0x177 JUMPI PUSH2 0x11F SWAP2 PUSH2 0x488 PUSH2 0x715 JUMP JUMPDEST SWAP1 DUP5 MLOAD SWAP2 PUSH2 0x495 DUP4 PUSH2 0x765 JUMP JUMPDEST PUSH1 0x2 DUP4 MSTORE DUP6 CALLDATASIZE PUSH1 0x20 DUP6 ADD CALLDATACOPY PUSH1 0x1 SLOAD PUSH1 0x1 PUSH1 0x1 PUSH1 0xA0 SHL SUB SWAP2 SWAP1 DUP3 AND PUSH2 0x4B8 DUP6 PUSH2 0x834 JUMP JUMPDEST MSTORE DUP2 PUSH2 0x4C3 DUP6 PUSH2 0x857 JUMP JUMPDEST SWAP2 AND SWAP1 MSTORE DUP4 SLOAD AND SWAP1 DUP6 MLOAD DUP1 SWAP6 DUP2 SWAP5 DUP3 SWAP4 PUSH4 0xD06CA61F PUSH1 0xE0 SHL DUP5 MSTORE PUSH1 0x24 CALLDATALOAD SWAP1 DUP5 ADD MSTORE DUP9 PUSH1 0x24 DUP5 ADD MSTORE PUSH1 0x44 DUP4 ADD SWAP1 PUSH2 0x8E3 JUMP JUMPDEST DUP3 DUP1 REVERT JUMPDEST DUP4 DUP4 PUSH1 0x20 CALLDATASIZE PUSH1 0x3 NOT ADD SLT PUSH2 0x9E JUMPI PUSH2 0x50E PUSH2 0x715 JUMP JUMPDEST DUP2 MLOAD SWAP1 PUSH2 0x51A DUP3 PUSH2 0x765 JUMP JUMPDEST PUSH1 0x2 DUP3 MSTORE DUP3 CALLDATASIZE PUSH1 0x20 DUP5 ADD CALLDATACOPY PUSH1 0x1 SLOAD PUSH1 0x1 PUSH1 0x1 PUSH1 0xA0 SHL SUB SWAP2 SWAP1 DUP3 AND PUSH2 0x53D DUP5 PUSH2 0x834 JUMP JUMPDEST MSTORE DUP2 PUSH2 0x548 DUP5 PUSH2 0x857 JUMP JUMPDEST SWAP2 AND SWAP1 MSTORE DUP4 SLOAD AND DUP3 MLOAD PUSH4 0xD06CA61F PUSH1 0xE0 SHL DUP2 MSTORE CALLVALUE DUP7 DUP3 ADD MSTORE DUP4 PUSH1 0x24 DUP3 ADD MSTORE DUP5 DUP2 DUP1 PUSH2 0x576 PUSH1 0x44 DUP3 ADD DUP8 PUSH2 0x8E3 JUMP JUMPDEST SUB DUP2 DUP6 GAS STATICCALL SWAP1 DUP2 ISZERO PUSH2 0x62B JUMPI SWAP1 PUSH2 0x593 SWAP2 DUP7 SWAP2 PUSH2 0x611 JUMPI POP PUSH2 0x857 JUMP JUMPDEST MLOAD PUSH2 0x12C TIMESTAMP ADD DUP1 TIMESTAMP GT PUSH2 0x5FE JUMPI SWAP2 PUSH2 0x5D0 SWAP4 SWAP2 DUP8 DUP8 SWAP5 DUP8 MLOAD SWAP7 DUP8 SWAP6 DUP7 SWAP5 DUP6 SWAP5 PUSH4 0x7FF36AB5 PUSH1 0xE0 SHL DUP7 MSTORE DUP6 ADD MSTORE PUSH1 0x80 PUSH1 0x24 DUP6 ADD MSTORE PUSH1 0x84 DUP5 ADD SWAP1 PUSH2 0x8E3 JUMP JUMPDEST SWAP1 CALLER PUSH1 0x44 DUP5 ADD MSTORE PUSH1 0x64 DUP4 ADD MSTORE SUB SWAP2 CALLVALUE SWAP1 GAS CALL SWAP1 DUP2 ISZERO PUSH2 0x16B JUMPI SWAP1 PUSH2 0x140 SWAP2 DUP5 PUSH1 0x20 SWAP6 SWAP3 PUSH2 0x417 JUMPI POP POP PUSH2 0x857 JUMP JUMPDEST PUSH4 0x4E487B71 PUSH1 0xE0 SHL DUP7 MSTORE PUSH1 0x11 DUP8 MSTORE PUSH1 0x24 DUP7 REVERT JUMPDEST PUSH2 0x625 SWAP2 POP RETURNDATASIZE DUP1 DUP9 DUP4 RETURNDATACOPY PUSH2 0x15C DUP2 DUP4 PUSH2 0x797 JUMP JUMPDEST DUP8 PUSH2 0x3A1 JUMP JUMPDEST DUP5 MLOAD RETURNDATASIZE DUP8 DUP3 RETURNDATACOPY RETURNDATASIZE SWAP1 REVERT JUMPDEST DUP4 DUP4 PUSH1 0x60 CALLDATASIZE PUSH1 0x3 NOT ADD SLT PUSH2 0x9E JUMPI PUSH2 0x64B PUSH2 0x715 JUMP JUMPDEST PUSH1 0x44 CALLDATALOAD SWAP1 PUSH1 0x24 CALLDATALOAD PUSH2 0x65E PUSH2 0x1C8 DUP4 PUSH2 0x7B9 JUMP JUMPDEST PUSH2 0x669 DUP2 DUP4 CALLER PUSH2 0x976 JUMP JUMPDEST PUSH2 0x696 PUSH2 0x68F PUSH1 0x64 PUSH2 0x687 DUP2 PUSH2 0x67F DUP9 CALLVALUE PUSH2 0xA7B JUMP JUMPDEST DIV SWAP7 DUP6 PUSH2 0xA7B JUMP JUMPDEST DIV SWAP5 CALLVALUE PUSH2 0xA58 JUMP JUMPDEST SWAP4 DUP3 PUSH2 0xA58 JUMP JUMPDEST SWAP3 PUSH2 0x12C TIMESTAMP ADD SWAP1 DUP2 TIMESTAMP GT PUSH2 0x432 JUMPI SWAP2 PUSH1 0x60 SWAP5 SWAP4 SWAP2 PUSH1 0xC4 SWAP4 PUSH1 0x1 DUP1 PUSH1 0xA0 SHL SUB SWAP6 DUP7 DUP11 SLOAD AND SWAP4 DUP10 MLOAD SWAP12 DUP13 SWAP9 DUP10 SWAP8 PUSH4 0xF305D719 PUSH1 0xE0 SHL DUP10 MSTORE AND SWAP1 DUP8 ADD MSTORE PUSH1 0x24 DUP7 ADD MSTORE PUSH1 0x44 DUP6 ADD MSTORE PUSH1 0x64 DUP5 ADD MSTORE CALLER PUSH1 0x84 DUP5 ADD MSTORE PUSH1 0xA4 DUP4 ADD MSTORE CALLVALUE SWAP1 GAS CALL DUP1 ISZERO PUSH2 0x2D9 JUMPI DUP3 SWAP2 DUP4 SWAP2 PUSH2 0x2A1 JUMPI MLOAD SWAP2 DUP3 MSTORE PUSH1 0x20 DUP3 ADD SWAP3 SWAP1 SWAP3 MSTORE PUSH1 0x40 DUP2 ADD SWAP2 SWAP1 SWAP2 MSTORE PUSH1 0x60 SWAP1 RETURN JUMPDEST PUSH1 0x4 CALLDATALOAD SWAP1 PUSH1 0x1 PUSH1 0x1 PUSH1 0xA0 SHL SUB DUP3 AND DUP3 SUB PUSH2 0x72B JUMPI JUMP JUMPDEST PUSH1 0x0 DUP1 REVERT JUMPDEST PUSH1 0x60 SWAP1 PUSH1 0x3 NOT ADD SLT PUSH2 0x72B JUMPI PUSH1 0x1 PUSH1 0x1 PUSH1 0xA0 SHL SUB SWAP1 PUSH1 0x4 CALLDATALOAD DUP3 DUP2 AND DUP2 SUB PUSH2 0x72B JUMPI SWAP2 PUSH1 0x24 CALLDATALOAD SWAP1 DUP2 AND DUP2 SUB PUSH2 0x72B JUMPI SWAP1 PUSH1 0x44 CALLDATALOAD SWAP1 JUMP JUMPDEST PUSH1 0x60 DUP2 ADD SWAP1 DUP2 LT PUSH8 0xFFFFFFFFFFFFFFFF DUP3 GT OR PUSH2 0x781 JUMPI PUSH1 0x40 MSTORE JUMP JUMPDEST PUSH4 0x4E487B71 PUSH1 0xE0 SHL PUSH1 0x0 MSTORE PUSH1 0x41 PUSH1 0x4 MSTORE PUSH1 0x24 PUSH1 0x0 REVERT JUMPDEST SWAP1 PUSH1 0x1F DUP1 NOT SWAP2 ADD AND DUP2 ADD SWAP1 DUP2 LT PUSH8 0xFFFFFFFFFFFFFFFF DUP3 GT OR PUSH2 0x781 JUMPI PUSH1 0x40 MSTORE JUMP JUMPDEST PUSH1 0x40 MLOAD PUSH4 0x6EB1769F PUSH1 0xE1 SHL DUP2 MSTORE CALLER PUSH1 0x4 DUP3 ADD MSTORE ADDRESS PUSH1 0x24 DUP3 ADD MSTORE SWAP1 PUSH1 0x20 SWAP1 DUP3 SWAP1 PUSH1 0x44 SWAP1 DUP3 SWAP1 PUSH1 0x1 PUSH1 0x1 PUSH1 0xA0 SHL SUB AND GAS STATICCALL SWAP1 DUP2 ISZERO PUSH2 0x828 JUMPI PUSH1 0x0 SWAP2 PUSH2 0x7FA JUMPI POP SWAP1 JUMP JUMPDEST SWAP1 PUSH1 0x20 DUP3 RETURNDATASIZE DUP3 GT PUSH2 0x820 JUMPI JUMPDEST DUP2 PUSH2 0x813 PUSH1 0x20 SWAP4 DUP4 PUSH2 0x797 JUMP JUMPDEST DUP2 ADD SUB SLT PUSH2 0x177 JUMPI POP MLOAD SWAP1 JUMP JUMPDEST RETURNDATASIZE SWAP2 POP PUSH2 0x806 JUMP JUMPDEST PUSH1 0x40 MLOAD RETURNDATASIZE PUSH1 0x0 DUP3 RETURNDATACOPY RETURNDATASIZE SWAP1 REVERT JUMPDEST DUP1 MLOAD ISZERO PUSH2 0x841 JUMPI PUSH1 0x20 ADD SWAP1 JUMP JUMPDEST PUSH4 0x4E487B71 PUSH1 0xE0 SHL PUSH1 0x0 MSTORE PUSH1 0x32 PUSH1 0x4 MSTORE PUSH1 0x24 PUSH1 0x0 REVERT JUMPDEST DUP1 MLOAD PUSH1 0x1 LT ISZERO PUSH2 0x841 JUMPI PUSH1 0x40 ADD SWAP1 JUMP JUMPDEST SWAP1 PUSH1 0x20 SWAP1 DUP2 DUP4 DUP3 SUB SLT PUSH2 0x72B JUMPI DUP3 MLOAD PUSH8 0xFFFFFFFFFFFFFFFF SWAP4 DUP5 DUP3 GT PUSH2 0x72B JUMPI ADD DUP2 PUSH1 0x1F DUP3 ADD SLT ISZERO PUSH2 0x72B JUMPI DUP1 MLOAD SWAP4 DUP5 GT PUSH2 0x781 JUMPI DUP4 PUSH1 0x5 SHL SWAP1 PUSH1 0x40 MLOAD SWAP5 PUSH2 0x8B1 DUP6 DUP5 ADD DUP8 PUSH2 0x797 JUMP JUMPDEST DUP6 MSTORE DUP4 DUP1 DUP7 ADD SWAP3 DUP3 ADD ADD SWAP3 DUP4 GT PUSH2 0x72B JUMPI DUP4 ADD SWAP1 JUMPDEST DUP3 DUP3 LT PUSH2 0x8D4 JUMPI POP POP POP POP SWAP1 JUMP JUMPDEST DUP2 MLOAD DUP2 MSTORE SWAP1 DUP4 ADD SWAP1 DUP4 ADD PUSH2 0x8C6 JUMP JUMPDEST SWAP1 DUP2 MLOAD DUP1 DUP3 MSTORE PUSH1 0x20 DUP1 DUP1 SWAP4 ADD SWAP4 ADD SWAP2 PUSH1 0x0 JUMPDEST DUP3 DUP2 LT PUSH2 0x903 JUMPI POP POP POP POP SWAP1 JUMP JUMPDEST DUP4 MLOAD PUSH1 0x1 PUSH1 0x1 PUSH1 0xA0 SHL SUB AND DUP6 MSTORE SWAP4 DUP2 ADD SWAP4 SWAP3 DUP2 ADD SWAP3 PUSH1 0x1 ADD PUSH2 0x8F5 JUMP JUMPDEST ISZERO PUSH2 0x927 JUMPI JUMP JUMPDEST PUSH1 0x40 MLOAD PUSH3 0x461BCD PUSH1 0xE5 SHL DUP2 MSTORE PUSH1 0x20 PUSH1 0x4 DUP3 ADD MSTORE PUSH1 0xF PUSH1 0x24 DUP3 ADD MSTORE PUSH15 0x20B63637BBB0B731B29032B93937B9 PUSH1 0x89 SHL PUSH1 0x44 DUP3 ADD MSTORE PUSH1 0x64 SWAP1 REVERT JUMPDEST SWAP1 DUP2 PUSH1 0x20 SWAP2 SUB SLT PUSH2 0x72B JUMPI MLOAD DUP1 ISZERO ISZERO DUP2 SUB PUSH2 0x72B JUMPI SWAP1 JUMP JUMPDEST PUSH1 0x40 MLOAD PUSH4 0x23B872DD PUSH1 0xE0 SHL DUP2 MSTORE PUSH1 0x1 PUSH1 0x1 PUSH1 0xA0 SHL SUB SWAP2 DUP3 AND PUSH1 0x4 DUP3 ADD MSTORE ADDRESS PUSH1 0x24 DUP3 ADD MSTORE PUSH1 0x44 DUP2 ADD DUP5 SWAP1 MSTORE PUSH1 0x20 SWAP4 SWAP3 DUP3 AND SWAP3 SWAP1 SWAP2 DUP5 DUP4 PUSH1 0x64 DUP2 PUSH1 0x0 DUP9 GAS CALL SWAP1 DUP2 ISZERO PUSH2 0x828 JUMPI DUP6 SWAP4 PUSH1 0x44 SWAP3 PUSH2 0xA20 JUMPI JUMPDEST POP PUSH1 0x0 SLOAD AND PUSH1 0x0 PUSH1 0x40 MLOAD SWAP6 DUP7 SWAP5 DUP6 SWAP4 PUSH4 0x95EA7B3 PUSH1 0xE0 SHL DUP6 MSTORE PUSH1 0x4 DUP6 ADD MSTORE PUSH1 0x24 DUP5 ADD MSTORE GAS CALL DUP1 ISZERO PUSH2 0x828 JUMPI PUSH2 0x9F7 JUMPI POP POP JUMP JUMPDEST DUP2 PUSH2 0xA16 SWAP3 SWAP1 RETURNDATASIZE LT PUSH2 0xA19 JUMPI JUMPDEST PUSH2 0xA0E DUP2 DUP4 PUSH2 0x797 JUMP JUMPDEST DUP2 ADD SWAP1 PUSH2 0x95E JUMP JUMPDEST POP JUMP JUMPDEST POP RETURNDATASIZE PUSH2 0xA04 JUMP JUMPDEST PUSH2 0xA36 SWAP1 DUP6 RETURNDATASIZE DUP8 GT PUSH2 0xA19 JUMPI PUSH2 0xA0E DUP2 DUP4 PUSH2 0x797 JUMP JUMPDEST POP CODESIZE PUSH2 0x9C4 JUMP JUMPDEST SWAP1 DUP2 PUSH1 0x60 SWAP2 SUB SLT PUSH2 0x72B JUMPI DUP1 MLOAD SWAP2 PUSH1 0x40 PUSH1 0x20 DUP4 ADD MLOAD SWAP3 ADD MLOAD SWAP1 JUMP JUMPDEST SWAP2 SWAP1 DUP3 SUB SWAP2 DUP3 GT PUSH2 0xA65 JUMPI JUMP JUMPDEST PUSH4 0x4E487B71 PUSH1 0xE0 SHL PUSH1 0x0 MSTORE PUSH1 0x11 PUSH1 0x4 MSTORE PUSH1 0x24 PUSH1 0x0 REVERT JUMPDEST DUP2 DUP2 MUL SWAP3 SWAP2 DUP2 ISZERO SWAP2 DUP5 DIV EQ OR ISZERO PUSH2 0xA65 JUMPI JUMP INVALID LOG2 PUSH5 0x6970667358 0x22 SLT KECCAK256 0x49 0xC8 0xEE PUSH10 0x3E7DC138E8DF5E2A419D PC LOG3 RETURN PUSH12 0x6C38C35526A78C13EB600F55 DUP4 0xB9 PUSH5 0x736F6C6343 STOP ADDMOD SLT STOP CALLER "},"methodIdentifiers":{"addNativeTokenLiquidity(address,uint256,uint256)":"181e7405","addNonNativeTokenLiquidity(address,address,uint256,uint256,uint256)":"8c546876","getAllowance(address)":"eb5a662e","getNativeQuote(address,uint256)":"88d4ec1b","getQuote(address,address,uint256)":"c515ee23","swapNativeToken(address)":"76b174d1","swapNonNativeToken(address,address,uint256)":"8bacecbc"}}}}}