{"contracts/TruflationDataFetcher.sol":{"TruflationDataFetcher":{"abi":[{"inputs":[],"stateMutability":"nonpayable","type":"constructor"},{"anonymous":false,"inputs":[{"indexed":true,"internalType":"bytes32","name":"id","type":"bytes32"}],"name":"ChainlinkCancelled","type":"event"},{"anonymous":false,"inputs":[{"indexed":true,"internalType":"bytes32","name":"id","type":"bytes32"}],"name":"ChainlinkFulfilled","type":"event"},{"anonymous":false,"inputs":[{"indexed":true,"internalType":"bytes32","name":"id","type":"bytes32"}],"name":"ChainlinkRequested","type":"event"},{"inputs":[],"name":"chainlinkContract","outputs":[{"internalType":"address","name":"","type":"address"}],"stateMutability":"view","type":"function"},{"inputs":[{"internalType":"string","name":"_jobId","type":"string"}],"name":"changeJobId","outputs":[],"stateMutability":"nonpayable","type":"function"},{"inputs":[{"internalType":"address","name":"_oracle","type":"address"}],"name":"changeOracle","outputs":[],"stateMutability":"nonpayable","type":"function"},{"inputs":[{"internalType":"bytes","name":"checkData","type":"bytes"}],"name":"checkUpkeep","outputs":[{"internalType":"bool","name":"upkeepNeeded","type":"bool"},{"internalType":"bytes","name":"performData","type":"bytes"}],"stateMutability":"view","type":"function"},{"inputs":[],"name":"disableKeeper","outputs":[],"stateMutability":"nonpayable","type":"function"},{"inputs":[{"internalType":"string","name":"service_","type":"string"},{"internalType":"string","name":"data_","type":"string"},{"internalType":"string","name":"keypath_","type":"string"},{"internalType":"string","name":"abi_","type":"string"},{"internalType":"string","name":"multiplier_","type":"string"}],"name":"doRequest","outputs":[{"internalType":"bytes32","name":"requestId","type":"bytes32"}],"stateMutability":"nonpayable","type":"function"},{"inputs":[],"name":"enableKeeper","outputs":[],"stateMutability":"nonpayable","type":"function"},{"inputs":[],"name":"fee","outputs":[{"internalType":"uint256","name":"","type":"uint256"}],"stateMutability":"view","type":"function"},{"inputs":[{"internalType":"bytes32","name":"_requestId","type":"bytes32"},{"internalType":"bytes","name":"bytesData","type":"bytes"}],"name":"fulfillBytes","outputs":[],"stateMutability":"nonpayable","type":"function"},{"inputs":[{"internalType":"bytes32","name":"_requestId","type":"bytes32"},{"internalType":"bytes","name":"_inflation","type":"bytes"}],"name":"fulfillYoyInflation","outputs":[],"stateMutability":"nonpayable","type":"function"},{"inputs":[],"name":"getChainlinkToken","outputs":[{"internalType":"address","name":"","type":"address"}],"stateMutability":"view","type":"function"},{"inputs":[],"name":"interval","outputs":[{"internalType":"uint256","name":"","type":"uint256"}],"stateMutability":"view","type":"function"},{"inputs":[],"name":"jobId","outputs":[{"internalType":"string","name":"","type":"string"}],"stateMutability":"view","type":"function"},{"inputs":[],"name":"lastTimeStamp","outputs":[{"internalType":"uint256","name":"","type":"uint256"}],"stateMutability":"view","type":"function"},{"inputs":[],"name":"oracleId","outputs":[{"internalType":"address","name":"","type":"address"}],"stateMutability":"view","type":"function"},{"inputs":[],"name":"owner","outputs":[{"internalType":"address","name":"","type":"address"}],"stateMutability":"view","type":"function"},{"inputs":[{"internalType":"bytes","name":"performData","type":"bytes"}],"name":"performUpkeep","outputs":[],"stateMutability":"nonpayable","type":"function"},{"inputs":[],"name":"requestYoyInflation","outputs":[{"internalType":"bytes32","name":"requestId","type":"bytes32"}],"stateMutability":"nonpayable","type":"function"},{"inputs":[],"name":"result","outputs":[{"internalType":"bytes","name":"","type":"bytes"}],"stateMutability":"view","type":"function"},{"inputs":[{"internalType":"bytes32","name":"","type":"bytes32"}],"name":"results","outputs":[{"internalType":"bytes","name":"","type":"bytes"}],"stateMutability":"view","type":"function"},{"inputs":[],"name":"withdrawLink","outputs":[],"stateMutability":"nonpayable","type":"function"},{"inputs":[],"name":"yoyInflation","outputs":[{"internalType":"string","name":"","type":"string"}],"stateMutability":"view","type":"function"}],"evm":{"bytecode":{"linkReferences":{},"object":"60a06040526001600455600980546001600160a01b03191673326c977e6efc84e512bb9c30f76e30c160ed06fb1790553480156200003c57600080fd5b50600954600280546001600160a01b0319166001600160a01b03909216919091179055600a80546001600160a01b031916736d141cf6c43f7eabf94e288f5aa3f233572784991790556040805180820190915260208082527f6432323065356536383738383434363239303961303330323133383562376165918101918252620000c991600b9162000105565b506706f05b59d3b20000600c5561012c60805242600e55600f805460ff19166001179055600d80546001600160a01b03191633179055620001e7565b8280546200011390620001ab565b90600052602060002090601f01602090048101928262000137576000855562000182565b82601f106200015257805160ff191683800117855562000182565b8280016001018555821562000182579182015b828111156200018257825182559160200191906001019062000165565b506200019092915062000194565b5090565b5b8082111562000190576000815560010162000195565b600181811c90821680620001c057607f821691505b602082108103620001e157634e487b7160e01b600052602260045260246000fd5b50919050565b6080516117da6200020a60003960008181610255015261050001526117da6000f3fe608060405234801561001057600080fd5b50600436106101425760003560e01c80638dc654a2116100b8578063c2939d971161007c578063c2939d9714610292578063c2fb85231461029a578063caf89f89146102ad578063ddca3f43146102c0578063eb4d1939146102c9578063ed5df9dd146102d157600080fd5b80638dc654a2146102355780639063e2161461023d578063947a36fb14610250578063af5d945b14610277578063bb694f161461027f57600080fd5b806347c421b51161010a57806347c421b5146101be5780634c6b25b1146101d157806365372147146101f15780636e04ff0d146101f957806372582c8d1461021a5780638da5cb5b1461022257600080fd5b8063165d35e1146101475780632121778d1461016c5780633f3b3b271461017f578063454fa6e1146101965780634585e33b146101a9575b600080fd5b61014f6102d9565b6040516001600160a01b0390911681526020015b60405180910390f35b600a5461014f906001600160a01b031681565b610188600e5481565b604051908152602001610163565b6101886101a43660046111ea565b6102f2565b6101bc6101b73660046112bb565b610407565b005b6101bc6101cc36600461132c565b610418565b6101e46101df366004611355565b610451565b60405161016391906113bb565b6101e46104eb565b61020c6102073660046112bb565b6104f8565b6040516101639291906113ce565b610188610584565b600d5461014f906001600160a01b031681565b6101bc6106d0565b6101bc61024b3660046113e9565b610828565b6101887f000000000000000000000000000000000000000000000000000000000000000081565b6101e4610856565b6101bc61028d36600461141d565b610863565b6101e46108f7565b6101bc6102a836600461141d565b610904565b60095461014f906001600160a01b031681565b610188600c5481565b6101bc6109b2565b6101bc6109d5565b60006102ed6002546001600160a01b031690565b905090565b600080610310610302600b6114ab565b3063c2fb852360e01b6109fb565b6040805180820190915260078152667365727669636560c81b602082015290915061033d90829089610a20565b6040805180820190915260048152636461746160e01b602082015261036490829088610a20565b6040805180820190915260078152660d6caf2e0c2e8d60cb1b602082015261038e90829087610a20565b60408051808201909152600381526261626960e81b60208201526103b490829086610a20565b60408051808201909152600a81526936bab63a34b83634b2b960b11b60208201526103e190829085610a20565b600a54600c546103fc916001600160a01b0316908390610a3e565b979650505050505050565b42600e55610413610584565b505050565b600d546001600160a01b0316331461042f57600080fd5b600a80546001600160a01b0319166001600160a01b0392909216919091179055565b6008602052600090815260409020805461046a90611477565b80601f016020809104026020016040519081016040528092919081815260200182805461049690611477565b80156104e35780601f106104b8576101008083540402835291602001916104e3565b820191906000526020600020905b8154815290600101906020018083116104c657829003601f168201915b505050505081565b6007805461046a90611477565b6000606060007f0000000000000000000000000000000000000000000000000000000000000000600e544261052d9190611532565b600f549110915060ff1680156105405750805b925084848080601f01602080910402602001604051908101604052809392919081815260200183838082843760009201919091525095989297509195505050505050565b6000806105a2610594600b6114ab565b30635db4a78b60e11b6109fb565b9050610602604051806040016040528060078152602001667365727669636560c81b815250604051806040016040528060128152602001711d1c9d599b185d1a5bdb8bd8dd5c9c995b9d60721b81525083610a209092919063ffffffff16565b610663604051806040016040528060078152602001660d6caf2e0c2e8d60cb1b815250604051806040016040528060158152602001743cb2b0b927bb32b92cb2b0b924b7333630ba34b7b760591b81525083610a209092919063ffffffff16565b6106af6040518060400160405280600381526020016261626960e81b815250604051806040016040528060048152602001633539b7b760e11b81525083610a209092919063ffffffff16565b600a54600c546106ca916001600160a01b0316908390610a3e565b91505090565b600d546001600160a01b031633146106e757600080fd5b60006106fb6002546001600160a01b031690565b6040516370a0823160e01b81523060048201529091506001600160a01b0382169063a9059cbb90339083906370a0823190602401602060405180830381865afa15801561074c573d6000803e3d6000fd5b505050506040513d601f19601f820116820180604052508101906107709190611549565b6040516001600160e01b031960e085901b1681526001600160a01b03909216600483015260248201526044016020604051808303816000875af11580156107bb573d6000803e3d6000fd5b505050506040513d601f19601f820116820180604052508101906107df9190611562565b6108255760405162461bcd60e51b81526020600482015260126024820152712ab730b13632903a37903a3930b739b332b960711b60448201526064015b60405180910390fd5b50565b600d546001600160a01b0316331461083f57600080fd5b805161085290600b90602084019061106b565b5050565b6006805461046a90611477565b60008281526005602052604090205482906001600160a01b0316331461089b5760405162461bcd60e51b815260040161081c90611584565b60008181526005602052604080822080546001600160a01b03191690555182917f7cc135e0cebb02c3480ae5d74d377283180a2601f8f644edf7987b009316c63a91a281516108f190600690602085019061106b565b50505050565b600b805461046a90611477565b60008281526005602052604090205482906001600160a01b0316331461093c5760405162461bcd60e51b815260040161081c90611584565b60008181526005602052604080822080546001600160a01b03191690555182917f7cc135e0cebb02c3480ae5d74d377283180a2601f8f644edf7987b009316c63a91a2815161099290600790602085019061106b565b50600083815260086020908152604090912083516108f19285019061106b565b600d546001600160a01b031633146109c957600080fd5b600f805460ff19169055565b600d546001600160a01b031633146109ec57600080fd5b600f805460ff19166001179055565b610a036110ef565b610a0b6110ef565b610a1781868686610ad1565b95945050505050565b6080830151610a2f9083610b17565b60808301516104139082610b17565b600454600090610a4f8160016115cc565b600455835160408086015160808701515191516000936320214ca360e11b93610a879386938493923092918a916001916024016115e4565b60408051601f198184030181529190526020810180516001600160e01b03166001600160e01b0319909316929092179091529050610ac786838684610b2e565b9695505050505050565b610ad96110ef565b610ae98560800151610100610c8c565b50508284526001600160a01b03821660208501526001600160e01b031981166040850152835b949350505050565b610b248260038351610cf7565b6104138282610dfe565b6040516bffffffffffffffffffffffff193060601b1660208201526034810184905260009060540160408051808303601f1901815282825280516020918201206000818152600590925291812080546001600160a01b0319166001600160a01b038a1617905590925082917fb5e6e01e79f91267dc17b4e6314d5d4d03593d2ceee0fbb452b750bd70ea5af99190a2600254604051630200057560e51b81526001600160a01b0390911690634000aea090610bf19088908790879060040161164c565b6020604051808303816000875af1158015610c10573d6000803e3d6000fd5b505050506040513d601f19601f82011682018060405250810190610c349190611562565b610b0f5760405162461bcd60e51b815260206004820152602360248201527f756e61626c6520746f207472616e73666572416e6443616c6c20746f206f7261604482015262636c6560e81b606482015260840161081c565b604080518082019091526060815260006020820152610cac602083611673565b15610cd457610cbc602083611673565b610cc7906020611532565b610cd190836115cc565b91505b506020808301829052604080518085526000815283019091019052815b92915050565b6017816001600160401b031611610d1b576108f18360e0600585901b168317610e2c565b60ff816001600160401b031611610d5757610d41836018611fe0600586901b1617610e2c565b506108f1836001600160401b0383166001610e51565b61ffff816001600160401b031611610d9457610d7e836019611fe0600586901b1617610e2c565b506108f1836001600160401b0383166002610e51565b63ffffffff816001600160401b031611610dd357610dbd83601a611fe0600586901b1617610e2c565b506108f1836001600160401b0383166004610e51565b610de883601b611fe0600586901b1617610e2c565b506108f1836001600160401b0383166008610e51565b604080518082019091526060815260006020820152610e2583846000015151848551610e77565b9392505050565b604080518082019091526060815260006020820152610e258384600001515184610f61565b604080518082019091526060815260006020820152610b0f848560000151518585610fbc565b6040805180820190915260608152600060208201528251821115610e9a57600080fd5b6020850151610ea983866115cc565b1115610edc57610edc85610ecc87602001518786610ec791906115cc565b61103d565b610ed7906002611695565b611054565b600080865180518760208301019350808887011115610efb5787860182525b505050602084015b60208410610f3b5780518252610f1a6020836115cc565b9150610f276020826115cc565b9050610f34602085611532565b9350610f03565b51815160001960208690036101000a019081169019919091161790525083949350505050565b60408051808201909152606081526000602082015283602001518310610f9657610f968485602001516002610ed79190611695565b8351805160208583010184815350808503610fb2576001810182525b5093949350505050565b6040805180820190915260608152600060208201526020850151610fe085846115cc565b1115610ff457610ff485610ecc86856115cc565b6000600161100484610100611798565b61100e9190611532565b90508551838682010185831982511617815250805184870111156110325783860181525b509495945050505050565b60008183111561104e575081610cf1565b50919050565b81516110608383610c8c565b506108f18382610dfe565b82805461107790611477565b90600052602060002090601f01602090048101928261109957600085556110df565b82601f106110b257805160ff19168380011785556110df565b828001600101855582156110df579182015b828111156110df5782518255916020019190600101906110c4565b506110eb92915061112a565b5090565b6040805160a0810182526000808252602080830182905282840182905260608084018390528451808601909552845283015290608082015290565b5b808211156110eb576000815560010161112b565b634e487b7160e01b600052604160045260246000fd5b60006001600160401b038084111561116f5761116f61113f565b604051601f8501601f19908116603f011681019082821181831017156111975761119761113f565b816040528093508581528686860111156111b057600080fd5b858560208301376000602087830101525050509392505050565b600082601f8301126111db57600080fd5b610e2583833560208501611155565b600080600080600060a0868803121561120257600080fd5b85356001600160401b038082111561121957600080fd5b61122589838a016111ca565b9650602088013591508082111561123b57600080fd5b61124789838a016111ca565b9550604088013591508082111561125d57600080fd5b61126989838a016111ca565b9450606088013591508082111561127f57600080fd5b61128b89838a016111ca565b935060808801359150808211156112a157600080fd5b506112ae888289016111ca565b9150509295509295909350565b600080602083850312156112ce57600080fd5b82356001600160401b03808211156112e557600080fd5b818501915085601f8301126112f957600080fd5b81358181111561130857600080fd5b86602082850101111561131a57600080fd5b60209290920196919550909350505050565b60006020828403121561133e57600080fd5b81356001600160a01b0381168114610e2557600080fd5b60006020828403121561136757600080fd5b5035919050565b6000815180845260005b8181101561139457602081850181015186830182015201611378565b818111156113a6576000602083870101525b50601f01601f19169290920160200192915050565b602081526000610e25602083018461136e565b8215158152604060208201526000610b0f604083018461136e565b6000602082840312156113fb57600080fd5b81356001600160401b0381111561141157600080fd5b610b0f848285016111ca565b6000806040838503121561143057600080fd5b8235915060208301356001600160401b0381111561144d57600080fd5b8301601f8101851361145e57600080fd5b61146d85823560208401611155565b9150509250929050565b600181811c9082168061148b57607f821691505b60208210810361104e57634e487b7160e01b600052602260045260246000fd5b8054600090600180821691901c816114c157607f165b602081108083036114e257634e487b7160e01b600052602260045260246000fd5b849250601f8211156114fa5784600052602060002092505b825493508015611514576000198260200360031b1b841693505b505050919050565b634e487b7160e01b600052601160045260246000fd5b6000828210156115445761154461151c565b500390565b60006020828403121561155b57600080fd5b5051919050565b60006020828403121561157457600080fd5b81518015158114610e2557600080fd5b60208082526028908201527f536f75726365206d75737420626520746865206f7261636c65206f6620746865604082015267081c995c5d595cdd60c21b606082015260800190565b600082198211156115df576115df61151c565b500190565b6001600160a01b0389811682526020820189905260408201889052861660608201526001600160e01b03198516608082015260a0810184905260c0810183905261010060e0820181905260009061163d8382018561136e565b9b9a5050505050505050505050565b60018060a01b0384168152826020820152606060408201526000610a17606083018461136e565b60008261169057634e487b7160e01b600052601260045260246000fd5b500690565b60008160001904831182151516156116af576116af61151c565b500290565b600181815b808511156116ef5781600019048211156116d5576116d561151c565b808516156116e257918102915b93841c93908002906116b9565b509250929050565b60008261170657506001610cf1565b8161171357506000610cf1565b816001811461172957600281146117335761174f565b6001915050610cf1565b60ff8411156117445761174461151c565b50506001821b610cf1565b5060208310610133831016604e8410600b8410161715611772575081810a610cf1565b61177c83836116b4565b80600019048211156117905761179061151c565b029392505050565b6000610e2583836116f756fea26469706673582212205eaabfaad381399851c8856f4a601acc36389c3c100b4cce0c9aac27b7854b3b64736f6c634300080d0033","opcodes":"PUSH1 0xA0 PUSH1 0x40 MSTORE PUSH1 0x1 PUSH1 0x4 SSTORE PUSH1 0x9 DUP1 SLOAD PUSH1 0x1 PUSH1 0x1 PUSH1 0xA0 SHL SUB NOT AND PUSH20 0x326C977E6EFC84E512BB9C30F76E30C160ED06FB OR SWAP1 SSTORE CALLVALUE DUP1 ISZERO PUSH3 0x3C JUMPI PUSH1 0x0 DUP1 REVERT JUMPDEST POP PUSH1 0x9 SLOAD PUSH1 0x2 DUP1 SLOAD PUSH1 0x1 PUSH1 0x1 PUSH1 0xA0 SHL SUB NOT AND PUSH1 0x1 PUSH1 0x1 PUSH1 0xA0 SHL SUB SWAP1 SWAP3 AND SWAP2 SWAP1 SWAP2 OR SWAP1 SSTORE PUSH1 0xA DUP1 SLOAD PUSH1 0x1 PUSH1 0x1 PUSH1 0xA0 SHL SUB NOT AND PUSH20 0x6D141CF6C43F7EABF94E288F5AA3F23357278499 OR SWAP1 SSTORE PUSH1 0x40 DUP1 MLOAD DUP1 DUP3 ADD SWAP1 SWAP2 MSTORE PUSH1 0x20 DUP1 DUP3 MSTORE PUSH32 0x6432323065356536383738383434363239303961303330323133383562376165 SWAP2 DUP2 ADD SWAP2 DUP3 MSTORE PUSH3 0xC9 SWAP2 PUSH1 0xB SWAP2 PUSH3 0x105 JUMP JUMPDEST POP PUSH8 0x6F05B59D3B20000 PUSH1 0xC SSTORE PUSH2 0x12C PUSH1 0x80 MSTORE TIMESTAMP PUSH1 0xE SSTORE PUSH1 0xF DUP1 SLOAD PUSH1 0xFF NOT AND PUSH1 0x1 OR SWAP1 SSTORE PUSH1 0xD DUP1 SLOAD PUSH1 0x1 PUSH1 0x1 PUSH1 0xA0 SHL SUB NOT AND CALLER OR SWAP1 SSTORE PUSH3 0x1E7 JUMP JUMPDEST DUP3 DUP1 SLOAD PUSH3 0x113 SWAP1 PUSH3 0x1AB JUMP JUMPDEST SWAP1 PUSH1 0x0 MSTORE PUSH1 0x20 PUSH1 0x0 KECCAK256 SWAP1 PUSH1 0x1F ADD PUSH1 0x20 SWAP1 DIV DUP2 ADD SWAP3 DUP3 PUSH3 0x137 JUMPI PUSH1 0x0 DUP6 SSTORE PUSH3 0x182 JUMP JUMPDEST DUP3 PUSH1 0x1F LT PUSH3 0x152 JUMPI DUP1 MLOAD PUSH1 0xFF NOT AND DUP4 DUP1 ADD OR DUP6 SSTORE PUSH3 0x182 JUMP JUMPDEST DUP3 DUP1 ADD PUSH1 0x1 ADD DUP6 SSTORE DUP3 ISZERO PUSH3 0x182 JUMPI SWAP2 DUP3 ADD JUMPDEST DUP3 DUP2 GT ISZERO PUSH3 0x182 JUMPI DUP3 MLOAD DUP3 SSTORE SWAP2 PUSH1 0x20 ADD SWAP2 SWAP1 PUSH1 0x1 ADD SWAP1 PUSH3 0x165 JUMP JUMPDEST POP PUSH3 0x190 SWAP3 SWAP2 POP PUSH3 0x194 JUMP JUMPDEST POP SWAP1 JUMP JUMPDEST JUMPDEST DUP1 DUP3 GT ISZERO PUSH3 0x190 JUMPI PUSH1 0x0 DUP2 SSTORE PUSH1 0x1 ADD PUSH3 0x195 JUMP JUMPDEST PUSH1 0x1 DUP2 DUP2 SHR SWAP1 DUP3 AND DUP1 PUSH3 0x1C0 JUMPI PUSH1 0x7F DUP3 AND SWAP2 POP JUMPDEST PUSH1 0x20 DUP3 LT DUP2 SUB PUSH3 0x1E1 JUMPI PUSH4 0x4E487B71 PUSH1 0xE0 SHL PUSH1 0x0 MSTORE PUSH1 0x22 PUSH1 0x4 MSTORE PUSH1 0x24 PUSH1 0x0 REVERT JUMPDEST POP SWAP2 SWAP1 POP JUMP JUMPDEST PUSH1 0x80 MLOAD PUSH2 0x17DA PUSH3 0x20A PUSH1 0x0 CODECOPY PUSH1 0x0 DUP2 DUP2 PUSH2 0x255 ADD MSTORE PUSH2 0x500 ADD MSTORE PUSH2 0x17DA PUSH1 0x0 RETURN INVALID PUSH1 0x80 PUSH1 0x40 MSTORE CALLVALUE DUP1 ISZERO PUSH2 0x10 JUMPI PUSH1 0x0 DUP1 REVERT JUMPDEST POP PUSH1 0x4 CALLDATASIZE LT PUSH2 0x142 JUMPI PUSH1 0x0 CALLDATALOAD PUSH1 0xE0 SHR DUP1 PUSH4 0x8DC654A2 GT PUSH2 0xB8 JUMPI DUP1 PUSH4 0xC2939D97 GT PUSH2 0x7C JUMPI DUP1 PUSH4 0xC2939D97 EQ PUSH2 0x292 JUMPI DUP1 PUSH4 0xC2FB8523 EQ PUSH2 0x29A JUMPI DUP1 PUSH4 0xCAF89F89 EQ PUSH2 0x2AD JUMPI DUP1 PUSH4 0xDDCA3F43 EQ PUSH2 0x2C0 JUMPI DUP1 PUSH4 0xEB4D1939 EQ PUSH2 0x2C9 JUMPI DUP1 PUSH4 0xED5DF9DD EQ PUSH2 0x2D1 JUMPI PUSH1 0x0 DUP1 REVERT JUMPDEST DUP1 PUSH4 0x8DC654A2 EQ PUSH2 0x235 JUMPI DUP1 PUSH4 0x9063E216 EQ PUSH2 0x23D JUMPI DUP1 PUSH4 0x947A36FB EQ PUSH2 0x250 JUMPI DUP1 PUSH4 0xAF5D945B EQ PUSH2 0x277 JUMPI DUP1 PUSH4 0xBB694F16 EQ PUSH2 0x27F JUMPI PUSH1 0x0 DUP1 REVERT JUMPDEST DUP1 PUSH4 0x47C421B5 GT PUSH2 0x10A JUMPI DUP1 PUSH4 0x47C421B5 EQ PUSH2 0x1BE JUMPI DUP1 PUSH4 0x4C6B25B1 EQ PUSH2 0x1D1 JUMPI DUP1 PUSH4 0x65372147 EQ PUSH2 0x1F1 JUMPI DUP1 PUSH4 0x6E04FF0D EQ PUSH2 0x1F9 JUMPI DUP1 PUSH4 0x72582C8D EQ PUSH2 0x21A JUMPI DUP1 PUSH4 0x8DA5CB5B EQ PUSH2 0x222 JUMPI PUSH1 0x0 DUP1 REVERT JUMPDEST DUP1 PUSH4 0x165D35E1 EQ PUSH2 0x147 JUMPI DUP1 PUSH4 0x2121778D EQ PUSH2 0x16C JUMPI DUP1 PUSH4 0x3F3B3B27 EQ PUSH2 0x17F JUMPI DUP1 PUSH4 0x454FA6E1 EQ PUSH2 0x196 JUMPI DUP1 PUSH4 0x4585E33B EQ PUSH2 0x1A9 JUMPI JUMPDEST PUSH1 0x0 DUP1 REVERT JUMPDEST PUSH2 0x14F PUSH2 0x2D9 JUMP JUMPDEST PUSH1 0x40 MLOAD PUSH1 0x1 PUSH1 0x1 PUSH1 0xA0 SHL SUB SWAP1 SWAP2 AND DUP2 MSTORE PUSH1 0x20 ADD JUMPDEST PUSH1 0x40 MLOAD DUP1 SWAP2 SUB SWAP1 RETURN JUMPDEST PUSH1 0xA SLOAD PUSH2 0x14F SWAP1 PUSH1 0x1 PUSH1 0x1 PUSH1 0xA0 SHL SUB AND DUP2 JUMP JUMPDEST PUSH2 0x188 PUSH1 0xE SLOAD DUP2 JUMP JUMPDEST PUSH1 0x40 MLOAD SWAP1 DUP2 MSTORE PUSH1 0x20 ADD PUSH2 0x163 JUMP JUMPDEST PUSH2 0x188 PUSH2 0x1A4 CALLDATASIZE PUSH1 0x4 PUSH2 0x11EA JUMP JUMPDEST PUSH2 0x2F2 JUMP JUMPDEST PUSH2 0x1BC PUSH2 0x1B7 CALLDATASIZE PUSH1 0x4 PUSH2 0x12BB JUMP JUMPDEST PUSH2 0x407 JUMP JUMPDEST STOP JUMPDEST PUSH2 0x1BC PUSH2 0x1CC CALLDATASIZE PUSH1 0x4 PUSH2 0x132C JUMP JUMPDEST PUSH2 0x418 JUMP JUMPDEST PUSH2 0x1E4 PUSH2 0x1DF CALLDATASIZE PUSH1 0x4 PUSH2 0x1355 JUMP JUMPDEST PUSH2 0x451 JUMP JUMPDEST PUSH1 0x40 MLOAD PUSH2 0x163 SWAP2 SWAP1 PUSH2 0x13BB JUMP JUMPDEST PUSH2 0x1E4 PUSH2 0x4EB JUMP JUMPDEST PUSH2 0x20C PUSH2 0x207 CALLDATASIZE PUSH1 0x4 PUSH2 0x12BB JUMP JUMPDEST PUSH2 0x4F8 JUMP JUMPDEST PUSH1 0x40 MLOAD PUSH2 0x163 SWAP3 SWAP2 SWAP1 PUSH2 0x13CE JUMP JUMPDEST PUSH2 0x188 PUSH2 0x584 JUMP JUMPDEST PUSH1 0xD SLOAD PUSH2 0x14F SWAP1 PUSH1 0x1 PUSH1 0x1 PUSH1 0xA0 SHL SUB AND DUP2 JUMP JUMPDEST PUSH2 0x1BC PUSH2 0x6D0 JUMP JUMPDEST PUSH2 0x1BC PUSH2 0x24B CALLDATASIZE PUSH1 0x4 PUSH2 0x13E9 JUMP JUMPDEST PUSH2 0x828 JUMP JUMPDEST PUSH2 0x188 PUSH32 0x0 DUP2 JUMP JUMPDEST PUSH2 0x1E4 PUSH2 0x856 JUMP JUMPDEST PUSH2 0x1BC PUSH2 0x28D CALLDATASIZE PUSH1 0x4 PUSH2 0x141D JUMP JUMPDEST PUSH2 0x863 JUMP JUMPDEST PUSH2 0x1E4 PUSH2 0x8F7 JUMP JUMPDEST PUSH2 0x1BC PUSH2 0x2A8 CALLDATASIZE PUSH1 0x4 PUSH2 0x141D JUMP JUMPDEST PUSH2 0x904 JUMP JUMPDEST PUSH1 0x9 SLOAD PUSH2 0x14F SWAP1 PUSH1 0x1 PUSH1 0x1 PUSH1 0xA0 SHL SUB AND DUP2 JUMP JUMPDEST PUSH2 0x188 PUSH1 0xC SLOAD DUP2 JUMP JUMPDEST PUSH2 0x1BC PUSH2 0x9B2 JUMP JUMPDEST PUSH2 0x1BC PUSH2 0x9D5 JUMP JUMPDEST PUSH1 0x0 PUSH2 0x2ED PUSH1 0x2 SLOAD PUSH1 0x1 PUSH1 0x1 PUSH1 0xA0 SHL SUB AND SWAP1 JUMP JUMPDEST SWAP1 POP SWAP1 JUMP JUMPDEST PUSH1 0x0 DUP1 PUSH2 0x310 PUSH2 0x302 PUSH1 0xB PUSH2 0x14AB JUMP JUMPDEST ADDRESS PUSH4 0xC2FB8523 PUSH1 0xE0 SHL PUSH2 0x9FB JUMP JUMPDEST PUSH1 0x40 DUP1 MLOAD DUP1 DUP3 ADD SWAP1 SWAP2 MSTORE PUSH1 0x7 DUP2 MSTORE PUSH7 0x73657276696365 PUSH1 0xC8 SHL PUSH1 0x20 DUP3 ADD MSTORE SWAP1 SWAP2 POP PUSH2 0x33D SWAP1 DUP3 SWAP1 DUP10 PUSH2 0xA20 JUMP JUMPDEST PUSH1 0x40 DUP1 MLOAD DUP1 DUP3 ADD SWAP1 SWAP2 MSTORE PUSH1 0x4 DUP2 MSTORE PUSH4 0x64617461 PUSH1 0xE0 SHL PUSH1 0x20 DUP3 ADD MSTORE PUSH2 0x364 SWAP1 DUP3 SWAP1 DUP9 PUSH2 0xA20 JUMP JUMPDEST PUSH1 0x40 DUP1 MLOAD DUP1 DUP3 ADD SWAP1 SWAP2 MSTORE PUSH1 0x7 DUP2 MSTORE PUSH7 0xD6CAF2E0C2E8D PUSH1 0xCB SHL PUSH1 0x20 DUP3 ADD MSTORE PUSH2 0x38E SWAP1 DUP3 SWAP1 DUP8 PUSH2 0xA20 JUMP JUMPDEST PUSH1 0x40 DUP1 MLOAD DUP1 DUP3 ADD SWAP1 SWAP2 MSTORE PUSH1 0x3 DUP2 MSTORE PUSH3 0x616269 PUSH1 0xE8 SHL PUSH1 0x20 DUP3 ADD MSTORE PUSH2 0x3B4 SWAP1 DUP3 SWAP1 DUP7 PUSH2 0xA20 JUMP JUMPDEST PUSH1 0x40 DUP1 MLOAD DUP1 DUP3 ADD SWAP1 SWAP2 MSTORE PUSH1 0xA DUP2 MSTORE PUSH10 0x36BAB63A34B83634B2B9 PUSH1 0xB1 SHL PUSH1 0x20 DUP3 ADD MSTORE PUSH2 0x3E1 SWAP1 DUP3 SWAP1 DUP6 PUSH2 0xA20 JUMP JUMPDEST PUSH1 0xA SLOAD PUSH1 0xC SLOAD PUSH2 0x3FC SWAP2 PUSH1 0x1 PUSH1 0x1 PUSH1 0xA0 SHL SUB AND SWAP1 DUP4 SWAP1 PUSH2 0xA3E JUMP JUMPDEST SWAP8 SWAP7 POP POP POP POP POP POP POP JUMP JUMPDEST TIMESTAMP PUSH1 0xE SSTORE PUSH2 0x413 PUSH2 0x584 JUMP JUMPDEST POP POP POP JUMP JUMPDEST PUSH1 0xD SLOAD PUSH1 0x1 PUSH1 0x1 PUSH1 0xA0 SHL SUB AND CALLER EQ PUSH2 0x42F JUMPI PUSH1 0x0 DUP1 REVERT JUMPDEST PUSH1 0xA DUP1 SLOAD PUSH1 0x1 PUSH1 0x1 PUSH1 0xA0 SHL SUB NOT AND PUSH1 0x1 PUSH1 0x1 PUSH1 0xA0 SHL SUB SWAP3 SWAP1 SWAP3 AND SWAP2 SWAP1 SWAP2 OR SWAP1 SSTORE JUMP JUMPDEST PUSH1 0x8 PUSH1 0x20 MSTORE PUSH1 0x0 SWAP1 DUP2 MSTORE PUSH1 0x40 SWAP1 KECCAK256 DUP1 SLOAD PUSH2 0x46A SWAP1 PUSH2 0x1477 JUMP JUMPDEST DUP1 PUSH1 0x1F ADD PUSH1 0x20 DUP1 SWAP2 DIV MUL PUSH1 0x20 ADD PUSH1 0x40 MLOAD SWAP1 DUP2 ADD PUSH1 0x40 MSTORE DUP1 SWAP3 SWAP2 SWAP1 DUP2 DUP2 MSTORE PUSH1 0x20 ADD DUP3 DUP1 SLOAD PUSH2 0x496 SWAP1 PUSH2 0x1477 JUMP JUMPDEST DUP1 ISZERO PUSH2 0x4E3 JUMPI DUP1 PUSH1 0x1F LT PUSH2 0x4B8 JUMPI PUSH2 0x100 DUP1 DUP4 SLOAD DIV MUL DUP4 MSTORE SWAP2 PUSH1 0x20 ADD SWAP2 PUSH2 0x4E3 JUMP JUMPDEST DUP3 ADD SWAP2 SWAP1 PUSH1 0x0 MSTORE PUSH1 0x20 PUSH1 0x0 KECCAK256 SWAP1 JUMPDEST DUP2 SLOAD DUP2 MSTORE SWAP1 PUSH1 0x1 ADD SWAP1 PUSH1 0x20 ADD DUP1 DUP4 GT PUSH2 0x4C6 JUMPI DUP3 SWAP1 SUB PUSH1 0x1F AND DUP3 ADD SWAP2 JUMPDEST POP POP POP POP POP DUP2 JUMP JUMPDEST PUSH1 0x7 DUP1 SLOAD PUSH2 0x46A SWAP1 PUSH2 0x1477 JUMP JUMPDEST PUSH1 0x0 PUSH1 0x60 PUSH1 0x0 PUSH32 0x0 PUSH1 0xE SLOAD TIMESTAMP PUSH2 0x52D SWAP2 SWAP1 PUSH2 0x1532 JUMP JUMPDEST PUSH1 0xF SLOAD SWAP2 LT SWAP2 POP PUSH1 0xFF AND DUP1 ISZERO PUSH2 0x540 JUMPI POP DUP1 JUMPDEST SWAP3 POP DUP5 DUP5 DUP1 DUP1 PUSH1 0x1F ADD PUSH1 0x20 DUP1 SWAP2 DIV MUL PUSH1 0x20 ADD PUSH1 0x40 MLOAD SWAP1 DUP2 ADD PUSH1 0x40 MSTORE DUP1 SWAP4 SWAP3 SWAP2 SWAP1 DUP2 DUP2 MSTORE PUSH1 0x20 ADD DUP4 DUP4 DUP1 DUP3 DUP5 CALLDATACOPY PUSH1 0x0 SWAP3 ADD SWAP2 SWAP1 SWAP2 MSTORE POP SWAP6 SWAP9 SWAP3 SWAP8 POP SWAP2 SWAP6 POP POP POP POP POP POP JUMP JUMPDEST PUSH1 0x0 DUP1 PUSH2 0x5A2 PUSH2 0x594 PUSH1 0xB PUSH2 0x14AB JUMP JUMPDEST ADDRESS PUSH4 0x5DB4A78B PUSH1 0xE1 SHL PUSH2 0x9FB JUMP JUMPDEST SWAP1 POP PUSH2 0x602 PUSH1 0x40 MLOAD DUP1 PUSH1 0x40 ADD PUSH1 0x40 MSTORE DUP1 PUSH1 0x7 DUP2 MSTORE PUSH1 0x20 ADD PUSH7 0x73657276696365 PUSH1 0xC8 SHL DUP2 MSTORE POP PUSH1 0x40 MLOAD DUP1 PUSH1 0x40 ADD PUSH1 0x40 MSTORE DUP1 PUSH1 0x12 DUP2 MSTORE PUSH1 0x20 ADD PUSH18 0x1D1C9D599B185D1A5BDB8BD8DD5C9C995B9D PUSH1 0x72 SHL DUP2 MSTORE POP DUP4 PUSH2 0xA20 SWAP1 SWAP3 SWAP2 SWAP1 PUSH4 0xFFFFFFFF AND JUMP JUMPDEST PUSH2 0x663 PUSH1 0x40 MLOAD DUP1 PUSH1 0x40 ADD PUSH1 0x40 MSTORE DUP1 PUSH1 0x7 DUP2 MSTORE PUSH1 0x20 ADD PUSH7 0xD6CAF2E0C2E8D PUSH1 0xCB SHL DUP2 MSTORE POP PUSH1 0x40 MLOAD DUP1 PUSH1 0x40 ADD PUSH1 0x40 MSTORE DUP1 PUSH1 0x15 DUP2 MSTORE PUSH1 0x20 ADD PUSH21 0x3CB2B0B927BB32B92CB2B0B924B7333630BA34B7B7 PUSH1 0x59 SHL DUP2 MSTORE POP DUP4 PUSH2 0xA20 SWAP1 SWAP3 SWAP2 SWAP1 PUSH4 0xFFFFFFFF AND JUMP JUMPDEST PUSH2 0x6AF PUSH1 0x40 MLOAD DUP1 PUSH1 0x40 ADD PUSH1 0x40 MSTORE DUP1 PUSH1 0x3 DUP2 MSTORE PUSH1 0x20 ADD PUSH3 0x616269 PUSH1 0xE8 SHL DUP2 MSTORE POP PUSH1 0x40 MLOAD DUP1 PUSH1 0x40 ADD PUSH1 0x40 MSTORE DUP1 PUSH1 0x4 DUP2 MSTORE PUSH1 0x20 ADD PUSH4 0x3539B7B7 PUSH1 0xE1 SHL DUP2 MSTORE POP DUP4 PUSH2 0xA20 SWAP1 SWAP3 SWAP2 SWAP1 PUSH4 0xFFFFFFFF AND JUMP JUMPDEST PUSH1 0xA SLOAD PUSH1 0xC SLOAD PUSH2 0x6CA SWAP2 PUSH1 0x1 PUSH1 0x1 PUSH1 0xA0 SHL SUB AND SWAP1 DUP4 SWAP1 PUSH2 0xA3E JUMP JUMPDEST SWAP2 POP POP SWAP1 JUMP JUMPDEST PUSH1 0xD SLOAD PUSH1 0x1 PUSH1 0x1 PUSH1 0xA0 SHL SUB AND CALLER EQ PUSH2 0x6E7 JUMPI PUSH1 0x0 DUP1 REVERT JUMPDEST PUSH1 0x0 PUSH2 0x6FB PUSH1 0x2 SLOAD PUSH1 0x1 PUSH1 0x1 PUSH1 0xA0 SHL SUB AND SWAP1 JUMP JUMPDEST PUSH1 0x40 MLOAD PUSH4 0x70A08231 PUSH1 0xE0 SHL DUP2 MSTORE ADDRESS PUSH1 0x4 DUP3 ADD MSTORE SWAP1 SWAP2 POP PUSH1 0x1 PUSH1 0x1 PUSH1 0xA0 SHL SUB DUP3 AND SWAP1 PUSH4 0xA9059CBB SWAP1 CALLER SWAP1 DUP4 SWAP1 PUSH4 0x70A08231 SWAP1 PUSH1 0x24 ADD PUSH1 0x20 PUSH1 0x40 MLOAD DUP1 DUP4 SUB DUP2 DUP7 GAS STATICCALL ISZERO DUP1 ISZERO PUSH2 0x74C JUMPI RETURNDATASIZE PUSH1 0x0 DUP1 RETURNDATACOPY RETURNDATASIZE PUSH1 0x0 REVERT JUMPDEST POP POP POP POP PUSH1 0x40 MLOAD RETURNDATASIZE PUSH1 0x1F NOT PUSH1 0x1F DUP3 ADD AND DUP3 ADD DUP1 PUSH1 0x40 MSTORE POP DUP2 ADD SWAP1 PUSH2 0x770 SWAP2 SWAP1 PUSH2 0x1549 JUMP JUMPDEST PUSH1 0x40 MLOAD PUSH1 0x1 PUSH1 0x1 PUSH1 0xE0 SHL SUB NOT PUSH1 0xE0 DUP6 SWAP1 SHL AND DUP2 MSTORE PUSH1 0x1 PUSH1 0x1 PUSH1 0xA0 SHL SUB SWAP1 SWAP3 AND PUSH1 0x4 DUP4 ADD MSTORE PUSH1 0x24 DUP3 ADD MSTORE PUSH1 0x44 ADD PUSH1 0x20 PUSH1 0x40 MLOAD DUP1 DUP4 SUB DUP2 PUSH1 0x0 DUP8 GAS CALL ISZERO DUP1 ISZERO PUSH2 0x7BB JUMPI RETURNDATASIZE PUSH1 0x0 DUP1 RETURNDATACOPY RETURNDATASIZE PUSH1 0x0 REVERT JUMPDEST POP POP POP POP PUSH1 0x40 MLOAD RETURNDATASIZE PUSH1 0x1F NOT PUSH1 0x1F DUP3 ADD AND DUP3 ADD DUP1 PUSH1 0x40 MSTORE POP DUP2 ADD SWAP1 PUSH2 0x7DF SWAP2 SWAP1 PUSH2 0x1562 JUMP JUMPDEST PUSH2 0x825 JUMPI PUSH1 0x40 MLOAD PUSH3 0x461BCD PUSH1 0xE5 SHL DUP2 MSTORE PUSH1 0x20 PUSH1 0x4 DUP3 ADD MSTORE PUSH1 0x12 PUSH1 0x24 DUP3 ADD MSTORE PUSH18 0x2AB730B13632903A37903A3930B739B332B9 PUSH1 0x71 SHL PUSH1 0x44 DUP3 ADD MSTORE PUSH1 0x64 ADD JUMPDEST PUSH1 0x40 MLOAD DUP1 SWAP2 SUB SWAP1 REVERT JUMPDEST POP JUMP JUMPDEST PUSH1 0xD SLOAD PUSH1 0x1 PUSH1 0x1 PUSH1 0xA0 SHL SUB AND CALLER EQ PUSH2 0x83F JUMPI PUSH1 0x0 DUP1 REVERT JUMPDEST DUP1 MLOAD PUSH2 0x852 SWAP1 PUSH1 0xB SWAP1 PUSH1 0x20 DUP5 ADD SWAP1 PUSH2 0x106B JUMP JUMPDEST POP POP JUMP JUMPDEST PUSH1 0x6 DUP1 SLOAD PUSH2 0x46A SWAP1 PUSH2 0x1477 JUMP JUMPDEST PUSH1 0x0 DUP3 DUP2 MSTORE PUSH1 0x5 PUSH1 0x20 MSTORE PUSH1 0x40 SWAP1 KECCAK256 SLOAD DUP3 SWAP1 PUSH1 0x1 PUSH1 0x1 PUSH1 0xA0 SHL SUB AND CALLER EQ PUSH2 0x89B JUMPI PUSH1 0x40 MLOAD PUSH3 0x461BCD PUSH1 0xE5 SHL DUP2 MSTORE PUSH1 0x4 ADD PUSH2 0x81C SWAP1 PUSH2 0x1584 JUMP JUMPDEST PUSH1 0x0 DUP2 DUP2 MSTORE PUSH1 0x5 PUSH1 0x20 MSTORE PUSH1 0x40 DUP1 DUP3 KECCAK256 DUP1 SLOAD PUSH1 0x1 PUSH1 0x1 PUSH1 0xA0 SHL SUB NOT AND SWAP1 SSTORE MLOAD DUP3 SWAP2 PUSH32 0x7CC135E0CEBB02C3480AE5D74D377283180A2601F8F644EDF7987B009316C63A SWAP2 LOG2 DUP2 MLOAD PUSH2 0x8F1 SWAP1 PUSH1 0x6 SWAP1 PUSH1 0x20 DUP6 ADD SWAP1 PUSH2 0x106B JUMP JUMPDEST POP POP POP POP JUMP JUMPDEST PUSH1 0xB DUP1 SLOAD PUSH2 0x46A SWAP1 PUSH2 0x1477 JUMP JUMPDEST PUSH1 0x0 DUP3 DUP2 MSTORE PUSH1 0x5 PUSH1 0x20 MSTORE PUSH1 0x40 SWAP1 KECCAK256 SLOAD DUP3 SWAP1 PUSH1 0x1 PUSH1 0x1 PUSH1 0xA0 SHL SUB AND CALLER EQ PUSH2 0x93C JUMPI PUSH1 0x40 MLOAD PUSH3 0x461BCD PUSH1 0xE5 SHL DUP2 MSTORE PUSH1 0x4 ADD PUSH2 0x81C SWAP1 PUSH2 0x1584 JUMP JUMPDEST PUSH1 0x0 DUP2 DUP2 MSTORE PUSH1 0x5 PUSH1 0x20 MSTORE PUSH1 0x40 DUP1 DUP3 KECCAK256 DUP1 SLOAD PUSH1 0x1 PUSH1 0x1 PUSH1 0xA0 SHL SUB NOT AND SWAP1 SSTORE MLOAD DUP3 SWAP2 PUSH32 0x7CC135E0CEBB02C3480AE5D74D377283180A2601F8F644EDF7987B009316C63A SWAP2 LOG2 DUP2 MLOAD PUSH2 0x992 SWAP1 PUSH1 0x7 SWAP1 PUSH1 0x20 DUP6 ADD SWAP1 PUSH2 0x106B JUMP JUMPDEST POP PUSH1 0x0 DUP4 DUP2 MSTORE PUSH1 0x8 PUSH1 0x20 SWAP1 DUP2 MSTORE PUSH1 0x40 SWAP1 SWAP2 KECCAK256 DUP4 MLOAD PUSH2 0x8F1 SWAP3 DUP6 ADD SWAP1 PUSH2 0x106B JUMP JUMPDEST PUSH1 0xD SLOAD PUSH1 0x1 PUSH1 0x1 PUSH1 0xA0 SHL SUB AND CALLER EQ PUSH2 0x9C9 JUMPI PUSH1 0x0 DUP1 REVERT JUMPDEST PUSH1 0xF DUP1 SLOAD PUSH1 0xFF NOT AND SWAP1 SSTORE JUMP JUMPDEST PUSH1 0xD SLOAD PUSH1 0x1 PUSH1 0x1 PUSH1 0xA0 SHL SUB AND CALLER EQ PUSH2 0x9EC JUMPI PUSH1 0x0 DUP1 REVERT JUMPDEST PUSH1 0xF DUP1 SLOAD PUSH1 0xFF NOT AND PUSH1 0x1 OR SWAP1 SSTORE JUMP JUMPDEST PUSH2 0xA03 PUSH2 0x10EF JUMP JUMPDEST PUSH2 0xA0B PUSH2 0x10EF JUMP JUMPDEST PUSH2 0xA17 DUP2 DUP7 DUP7 DUP7 PUSH2 0xAD1 JUMP JUMPDEST SWAP6 SWAP5 POP POP POP POP POP JUMP JUMPDEST PUSH1 0x80 DUP4 ADD MLOAD PUSH2 0xA2F SWAP1 DUP4 PUSH2 0xB17 JUMP JUMPDEST PUSH1 0x80 DUP4 ADD MLOAD PUSH2 0x413 SWAP1 DUP3 PUSH2 0xB17 JUMP JUMPDEST PUSH1 0x4 SLOAD PUSH1 0x0 SWAP1 PUSH2 0xA4F DUP2 PUSH1 0x1 PUSH2 0x15CC JUMP JUMPDEST PUSH1 0x4 SSTORE DUP4 MLOAD PUSH1 0x40 DUP1 DUP7 ADD MLOAD PUSH1 0x80 DUP8 ADD MLOAD MLOAD SWAP2 MLOAD PUSH1 0x0 SWAP4 PUSH4 0x20214CA3 PUSH1 0xE1 SHL SWAP4 PUSH2 0xA87 SWAP4 DUP7 SWAP4 DUP5 SWAP4 SWAP3 ADDRESS SWAP3 SWAP2 DUP11 SWAP2 PUSH1 0x1 SWAP2 PUSH1 0x24 ADD PUSH2 0x15E4 JUMP JUMPDEST PUSH1 0x40 DUP1 MLOAD PUSH1 0x1F NOT DUP2 DUP5 SUB ADD DUP2 MSTORE SWAP2 SWAP1 MSTORE PUSH1 0x20 DUP2 ADD DUP1 MLOAD PUSH1 0x1 PUSH1 0x1 PUSH1 0xE0 SHL SUB AND PUSH1 0x1 PUSH1 0x1 PUSH1 0xE0 SHL SUB NOT SWAP1 SWAP4 AND SWAP3 SWAP1 SWAP3 OR SWAP1 SWAP2 MSTORE SWAP1 POP PUSH2 0xAC7 DUP7 DUP4 DUP7 DUP5 PUSH2 0xB2E JUMP JUMPDEST SWAP7 SWAP6 POP POP POP POP POP POP JUMP JUMPDEST PUSH2 0xAD9 PUSH2 0x10EF JUMP JUMPDEST PUSH2 0xAE9 DUP6 PUSH1 0x80 ADD MLOAD PUSH2 0x100 PUSH2 0xC8C JUMP JUMPDEST POP POP DUP3 DUP5 MSTORE PUSH1 0x1 PUSH1 0x1 PUSH1 0xA0 SHL SUB DUP3 AND PUSH1 0x20 DUP6 ADD MSTORE PUSH1 0x1 PUSH1 0x1 PUSH1 0xE0 SHL SUB NOT DUP2 AND PUSH1 0x40 DUP6 ADD MSTORE DUP4 JUMPDEST SWAP5 SWAP4 POP POP POP POP JUMP JUMPDEST PUSH2 0xB24 DUP3 PUSH1 0x3 DUP4 MLOAD PUSH2 0xCF7 JUMP JUMPDEST PUSH2 0x413 DUP3 DUP3 PUSH2 0xDFE JUMP JUMPDEST PUSH1 0x40 MLOAD PUSH12 0xFFFFFFFFFFFFFFFFFFFFFFFF NOT ADDRESS PUSH1 0x60 SHL AND PUSH1 0x20 DUP3 ADD MSTORE PUSH1 0x34 DUP2 ADD DUP5 SWAP1 MSTORE PUSH1 0x0 SWAP1 PUSH1 0x54 ADD PUSH1 0x40 DUP1 MLOAD DUP1 DUP4 SUB PUSH1 0x1F NOT ADD DUP2 MSTORE DUP3 DUP3 MSTORE DUP1 MLOAD PUSH1 0x20 SWAP2 DUP3 ADD KECCAK256 PUSH1 0x0 DUP2 DUP2 MSTORE PUSH1 0x5 SWAP1 SWAP3 MSTORE SWAP2 DUP2 KECCAK256 DUP1 SLOAD PUSH1 0x1 PUSH1 0x1 PUSH1 0xA0 SHL SUB NOT AND PUSH1 0x1 PUSH1 0x1 PUSH1 0xA0 SHL SUB DUP11 AND OR SWAP1 SSTORE SWAP1 SWAP3 POP DUP3 SWAP2 PUSH32 0xB5E6E01E79F91267DC17B4E6314D5D4D03593D2CEEE0FBB452B750BD70EA5AF9 SWAP2 SWAP1 LOG2 PUSH1 0x2 SLOAD PUSH1 0x40 MLOAD PUSH4 0x2000575 PUSH1 0xE5 SHL DUP2 MSTORE PUSH1 0x1 PUSH1 0x1 PUSH1 0xA0 SHL SUB SWAP1 SWAP2 AND SWAP1 PUSH4 0x4000AEA0 SWAP1 PUSH2 0xBF1 SWAP1 DUP9 SWAP1 DUP8 SWAP1 DUP8 SWAP1 PUSH1 0x4 ADD PUSH2 0x164C JUMP JUMPDEST PUSH1 0x20 PUSH1 0x40 MLOAD DUP1 DUP4 SUB DUP2 PUSH1 0x0 DUP8 GAS CALL ISZERO DUP1 ISZERO PUSH2 0xC10 JUMPI RETURNDATASIZE PUSH1 0x0 DUP1 RETURNDATACOPY RETURNDATASIZE PUSH1 0x0 REVERT JUMPDEST POP POP POP POP PUSH1 0x40 MLOAD RETURNDATASIZE PUSH1 0x1F NOT PUSH1 0x1F DUP3 ADD AND DUP3 ADD DUP1 PUSH1 0x40 MSTORE POP DUP2 ADD SWAP1 PUSH2 0xC34 SWAP2 SWAP1 PUSH2 0x1562 JUMP JUMPDEST PUSH2 0xB0F JUMPI PUSH1 0x40 MLOAD PUSH3 0x461BCD PUSH1 0xE5 SHL DUP2 MSTORE PUSH1 0x20 PUSH1 0x4 DUP3 ADD MSTORE PUSH1 0x23 PUSH1 0x24 DUP3 ADD MSTORE PUSH32 0x756E61626C6520746F207472616E73666572416E6443616C6C20746F206F7261 PUSH1 0x44 DUP3 ADD MSTORE PUSH3 0x636C65 PUSH1 0xE8 SHL PUSH1 0x64 DUP3 ADD MSTORE PUSH1 0x84 ADD PUSH2 0x81C JUMP JUMPDEST PUSH1 0x40 DUP1 MLOAD DUP1 DUP3 ADD SWAP1 SWAP2 MSTORE PUSH1 0x60 DUP2 MSTORE PUSH1 0x0 PUSH1 0x20 DUP3 ADD MSTORE PUSH2 0xCAC PUSH1 0x20 DUP4 PUSH2 0x1673 JUMP JUMPDEST ISZERO PUSH2 0xCD4 JUMPI PUSH2 0xCBC PUSH1 0x20 DUP4 PUSH2 0x1673 JUMP JUMPDEST PUSH2 0xCC7 SWAP1 PUSH1 0x20 PUSH2 0x1532 JUMP JUMPDEST PUSH2 0xCD1 SWAP1 DUP4 PUSH2 0x15CC JUMP JUMPDEST SWAP2 POP JUMPDEST POP PUSH1 0x20 DUP1 DUP4 ADD DUP3 SWAP1 MSTORE PUSH1 0x40 DUP1 MLOAD DUP1 DUP6 MSTORE PUSH1 0x0 DUP2 MSTORE DUP4 ADD SWAP1 SWAP2 ADD SWAP1 MSTORE DUP2 JUMPDEST SWAP3 SWAP2 POP POP JUMP JUMPDEST PUSH1 0x17 DUP2 PUSH1 0x1 PUSH1 0x1 PUSH1 0x40 SHL SUB AND GT PUSH2 0xD1B JUMPI PUSH2 0x8F1 DUP4 PUSH1 0xE0 PUSH1 0x5 DUP6 SWAP1 SHL AND DUP4 OR PUSH2 0xE2C JUMP JUMPDEST PUSH1 0xFF DUP2 PUSH1 0x1 PUSH1 0x1 PUSH1 0x40 SHL SUB AND GT PUSH2 0xD57 JUMPI PUSH2 0xD41 DUP4 PUSH1 0x18 PUSH2 0x1FE0 PUSH1 0x5 DUP7 SWAP1 SHL AND OR PUSH2 0xE2C JUMP JUMPDEST POP PUSH2 0x8F1 DUP4 PUSH1 0x1 PUSH1 0x1 PUSH1 0x40 SHL SUB DUP4 AND PUSH1 0x1 PUSH2 0xE51 JUMP JUMPDEST PUSH2 0xFFFF DUP2 PUSH1 0x1 PUSH1 0x1 PUSH1 0x40 SHL SUB AND GT PUSH2 0xD94 JUMPI PUSH2 0xD7E DUP4 PUSH1 0x19 PUSH2 0x1FE0 PUSH1 0x5 DUP7 SWAP1 SHL AND OR PUSH2 0xE2C JUMP JUMPDEST POP PUSH2 0x8F1 DUP4 PUSH1 0x1 PUSH1 0x1 PUSH1 0x40 SHL SUB DUP4 AND PUSH1 0x2 PUSH2 0xE51 JUMP JUMPDEST PUSH4 0xFFFFFFFF DUP2 PUSH1 0x1 PUSH1 0x1 PUSH1 0x40 SHL SUB AND GT PUSH2 0xDD3 JUMPI PUSH2 0xDBD DUP4 PUSH1 0x1A PUSH2 0x1FE0 PUSH1 0x5 DUP7 SWAP1 SHL AND OR PUSH2 0xE2C JUMP JUMPDEST POP PUSH2 0x8F1 DUP4 PUSH1 0x1 PUSH1 0x1 PUSH1 0x40 SHL SUB DUP4 AND PUSH1 0x4 PUSH2 0xE51 JUMP JUMPDEST PUSH2 0xDE8 DUP4 PUSH1 0x1B PUSH2 0x1FE0 PUSH1 0x5 DUP7 SWAP1 SHL AND OR PUSH2 0xE2C JUMP JUMPDEST POP PUSH2 0x8F1 DUP4 PUSH1 0x1 PUSH1 0x1 PUSH1 0x40 SHL SUB DUP4 AND PUSH1 0x8 PUSH2 0xE51 JUMP JUMPDEST PUSH1 0x40 DUP1 MLOAD DUP1 DUP3 ADD SWAP1 SWAP2 MSTORE PUSH1 0x60 DUP2 MSTORE PUSH1 0x0 PUSH1 0x20 DUP3 ADD MSTORE PUSH2 0xE25 DUP4 DUP5 PUSH1 0x0 ADD MLOAD MLOAD DUP5 DUP6 MLOAD PUSH2 0xE77 JUMP JUMPDEST SWAP4 SWAP3 POP POP POP JUMP JUMPDEST PUSH1 0x40 DUP1 MLOAD DUP1 DUP3 ADD SWAP1 SWAP2 MSTORE PUSH1 0x60 DUP2 MSTORE PUSH1 0x0 PUSH1 0x20 DUP3 ADD MSTORE PUSH2 0xE25 DUP4 DUP5 PUSH1 0x0 ADD MLOAD MLOAD DUP5 PUSH2 0xF61 JUMP JUMPDEST PUSH1 0x40 DUP1 MLOAD DUP1 DUP3 ADD SWAP1 SWAP2 MSTORE PUSH1 0x60 DUP2 MSTORE PUSH1 0x0 PUSH1 0x20 DUP3 ADD MSTORE PUSH2 0xB0F DUP5 DUP6 PUSH1 0x0 ADD MLOAD MLOAD DUP6 DUP6 PUSH2 0xFBC JUMP JUMPDEST PUSH1 0x40 DUP1 MLOAD DUP1 DUP3 ADD SWAP1 SWAP2 MSTORE PUSH1 0x60 DUP2 MSTORE PUSH1 0x0 PUSH1 0x20 DUP3 ADD MSTORE DUP3 MLOAD DUP3 GT ISZERO PUSH2 0xE9A JUMPI PUSH1 0x0 DUP1 REVERT JUMPDEST PUSH1 0x20 DUP6 ADD MLOAD PUSH2 0xEA9 DUP4 DUP7 PUSH2 0x15CC JUMP JUMPDEST GT ISZERO PUSH2 0xEDC JUMPI PUSH2 0xEDC DUP6 PUSH2 0xECC DUP8 PUSH1 0x20 ADD MLOAD DUP8 DUP7 PUSH2 0xEC7 SWAP2 SWAP1 PUSH2 0x15CC JUMP JUMPDEST PUSH2 0x103D JUMP JUMPDEST PUSH2 0xED7 SWAP1 PUSH1 0x2 PUSH2 0x1695 JUMP JUMPDEST PUSH2 0x1054 JUMP JUMPDEST PUSH1 0x0 DUP1 DUP7 MLOAD DUP1 MLOAD DUP8 PUSH1 0x20 DUP4 ADD ADD SWAP4 POP DUP1 DUP9 DUP8 ADD GT ISZERO PUSH2 0xEFB JUMPI DUP8 DUP7 ADD DUP3 MSTORE JUMPDEST POP POP POP PUSH1 0x20 DUP5 ADD JUMPDEST PUSH1 0x20 DUP5 LT PUSH2 0xF3B JUMPI DUP1 MLOAD DUP3 MSTORE PUSH2 0xF1A PUSH1 0x20 DUP4 PUSH2 0x15CC JUMP JUMPDEST SWAP2 POP PUSH2 0xF27 PUSH1 0x20 DUP3 PUSH2 0x15CC JUMP JUMPDEST SWAP1 POP PUSH2 0xF34 PUSH1 0x20 DUP6 PUSH2 0x1532 JUMP JUMPDEST SWAP4 POP PUSH2 0xF03 JUMP JUMPDEST MLOAD DUP2 MLOAD PUSH1 0x0 NOT PUSH1 0x20 DUP7 SWAP1 SUB PUSH2 0x100 EXP ADD SWAP1 DUP2 AND SWAP1 NOT SWAP2 SWAP1 SWAP2 AND OR SWAP1 MSTORE POP DUP4 SWAP5 SWAP4 POP POP POP POP JUMP JUMPDEST PUSH1 0x40 DUP1 MLOAD DUP1 DUP3 ADD SWAP1 SWAP2 MSTORE PUSH1 0x60 DUP2 MSTORE PUSH1 0x0 PUSH1 0x20 DUP3 ADD MSTORE DUP4 PUSH1 0x20 ADD MLOAD DUP4 LT PUSH2 0xF96 JUMPI PUSH2 0xF96 DUP5 DUP6 PUSH1 0x20 ADD MLOAD PUSH1 0x2 PUSH2 0xED7 SWAP2 SWAP1 PUSH2 0x1695 JUMP JUMPDEST DUP4 MLOAD DUP1 MLOAD PUSH1 0x20 DUP6 DUP4 ADD ADD DUP5 DUP2 MSTORE8 POP DUP1 DUP6 SUB PUSH2 0xFB2 JUMPI PUSH1 0x1 DUP2 ADD DUP3 MSTORE JUMPDEST POP SWAP4 SWAP5 SWAP4 POP POP POP POP JUMP JUMPDEST PUSH1 0x40 DUP1 MLOAD DUP1 DUP3 ADD SWAP1 SWAP2 MSTORE PUSH1 0x60 DUP2 MSTORE PUSH1 0x0 PUSH1 0x20 DUP3 ADD MSTORE PUSH1 0x20 DUP6 ADD MLOAD PUSH2 0xFE0 DUP6 DUP5 PUSH2 0x15CC JUMP JUMPDEST GT ISZERO PUSH2 0xFF4 JUMPI PUSH2 0xFF4 DUP6 PUSH2 0xECC DUP7 DUP6 PUSH2 0x15CC JUMP JUMPDEST PUSH1 0x0 PUSH1 0x1 PUSH2 0x1004 DUP5 PUSH2 0x100 PUSH2 0x1798 JUMP JUMPDEST PUSH2 0x100E SWAP2 SWAP1 PUSH2 0x1532 JUMP JUMPDEST SWAP1 POP DUP6 MLOAD DUP4 DUP7 DUP3 ADD ADD DUP6 DUP4 NOT DUP3 MLOAD AND OR DUP2 MSTORE POP DUP1 MLOAD DUP5 DUP8 ADD GT ISZERO PUSH2 0x1032 JUMPI DUP4 DUP7 ADD DUP2 MSTORE JUMPDEST POP SWAP5 SWAP6 SWAP5 POP POP POP POP POP JUMP JUMPDEST PUSH1 0x0 DUP2 DUP4 GT ISZERO PUSH2 0x104E JUMPI POP DUP2 PUSH2 0xCF1 JUMP JUMPDEST POP SWAP2 SWAP1 POP JUMP JUMPDEST DUP2 MLOAD PUSH2 0x1060 DUP4 DUP4 PUSH2 0xC8C JUMP JUMPDEST POP PUSH2 0x8F1 DUP4 DUP3 PUSH2 0xDFE JUMP JUMPDEST DUP3 DUP1 SLOAD PUSH2 0x1077 SWAP1 PUSH2 0x1477 JUMP JUMPDEST SWAP1 PUSH1 0x0 MSTORE PUSH1 0x20 PUSH1 0x0 KECCAK256 SWAP1 PUSH1 0x1F ADD PUSH1 0x20 SWAP1 DIV DUP2 ADD SWAP3 DUP3 PUSH2 0x1099 JUMPI PUSH1 0x0 DUP6 SSTORE PUSH2 0x10DF JUMP JUMPDEST DUP3 PUSH1 0x1F LT PUSH2 0x10B2 JUMPI DUP1 MLOAD PUSH1 0xFF NOT AND DUP4 DUP1 ADD OR DUP6 SSTORE PUSH2 0x10DF JUMP JUMPDEST DUP3 DUP1 ADD PUSH1 0x1 ADD DUP6 SSTORE DUP3 ISZERO PUSH2 0x10DF JUMPI SWAP2 DUP3 ADD JUMPDEST DUP3 DUP2 GT ISZERO PUSH2 0x10DF JUMPI DUP3 MLOAD DUP3 SSTORE SWAP2 PUSH1 0x20 ADD SWAP2 SWAP1 PUSH1 0x1 ADD SWAP1 PUSH2 0x10C4 JUMP JUMPDEST POP PUSH2 0x10EB SWAP3 SWAP2 POP PUSH2 0x112A JUMP JUMPDEST POP SWAP1 JUMP JUMPDEST PUSH1 0x40 DUP1 MLOAD PUSH1 0xA0 DUP2 ADD DUP3 MSTORE PUSH1 0x0 DUP1 DUP3 MSTORE PUSH1 0x20 DUP1 DUP4 ADD DUP3 SWAP1 MSTORE DUP3 DUP5 ADD DUP3 SWAP1 MSTORE PUSH1 0x60 DUP1 DUP5 ADD DUP4 SWAP1 MSTORE DUP5 MLOAD DUP1 DUP7 ADD SWAP1 SWAP6 MSTORE DUP5 MSTORE DUP4 ADD MSTORE SWAP1 PUSH1 0x80 DUP3 ADD MSTORE SWAP1 JUMP JUMPDEST JUMPDEST DUP1 DUP3 GT ISZERO PUSH2 0x10EB JUMPI PUSH1 0x0 DUP2 SSTORE PUSH1 0x1 ADD PUSH2 0x112B JUMP JUMPDEST PUSH4 0x4E487B71 PUSH1 0xE0 SHL PUSH1 0x0 MSTORE PUSH1 0x41 PUSH1 0x4 MSTORE PUSH1 0x24 PUSH1 0x0 REVERT JUMPDEST PUSH1 0x0 PUSH1 0x1 PUSH1 0x1 PUSH1 0x40 SHL SUB DUP1 DUP5 GT ISZERO PUSH2 0x116F JUMPI PUSH2 0x116F PUSH2 0x113F JUMP JUMPDEST PUSH1 0x40 MLOAD PUSH1 0x1F DUP6 ADD PUSH1 0x1F NOT SWAP1 DUP2 AND PUSH1 0x3F ADD AND DUP2 ADD SWAP1 DUP3 DUP3 GT DUP2 DUP4 LT OR ISZERO PUSH2 0x1197 JUMPI PUSH2 0x1197 PUSH2 0x113F JUMP JUMPDEST DUP2 PUSH1 0x40 MSTORE DUP1 SWAP4 POP DUP6 DUP2 MSTORE DUP7 DUP7 DUP7 ADD GT ISZERO PUSH2 0x11B0 JUMPI PUSH1 0x0 DUP1 REVERT JUMPDEST DUP6 DUP6 PUSH1 0x20 DUP4 ADD CALLDATACOPY PUSH1 0x0 PUSH1 0x20 DUP8 DUP4 ADD ADD MSTORE POP POP POP SWAP4 SWAP3 POP POP POP JUMP JUMPDEST PUSH1 0x0 DUP3 PUSH1 0x1F DUP4 ADD SLT PUSH2 0x11DB JUMPI PUSH1 0x0 DUP1 REVERT JUMPDEST PUSH2 0xE25 DUP4 DUP4 CALLDATALOAD PUSH1 0x20 DUP6 ADD PUSH2 0x1155 JUMP JUMPDEST PUSH1 0x0 DUP1 PUSH1 0x0 DUP1 PUSH1 0x0 PUSH1 0xA0 DUP7 DUP9 SUB SLT ISZERO PUSH2 0x1202 JUMPI PUSH1 0x0 DUP1 REVERT JUMPDEST DUP6 CALLDATALOAD PUSH1 0x1 PUSH1 0x1 PUSH1 0x40 SHL SUB DUP1 DUP3 GT ISZERO PUSH2 0x1219 JUMPI PUSH1 0x0 DUP1 REVERT JUMPDEST PUSH2 0x1225 DUP10 DUP4 DUP11 ADD PUSH2 0x11CA JUMP JUMPDEST SWAP7 POP PUSH1 0x20 DUP9 ADD CALLDATALOAD SWAP2 POP DUP1 DUP3 GT ISZERO PUSH2 0x123B JUMPI PUSH1 0x0 DUP1 REVERT JUMPDEST PUSH2 0x1247 DUP10 DUP4 DUP11 ADD PUSH2 0x11CA JUMP JUMPDEST SWAP6 POP PUSH1 0x40 DUP9 ADD CALLDATALOAD SWAP2 POP DUP1 DUP3 GT ISZERO PUSH2 0x125D JUMPI PUSH1 0x0 DUP1 REVERT JUMPDEST PUSH2 0x1269 DUP10 DUP4 DUP11 ADD PUSH2 0x11CA JUMP JUMPDEST SWAP5 POP PUSH1 0x60 DUP9 ADD CALLDATALOAD SWAP2 POP DUP1 DUP3 GT ISZERO PUSH2 0x127F JUMPI PUSH1 0x0 DUP1 REVERT JUMPDEST PUSH2 0x128B DUP10 DUP4 DUP11 ADD PUSH2 0x11CA JUMP JUMPDEST SWAP4 POP PUSH1 0x80 DUP9 ADD CALLDATALOAD SWAP2 POP DUP1 DUP3 GT ISZERO PUSH2 0x12A1 JUMPI PUSH1 0x0 DUP1 REVERT JUMPDEST POP PUSH2 0x12AE DUP9 DUP3 DUP10 ADD PUSH2 0x11CA JUMP JUMPDEST SWAP2 POP POP SWAP3 SWAP6 POP SWAP3 SWAP6 SWAP1 SWAP4 POP JUMP JUMPDEST PUSH1 0x0 DUP1 PUSH1 0x20 DUP4 DUP6 SUB SLT ISZERO PUSH2 0x12CE JUMPI PUSH1 0x0 DUP1 REVERT JUMPDEST DUP3 CALLDATALOAD PUSH1 0x1 PUSH1 0x1 PUSH1 0x40 SHL SUB DUP1 DUP3 GT ISZERO PUSH2 0x12E5 JUMPI PUSH1 0x0 DUP1 REVERT JUMPDEST DUP2 DUP6 ADD SWAP2 POP DUP6 PUSH1 0x1F DUP4 ADD SLT PUSH2 0x12F9 JUMPI PUSH1 0x0 DUP1 REVERT JUMPDEST DUP2 CALLDATALOAD DUP2 DUP2 GT ISZERO PUSH2 0x1308 JUMPI PUSH1 0x0 DUP1 REVERT JUMPDEST DUP7 PUSH1 0x20 DUP3 DUP6 ADD ADD GT ISZERO PUSH2 0x131A JUMPI PUSH1 0x0 DUP1 REVERT JUMPDEST PUSH1 0x20 SWAP3 SWAP1 SWAP3 ADD SWAP7 SWAP2 SWAP6 POP SWAP1 SWAP4 POP POP POP POP JUMP JUMPDEST PUSH1 0x0 PUSH1 0x20 DUP3 DUP5 SUB SLT ISZERO PUSH2 0x133E JUMPI PUSH1 0x0 DUP1 REVERT JUMPDEST DUP2 CALLDATALOAD PUSH1 0x1 PUSH1 0x1 PUSH1 0xA0 SHL SUB DUP2 AND DUP2 EQ PUSH2 0xE25 JUMPI PUSH1 0x0 DUP1 REVERT JUMPDEST PUSH1 0x0 PUSH1 0x20 DUP3 DUP5 SUB SLT ISZERO PUSH2 0x1367 JUMPI PUSH1 0x0 DUP1 REVERT JUMPDEST POP CALLDATALOAD SWAP2 SWAP1 POP JUMP JUMPDEST PUSH1 0x0 DUP2 MLOAD DUP1 DUP5 MSTORE PUSH1 0x0 JUMPDEST DUP2 DUP2 LT ISZERO PUSH2 0x1394 JUMPI PUSH1 0x20 DUP2 DUP6 ADD DUP2 ADD MLOAD DUP7 DUP4 ADD DUP3 ADD MSTORE ADD PUSH2 0x1378 JUMP JUMPDEST DUP2 DUP2 GT ISZERO PUSH2 0x13A6 JUMPI PUSH1 0x0 PUSH1 0x20 DUP4 DUP8 ADD ADD MSTORE JUMPDEST POP PUSH1 0x1F ADD PUSH1 0x1F NOT AND SWAP3 SWAP1 SWAP3 ADD PUSH1 0x20 ADD SWAP3 SWAP2 POP POP JUMP JUMPDEST PUSH1 0x20 DUP2 MSTORE PUSH1 0x0 PUSH2 0xE25 PUSH1 0x20 DUP4 ADD DUP5 PUSH2 0x136E JUMP JUMPDEST DUP3 ISZERO ISZERO DUP2 MSTORE PUSH1 0x40 PUSH1 0x20 DUP3 ADD MSTORE PUSH1 0x0 PUSH2 0xB0F PUSH1 0x40 DUP4 ADD DUP5 PUSH2 0x136E JUMP JUMPDEST PUSH1 0x0 PUSH1 0x20 DUP3 DUP5 SUB SLT ISZERO PUSH2 0x13FB JUMPI PUSH1 0x0 DUP1 REVERT JUMPDEST DUP2 CALLDATALOAD PUSH1 0x1 PUSH1 0x1 PUSH1 0x40 SHL SUB DUP2 GT ISZERO PUSH2 0x1411 JUMPI PUSH1 0x0 DUP1 REVERT JUMPDEST PUSH2 0xB0F DUP5 DUP3 DUP6 ADD PUSH2 0x11CA JUMP JUMPDEST PUSH1 0x0 DUP1 PUSH1 0x40 DUP4 DUP6 SUB SLT ISZERO PUSH2 0x1430 JUMPI PUSH1 0x0 DUP1 REVERT JUMPDEST DUP3 CALLDATALOAD SWAP2 POP PUSH1 0x20 DUP4 ADD CALLDATALOAD PUSH1 0x1 PUSH1 0x1 PUSH1 0x40 SHL SUB DUP2 GT ISZERO PUSH2 0x144D JUMPI PUSH1 0x0 DUP1 REVERT JUMPDEST DUP4 ADD PUSH1 0x1F DUP2 ADD DUP6 SGT PUSH2 0x145E JUMPI PUSH1 0x0 DUP1 REVERT JUMPDEST PUSH2 0x146D DUP6 DUP3 CALLDATALOAD PUSH1 0x20 DUP5 ADD PUSH2 0x1155 JUMP JUMPDEST SWAP2 POP POP SWAP3 POP SWAP3 SWAP1 POP JUMP JUMPDEST PUSH1 0x1 DUP2 DUP2 SHR SWAP1 DUP3 AND DUP1 PUSH2 0x148B JUMPI PUSH1 0x7F DUP3 AND SWAP2 POP JUMPDEST PUSH1 0x20 DUP3 LT DUP2 SUB PUSH2 0x104E JUMPI PUSH4 0x4E487B71 PUSH1 0xE0 SHL PUSH1 0x0 MSTORE PUSH1 0x22 PUSH1 0x4 MSTORE PUSH1 0x24 PUSH1 0x0 REVERT JUMPDEST DUP1 SLOAD PUSH1 0x0 SWAP1 PUSH1 0x1 DUP1 DUP3 AND SWAP2 SWAP1 SHR DUP2 PUSH2 0x14C1 JUMPI PUSH1 0x7F AND JUMPDEST PUSH1 0x20 DUP2 LT DUP1 DUP4 SUB PUSH2 0x14E2 JUMPI PUSH4 0x4E487B71 PUSH1 0xE0 SHL PUSH1 0x0 MSTORE PUSH1 0x22 PUSH1 0x4 MSTORE PUSH1 0x24 PUSH1 0x0 REVERT JUMPDEST DUP5 SWAP3 POP PUSH1 0x1F DUP3 GT ISZERO PUSH2 0x14FA JUMPI DUP5 PUSH1 0x0 MSTORE PUSH1 0x20 PUSH1 0x0 KECCAK256 SWAP3 POP JUMPDEST DUP3 SLOAD SWAP4 POP DUP1 ISZERO PUSH2 0x1514 JUMPI PUSH1 0x0 NOT DUP3 PUSH1 0x20 SUB PUSH1 0x3 SHL SHL DUP5 AND SWAP4 POP JUMPDEST POP POP POP SWAP2 SWAP1 POP JUMP JUMPDEST PUSH4 0x4E487B71 PUSH1 0xE0 SHL PUSH1 0x0 MSTORE PUSH1 0x11 PUSH1 0x4 MSTORE PUSH1 0x24 PUSH1 0x0 REVERT JUMPDEST PUSH1 0x0 DUP3 DUP3 LT ISZERO PUSH2 0x1544 JUMPI PUSH2 0x1544 PUSH2 0x151C JUMP JUMPDEST POP SUB SWAP1 JUMP JUMPDEST PUSH1 0x0 PUSH1 0x20 DUP3 DUP5 SUB SLT ISZERO PUSH2 0x155B JUMPI PUSH1 0x0 DUP1 REVERT JUMPDEST POP MLOAD SWAP2 SWAP1 POP JUMP JUMPDEST PUSH1 0x0 PUSH1 0x20 DUP3 DUP5 SUB SLT ISZERO PUSH2 0x1574 JUMPI PUSH1 0x0 DUP1 REVERT JUMPDEST DUP2 MLOAD DUP1 ISZERO ISZERO DUP2 EQ PUSH2 0xE25 JUMPI PUSH1 0x0 DUP1 REVERT JUMPDEST PUSH1 0x20 DUP1 DUP3 MSTORE PUSH1 0x28 SWAP1 DUP3 ADD MSTORE PUSH32 0x536F75726365206D75737420626520746865206F7261636C65206F6620746865 PUSH1 0x40 DUP3 ADD MSTORE PUSH8 0x81C995C5D595CDD PUSH1 0xC2 SHL PUSH1 0x60 DUP3 ADD MSTORE PUSH1 0x80 ADD SWAP1 JUMP JUMPDEST PUSH1 0x0 DUP3 NOT DUP3 GT ISZERO PUSH2 0x15DF JUMPI PUSH2 0x15DF PUSH2 0x151C JUMP JUMPDEST POP ADD SWAP1 JUMP JUMPDEST PUSH1 0x1 PUSH1 0x1 PUSH1 0xA0 SHL SUB DUP10 DUP2 AND DUP3 MSTORE PUSH1 0x20 DUP3 ADD DUP10 SWAP1 MSTORE PUSH1 0x40 DUP3 ADD DUP9 SWAP1 MSTORE DUP7 AND PUSH1 0x60 DUP3 ADD MSTORE PUSH1 0x1 PUSH1 0x1 PUSH1 0xE0 SHL SUB NOT DUP6 AND PUSH1 0x80 DUP3 ADD MSTORE PUSH1 0xA0 DUP2 ADD DUP5 SWAP1 MSTORE PUSH1 0xC0 DUP2 ADD DUP4 SWAP1 MSTORE PUSH2 0x100 PUSH1 0xE0 DUP3 ADD DUP2 SWAP1 MSTORE PUSH1 0x0 SWAP1 PUSH2 0x163D DUP4 DUP3 ADD DUP6 PUSH2 0x136E JUMP JUMPDEST SWAP12 SWAP11 POP POP POP POP POP POP POP POP POP POP POP JUMP JUMPDEST PUSH1 0x1 DUP1 PUSH1 0xA0 SHL SUB DUP5 AND DUP2 MSTORE DUP3 PUSH1 0x20 DUP3 ADD MSTORE PUSH1 0x60 PUSH1 0x40 DUP3 ADD MSTORE PUSH1 0x0 PUSH2 0xA17 PUSH1 0x60 DUP4 ADD DUP5 PUSH2 0x136E JUMP JUMPDEST PUSH1 0x0 DUP3 PUSH2 0x1690 JUMPI PUSH4 0x4E487B71 PUSH1 0xE0 SHL PUSH1 0x0 MSTORE PUSH1 0x12 PUSH1 0x4 MSTORE PUSH1 0x24 PUSH1 0x0 REVERT JUMPDEST POP MOD SWAP1 JUMP JUMPDEST PUSH1 0x0 DUP2 PUSH1 0x0 NOT DIV DUP4 GT DUP3 ISZERO ISZERO AND ISZERO PUSH2 0x16AF JUMPI PUSH2 0x16AF PUSH2 0x151C JUMP JUMPDEST POP MUL SWAP1 JUMP JUMPDEST PUSH1 0x1 DUP2 DUP2 JUMPDEST DUP1 DUP6 GT ISZERO PUSH2 0x16EF JUMPI DUP2 PUSH1 0x0 NOT DIV DUP3 GT ISZERO PUSH2 0x16D5 JUMPI PUSH2 0x16D5 PUSH2 0x151C JUMP JUMPDEST DUP1 DUP6 AND ISZERO PUSH2 0x16E2 JUMPI SWAP2 DUP2 MUL SWAP2 JUMPDEST SWAP4 DUP5 SHR SWAP4 SWAP1 DUP1 MUL SWAP1 PUSH2 0x16B9 JUMP JUMPDEST POP SWAP3 POP SWAP3 SWAP1 POP JUMP JUMPDEST PUSH1 0x0 DUP3 PUSH2 0x1706 JUMPI POP PUSH1 0x1 PUSH2 0xCF1 JUMP JUMPDEST DUP2 PUSH2 0x1713 JUMPI POP PUSH1 0x0 PUSH2 0xCF1 JUMP JUMPDEST DUP2 PUSH1 0x1 DUP2 EQ PUSH2 0x1729 JUMPI PUSH1 0x2 DUP2 EQ PUSH2 0x1733 JUMPI PUSH2 0x174F JUMP JUMPDEST PUSH1 0x1 SWAP2 POP POP PUSH2 0xCF1 JUMP JUMPDEST PUSH1 0xFF DUP5 GT ISZERO PUSH2 0x1744 JUMPI PUSH2 0x1744 PUSH2 0x151C JUMP JUMPDEST POP POP PUSH1 0x1 DUP3 SHL PUSH2 0xCF1 JUMP JUMPDEST POP PUSH1 0x20 DUP4 LT PUSH2 0x133 DUP4 LT AND PUSH1 0x4E DUP5 LT PUSH1 0xB DUP5 LT AND OR ISZERO PUSH2 0x1772 JUMPI POP DUP2 DUP2 EXP PUSH2 0xCF1 JUMP JUMPDEST PUSH2 0x177C DUP4 DUP4 PUSH2 0x16B4 JUMP JUMPDEST DUP1 PUSH1 0x0 NOT DIV DUP3 GT ISZERO PUSH2 0x1790 JUMPI PUSH2 0x1790 PUSH2 0x151C JUMP JUMPDEST MUL SWAP4 SWAP3 POP POP POP JUMP JUMPDEST PUSH1 0x0 PUSH2 0xE25 DUP4 DUP4 PUSH2 0x16F7 JUMP INVALID LOG2 PUSH5 0x6970667358 0x22 SLT KECCAK256 0x5E 0xAA 0xBF 0xAA 0xD3 DUP2 CODECOPY SWAP9 MLOAD 0xC8 DUP6 PUSH16 0x4A601ACC36389C3C100B4CCE0C9AAC27 0xB7 DUP6 0x4B EXTCODESIZE PUSH5 0x736F6C6343 STOP ADDMOD 0xD STOP CALLER "},"methodIdentifiers":{"chainlinkContract()":"caf89f89","changeJobId(string)":"9063e216","changeOracle(address)":"47c421b5","checkUpkeep(bytes)":"6e04ff0d","disableKeeper()":"eb4d1939","doRequest(string,string,string,string,string)":"454fa6e1","enableKeeper()":"ed5df9dd","fee()":"ddca3f43","fulfillBytes(bytes32,bytes)":"c2fb8523","fulfillYoyInflation(bytes32,bytes)":"bb694f16","getChainlinkToken()":"165d35e1","interval()":"947a36fb","jobId()":"c2939d97","lastTimeStamp()":"3f3b3b27","oracleId()":"2121778d","owner()":"8da5cb5b","performUpkeep(bytes)":"4585e33b","requestYoyInflation()":"72582c8d","result()":"65372147","results(bytes32)":"4c6b25b1","withdrawLink()":"8dc654a2","yoyInflation()":"af5d945b"}}}}}