{
  "_format": "hh-sol-artifact-1",
  "contractName": "PredictionMarket",
  "sourceName": "contracts/PredictionMarket.sol",
  "abi": [
    {
      "inputs": [],
      "stateMutability": "nonpayable",
      "type": "constructor"
    },
    {
      "anonymous": false,
      "inputs": [
        {
          "indexed": true,
          "internalType": "address",
          "name": "owner",
          "type": "address"
        },
        {
          "indexed": true,
          "internalType": "address",
          "name": "approved",
          "type": "address"
        },
        {
          "indexed": true,
          "internalType": "uint256",
          "name": "tokenId",
          "type": "uint256"
        }
      ],
      "name": "Approval",
      "type": "event"
    },
    {
      "anonymous": false,
      "inputs": [
        {
          "indexed": true,
          "internalType": "address",
          "name": "owner",
          "type": "address"
        },
        {
          "indexed": true,
          "internalType": "address",
          "name": "operator",
          "type": "address"
        },
        {
          "indexed": false,
          "internalType": "bool",
          "name": "approved",
          "type": "bool"
        }
      ],
      "name": "ApprovalForAll",
      "type": "event"
    },
    {
      "anonymous": false,
      "inputs": [
        {
          "indexed": false,
          "internalType": "uint256",
          "name": "_fromTokenId",
          "type": "uint256"
        },
        {
          "indexed": false,
          "internalType": "uint256",
          "name": "_toTokenId",
          "type": "uint256"
        }
      ],
      "name": "BatchMetadataUpdate",
      "type": "event"
    },
    {
      "anonymous": false,
      "inputs": [
        {
          "indexed": false,
          "internalType": "address",
          "name": "priceFeed",
          "type": "address"
        },
        {
          "indexed": false,
          "internalType": "int256",
          "name": "strikePrice",
          "type": "int256"
        },
        {
          "indexed": false,
          "internalType": "uint256",
          "name": "expiry",
          "type": "uint256"
        },
        {
          "indexed": false,
          "internalType": "uint256",
          "name": "collateral",
          "type": "uint256"
        },
        {
          "indexed": false,
          "internalType": "uint256",
          "name": "marketId",
          "type": "uint256"
        },
        {
          "indexed": false,
          "internalType": "uint256",
          "name": "overPredictionId",
          "type": "uint256"
        },
        {
          "indexed": false,
          "internalType": "uint256",
          "name": "underPredictionId",
          "type": "uint256"
        }
      ],
      "name": "MarketCreated",
      "type": "event"
    },
    {
      "anonymous": false,
      "inputs": [
        {
          "indexed": false,
          "internalType": "uint256",
          "name": "_tokenId",
          "type": "uint256"
        }
      ],
      "name": "MetadataUpdate",
      "type": "event"
    },
    {
      "anonymous": false,
      "inputs": [
        {
          "indexed": true,
          "internalType": "address",
          "name": "from",
          "type": "address"
        },
        {
          "indexed": true,
          "internalType": "address",
          "name": "to",
          "type": "address"
        },
        {
          "indexed": true,
          "internalType": "uint256",
          "name": "tokenId",
          "type": "uint256"
        }
      ],
      "name": "Transfer",
      "type": "event"
    },
    {
      "inputs": [
        {
          "internalType": "address",
          "name": "to",
          "type": "address"
        },
        {
          "internalType": "uint256",
          "name": "tokenId",
          "type": "uint256"
        }
      ],
      "name": "approve",
      "outputs": [],
      "stateMutability": "nonpayable",
      "type": "function"
    },
    {
      "inputs": [
        {
          "internalType": "address",
          "name": "owner",
          "type": "address"
        }
      ],
      "name": "balanceOf",
      "outputs": [
        {
          "internalType": "uint256",
          "name": "",
          "type": "uint256"
        }
      ],
      "stateMutability": "view",
      "type": "function"
    },
    {
      "inputs": [
        {
          "components": [
            {
              "internalType": "address",
              "name": "priceFeed",
              "type": "address"
            },
            {
              "internalType": "int256",
              "name": "strikePrice",
              "type": "int256"
            },
            {
              "internalType": "uint256",
              "name": "expiry",
              "type": "uint256"
            },
            {
              "internalType": "uint256",
              "name": "collateral",
              "type": "uint256"
            },
            {
              "internalType": "string",
              "name": "ipfsOver",
              "type": "string"
            },
            {
              "internalType": "string",
              "name": "ipfsUnder",
              "type": "string"
            }
          ],
          "internalType": "struct PredictionMarket.Market",
          "name": "market",
          "type": "tuple"
        }
      ],
      "name": "createMarket",
      "outputs": [
        {
          "internalType": "uint256",
          "name": "",
          "type": "uint256"
        },
        {
          "internalType": "uint256",
          "name": "",
          "type": "uint256"
        },
        {
          "internalType": "uint256",
          "name": "",
          "type": "uint256"
        }
      ],
      "stateMutability": "payable",
      "type": "function"
    },
    {
      "inputs": [
        {
          "components": [
            {
              "internalType": "address",
              "name": "priceFeed",
              "type": "address"
            },
            {
              "internalType": "int256",
              "name": "strikePrice",
              "type": "int256"
            },
            {
              "internalType": "uint256",
              "name": "expiry",
              "type": "uint256"
            },
            {
              "internalType": "uint256",
              "name": "collateral",
              "type": "uint256"
            },
            {
              "internalType": "string",
              "name": "ipfsOver",
              "type": "string"
            },
            {
              "internalType": "string",
              "name": "ipfsUnder",
              "type": "string"
            }
          ],
          "internalType": "struct PredictionMarket.Market",
          "name": "market",
          "type": "tuple"
        },
        {
          "internalType": "bool",
          "name": "over",
          "type": "bool"
        },
        {
          "internalType": "uint256",
          "name": "listPrice",
          "type": "uint256"
        },
        {
          "internalType": "uint256",
          "name": "endTime",
          "type": "uint256"
        },
        {
          "internalType": "int256",
          "name": "tresholdPrice",
          "type": "int256"
        }
      ],
      "name": "createMarketWithPosition",
      "outputs": [
        {
          "internalType": "uint256",
          "name": "",
          "type": "uint256"
        },
        {
          "internalType": "uint256",
          "name": "",
          "type": "uint256"
        },
        {
          "internalType": "uint256",
          "name": "",
          "type": "uint256"
        }
      ],
      "stateMutability": "payable",
      "type": "function"
    },
    {
      "inputs": [],
      "name": "currentMarketId",
      "outputs": [
        {
          "internalType": "uint256",
          "name": "",
          "type": "uint256"
        }
      ],
      "stateMutability": "view",
      "type": "function"
    },
    {
      "inputs": [],
      "name": "currentPredictionId",
      "outputs": [
        {
          "internalType": "uint256",
          "name": "",
          "type": "uint256"
        }
      ],
      "stateMutability": "view",
      "type": "function"
    },
    {
      "inputs": [],
      "name": "deployer",
      "outputs": [
        {
          "internalType": "address",
          "name": "",
          "type": "address"
        }
      ],
      "stateMutability": "view",
      "type": "function"
    },
    {
      "inputs": [],
      "name": "exchangeAddress",
      "outputs": [
        {
          "internalType": "address",
          "name": "",
          "type": "address"
        }
      ],
      "stateMutability": "view",
      "type": "function"
    },
    {
      "inputs": [
        {
          "internalType": "uint256",
          "name": "id",
          "type": "uint256"
        }
      ],
      "name": "exercise",
      "outputs": [],
      "stateMutability": "nonpayable",
      "type": "function"
    },
    {
      "inputs": [
        {
          "internalType": "uint256",
          "name": "tokenId",
          "type": "uint256"
        }
      ],
      "name": "getApproved",
      "outputs": [
        {
          "internalType": "address",
          "name": "",
          "type": "address"
        }
      ],
      "stateMutability": "view",
      "type": "function"
    },
    {
      "inputs": [
        {
          "internalType": "uint256",
          "name": "id",
          "type": "uint256"
        }
      ],
      "name": "getMarket",
      "outputs": [
        {
          "components": [
            {
              "internalType": "address",
              "name": "priceFeed",
              "type": "address"
            },
            {
              "internalType": "int256",
              "name": "strikePrice",
              "type": "int256"
            },
            {
              "internalType": "uint256",
              "name": "expiry",
              "type": "uint256"
            },
            {
              "internalType": "uint256",
              "name": "collateral",
              "type": "uint256"
            },
            {
              "internalType": "string",
              "name": "ipfsOver",
              "type": "string"
            },
            {
              "internalType": "string",
              "name": "ipfsUnder",
              "type": "string"
            }
          ],
          "internalType": "struct PredictionMarket.Market",
          "name": "",
          "type": "tuple"
        }
      ],
      "stateMutability": "view",
      "type": "function"
    },
    {
      "inputs": [
        {
          "internalType": "uint256",
          "name": "id",
          "type": "uint256"
        }
      ],
      "name": "getPrediction",
      "outputs": [
        {
          "components": [
            {
              "components": [
                {
                  "internalType": "address",
                  "name": "priceFeed",
                  "type": "address"
                },
                {
                  "internalType": "int256",
                  "name": "strikePrice",
                  "type": "int256"
                },
                {
                  "internalType": "uint256",
                  "name": "expiry",
                  "type": "uint256"
                },
                {
                  "internalType": "uint256",
                  "name": "collateral",
                  "type": "uint256"
                },
                {
                  "internalType": "string",
                  "name": "ipfsOver",
                  "type": "string"
                },
                {
                  "internalType": "string",
                  "name": "ipfsUnder",
                  "type": "string"
                }
              ],
              "internalType": "struct PredictionMarket.Market",
              "name": "market",
              "type": "tuple"
            },
            {
              "internalType": "bool",
              "name": "over",
              "type": "bool"
            },
            {
              "internalType": "uint256",
              "name": "id",
              "type": "uint256"
            }
          ],
          "internalType": "struct PredictionMarket.Prediction",
          "name": "",
          "type": "tuple"
        }
      ],
      "stateMutability": "view",
      "type": "function"
    },
    {
      "inputs": [],
      "name": "getPredictions",
      "outputs": [
        {
          "components": [
            {
              "components": [
                {
                  "internalType": "address",
                  "name": "priceFeed",
                  "type": "address"
                },
                {
                  "internalType": "int256",
                  "name": "strikePrice",
                  "type": "int256"
                },
                {
                  "internalType": "uint256",
                  "name": "expiry",
                  "type": "uint256"
                },
                {
                  "internalType": "uint256",
                  "name": "collateral",
                  "type": "uint256"
                },
                {
                  "internalType": "string",
                  "name": "ipfsOver",
                  "type": "string"
                },
                {
                  "internalType": "string",
                  "name": "ipfsUnder",
                  "type": "string"
                }
              ],
              "internalType": "struct PredictionMarket.Market",
              "name": "market",
              "type": "tuple"
            },
            {
              "internalType": "bool",
              "name": "over",
              "type": "bool"
            },
            {
              "internalType": "uint256",
              "name": "id",
              "type": "uint256"
            }
          ],
          "internalType": "struct PredictionMarket.Prediction[]",
          "name": "",
          "type": "tuple[]"
        }
      ],
      "stateMutability": "view",
      "type": "function"
    },
    {
      "inputs": [
        {
          "internalType": "address",
          "name": "account",
          "type": "address"
        }
      ],
      "name": "getPredictionsByAccount",
      "outputs": [
        {
          "components": [
            {
              "components": [
                {
                  "internalType": "address",
                  "name": "priceFeed",
                  "type": "address"
                },
                {
                  "internalType": "int256",
                  "name": "strikePrice",
                  "type": "int256"
                },
                {
                  "internalType": "uint256",
                  "name": "expiry",
                  "type": "uint256"
                },
                {
                  "internalType": "uint256",
                  "name": "collateral",
                  "type": "uint256"
                },
                {
                  "internalType": "string",
                  "name": "ipfsOver",
                  "type": "string"
                },
                {
                  "internalType": "string",
                  "name": "ipfsUnder",
                  "type": "string"
                }
              ],
              "internalType": "struct PredictionMarket.Market",
              "name": "market",
              "type": "tuple"
            },
            {
              "internalType": "bool",
              "name": "over",
              "type": "bool"
            },
            {
              "internalType": "uint256",
              "name": "id",
              "type": "uint256"
            }
          ],
          "internalType": "struct PredictionMarket.Prediction[]",
          "name": "",
          "type": "tuple[]"
        },
        {
          "internalType": "int256[]",
          "name": "",
          "type": "int256[]"
        }
      ],
      "stateMutability": "view",
      "type": "function"
    },
    {
      "inputs": [
        {
          "internalType": "address",
          "name": "feed",
          "type": "address"
        }
      ],
      "name": "getPredictionsByFeed",
      "outputs": [
        {
          "components": [
            {
              "components": [
                {
                  "internalType": "address",
                  "name": "priceFeed",
                  "type": "address"
                },
                {
                  "internalType": "int256",
                  "name": "strikePrice",
                  "type": "int256"
                },
                {
                  "internalType": "uint256",
                  "name": "expiry",
                  "type": "uint256"
                },
                {
                  "internalType": "uint256",
                  "name": "collateral",
                  "type": "uint256"
                },
                {
                  "internalType": "string",
                  "name": "ipfsOver",
                  "type": "string"
                },
                {
                  "internalType": "string",
                  "name": "ipfsUnder",
                  "type": "string"
                }
              ],
              "internalType": "struct PredictionMarket.Market",
              "name": "market",
              "type": "tuple"
            },
            {
              "internalType": "bool",
              "name": "over",
              "type": "bool"
            },
            {
              "internalType": "uint256",
              "name": "id",
              "type": "uint256"
            }
          ],
          "internalType": "struct PredictionMarket.Prediction[]",
          "name": "",
          "type": "tuple[]"
        },
        {
          "internalType": "int256",
          "name": "",
          "type": "int256"
        }
      ],
      "stateMutability": "view",
      "type": "function"
    },
    {
      "inputs": [
        {
          "internalType": "address",
          "name": "owner",
          "type": "address"
        },
        {
          "internalType": "address",
          "name": "operator",
          "type": "address"
        }
      ],
      "name": "isApprovedForAll",
      "outputs": [
        {
          "internalType": "bool",
          "name": "",
          "type": "bool"
        }
      ],
      "stateMutability": "view",
      "type": "function"
    },
    {
      "inputs": [
        {
          "internalType": "uint256",
          "name": "",
          "type": "uint256"
        }
      ],
      "name": "marketById",
      "outputs": [
        {
          "internalType": "address",
          "name": "priceFeed",
          "type": "address"
        },
        {
          "internalType": "int256",
          "name": "strikePrice",
          "type": "int256"
        },
        {
          "internalType": "uint256",
          "name": "expiry",
          "type": "uint256"
        },
        {
          "internalType": "uint256",
          "name": "collateral",
          "type": "uint256"
        },
        {
          "internalType": "string",
          "name": "ipfsOver",
          "type": "string"
        },
        {
          "internalType": "string",
          "name": "ipfsUnder",
          "type": "string"
        }
      ],
      "stateMutability": "view",
      "type": "function"
    },
    {
      "inputs": [],
      "name": "name",
      "outputs": [
        {
          "internalType": "string",
          "name": "",
          "type": "string"
        }
      ],
      "stateMutability": "view",
      "type": "function"
    },
    {
      "inputs": [
        {
          "internalType": "uint256",
          "name": "tokenId",
          "type": "uint256"
        }
      ],
      "name": "ownerOf",
      "outputs": [
        {
          "internalType": "address",
          "name": "",
          "type": "address"
        }
      ],
      "stateMutability": "view",
      "type": "function"
    },
    {
      "inputs": [
        {
          "internalType": "uint256",
          "name": "",
          "type": "uint256"
        }
      ],
      "name": "predictionById",
      "outputs": [
        {
          "components": [
            {
              "internalType": "address",
              "name": "priceFeed",
              "type": "address"
            },
            {
              "internalType": "int256",
              "name": "strikePrice",
              "type": "int256"
            },
            {
              "internalType": "uint256",
              "name": "expiry",
              "type": "uint256"
            },
            {
              "internalType": "uint256",
              "name": "collateral",
              "type": "uint256"
            },
            {
              "internalType": "string",
              "name": "ipfsOver",
              "type": "string"
            },
            {
              "internalType": "string",
              "name": "ipfsUnder",
              "type": "string"
            }
          ],
          "internalType": "struct PredictionMarket.Market",
          "name": "market",
          "type": "tuple"
        },
        {
          "internalType": "bool",
          "name": "over",
          "type": "bool"
        },
        {
          "internalType": "uint256",
          "name": "id",
          "type": "uint256"
        }
      ],
      "stateMutability": "view",
      "type": "function"
    },
    {
      "inputs": [
        {
          "internalType": "address",
          "name": "from",
          "type": "address"
        },
        {
          "internalType": "address",
          "name": "to",
          "type": "address"
        },
        {
          "internalType": "uint256",
          "name": "tokenId",
          "type": "uint256"
        }
      ],
      "name": "safeTransferFrom",
      "outputs": [],
      "stateMutability": "nonpayable",
      "type": "function"
    },
    {
      "inputs": [
        {
          "internalType": "address",
          "name": "from",
          "type": "address"
        },
        {
          "internalType": "address",
          "name": "to",
          "type": "address"
        },
        {
          "internalType": "uint256",
          "name": "tokenId",
          "type": "uint256"
        },
        {
          "internalType": "bytes",
          "name": "data",
          "type": "bytes"
        }
      ],
      "name": "safeTransferFrom",
      "outputs": [],
      "stateMutability": "nonpayable",
      "type": "function"
    },
    {
      "inputs": [
        {
          "internalType": "address",
          "name": "operator",
          "type": "address"
        },
        {
          "internalType": "bool",
          "name": "approved",
          "type": "bool"
        }
      ],
      "name": "setApprovalForAll",
      "outputs": [],
      "stateMutability": "nonpayable",
      "type": "function"
    },
    {
      "inputs": [
        {
          "internalType": "address",
          "name": "_exchange",
          "type": "address"
        }
      ],
      "name": "setExchangeAddress",
      "outputs": [],
      "stateMutability": "nonpayable",
      "type": "function"
    },
    {
      "inputs": [
        {
          "internalType": "bytes4",
          "name": "interfaceId",
          "type": "bytes4"
        }
      ],
      "name": "supportsInterface",
      "outputs": [
        {
          "internalType": "bool",
          "name": "",
          "type": "bool"
        }
      ],
      "stateMutability": "view",
      "type": "function"
    },
    {
      "inputs": [],
      "name": "symbol",
      "outputs": [
        {
          "internalType": "string",
          "name": "",
          "type": "string"
        }
      ],
      "stateMutability": "view",
      "type": "function"
    },
    {
      "inputs": [
        {
          "internalType": "uint256",
          "name": "tokenId",
          "type": "uint256"
        }
      ],
      "name": "tokenURI",
      "outputs": [
        {
          "internalType": "string",
          "name": "",
          "type": "string"
        }
      ],
      "stateMutability": "view",
      "type": "function"
    },
    {
      "inputs": [
        {
          "internalType": "address",
          "name": "from",
          "type": "address"
        },
        {
          "internalType": "address",
          "name": "to",
          "type": "address"
        },
        {
          "internalType": "uint256",
          "name": "tokenId",
          "type": "uint256"
        }
      ],
      "name": "transferFrom",
      "outputs": [],
      "stateMutability": "nonpayable",
      "type": "function"
    }
  ],
  "bytecode": "0x60806040523480156200001157600080fd5b50604080518082018252600d81526c436861696e2046696e616e636560981b60208083019182528351808501909452600384526207032760ec1b90840152815191929162000062916000916200009d565b508051620000789060019060208401906200009d565b5050600780546001600160a01b03191633179055506000600a819055600c556200017f565b828054620000ab9062000143565b90600052602060002090601f016020900481019282620000cf57600085556200011a565b82601f10620000ea57805160ff19168380011785556200011a565b828001600101855582156200011a579182015b828111156200011a578251825591602001919060010190620000fd565b50620001289291506200012c565b5090565b5b808211156200012857600081556001016200012d565b600181811c908216806200015857607f821691505b6020821081036200017957634e487b7160e01b600052602260045260246000fd5b50919050565b613b27806200018f6000396000f3fe6080604052600436106101b75760003560e01c80639cd01605116100ec578063d082ea8c1161008a578063e916305511610064578063e91630551461050d578063e985e9c51461053c578063eb44fdd314610585578063fe83bece146105b257600080fd5b8063d082ea8c146104ba578063d5f39488146104da578063e8106a29146104fa57600080fd5b8063b88d4fde116100c6578063b88d4fde14610426578063bc37bf5514610446578063c78c3a8314610478578063c87b56dd1461049a57600080fd5b80639cd01605146103c6578063a22cb465146103e6578063b07f0a411461040657600080fd5b806346b944fe11610159578063640313e411610133578063640313e41461034d57806370a08231146103635780637ce767da1461038357806395d89b41146103b157600080fd5b806346b944fe146102d15780636253b43b146102ff5780636352211e1461032d57600080fd5b8063095ea7b311610195578063095ea7b31461024b57806323b872dd1461026d57806337c3f2f91461028d57806342842e0e146102b157600080fd5b806301ffc9a7146101bc57806306fdde03146101f1578063081812fc14610213575b600080fd5b3480156101c857600080fd5b506101dc6101d7366004612fc4565b6105df565b60405190151581526020015b60405180910390f35b3480156101fd57600080fd5b5061020661060a565b6040516101e89190613039565b34801561021f57600080fd5b5061023361022e36600461304c565b61069c565b6040516001600160a01b0390911681526020016101e8565b34801561025757600080fd5b5061026b61026636600461308a565b6106c3565b005b34801561027957600080fd5b5061026b6102883660046130b6565b6107dd565b34801561029957600080fd5b506102a3600a5481565b6040519081526020016101e8565b3480156102bd57600080fd5b5061026b6102cc3660046130b6565b61080e565b3480156102dd57600080fd5b506102f16102ec3660046130f7565b610829565b6040516101e8929190613204565b61031261030d366004613238565b610b45565b604080519384526020840192909252908201526060016101e8565b34801561033957600080fd5b5061023361034836600461304c565b610f08565b34801561035957600080fd5b506102a3600c5481565b34801561036f57600080fd5b506102a361037e3660046130f7565b610f68565b34801561038f57600080fd5b506103a361039e3660046130f7565b610fee565b6040516101e892919061326c565b3480156103bd57600080fd5b506102066113c9565b3480156103d257600080fd5b50600854610233906001600160a01b031681565b3480156103f257600080fd5b5061026b6104013660046132c6565b6113d8565b34801561041257600080fd5b5061026b61042136600461304c565b6113e7565b34801561043257600080fd5b5061026b6104413660046133ae565b61196b565b34801561045257600080fd5b5061046661046136600461304c565b61199d565b6040516101e89695949392919061342d565b34801561048457600080fd5b5061048d611aee565b6040516101e8919061347f565b3480156104a657600080fd5b506102066104b536600461304c565b611d23565b3480156104c657600080fd5b5061026b6104d53660046130f7565b611e33565b3480156104e657600080fd5b50600754610233906001600160a01b031681565b610312610508366004613492565b611ece565b34801561051957600080fd5b5061052d61052836600461304c565b612039565b6040516101e8939291906134f9565b34801561054857600080fd5b506101dc61055736600461351e565b6001600160a01b03918216600090815260056020908152604080832093909416825291909152205460ff1690565b34801561059157600080fd5b506105a56105a036600461304c565b6121c1565b6040516101e89190613557565b3480156105be57600080fd5b506105d26105cd36600461304c565b612345565b6040516101e8919061356a565b60006001600160e01b03198216632483248360e11b14806106045750610604826124e9565b92915050565b6060600080546106199061357d565b80601f01602080910402602001604051908101604052809291908181526020018280546106459061357d565b80156106925780601f1061066757610100808354040283529160200191610692565b820191906000526020600020905b81548152906001019060200180831161067557829003601f168201915b5050505050905090565b60006106a782612539565b506000908152600460205260409020546001600160a01b031690565b60006106ce82610f08565b9050806001600160a01b0316836001600160a01b0316036107405760405162461bcd60e51b815260206004820152602160248201527f4552433732313a20617070726f76616c20746f2063757272656e74206f776e656044820152603960f91b60648201526084015b60405180910390fd5b336001600160a01b038216148061075c575061075c8133610557565b6107ce5760405162461bcd60e51b815260206004820152603d60248201527f4552433732313a20617070726f76652063616c6c6572206973206e6f7420746f60448201527f6b656e206f776e6572206f7220617070726f76656420666f7220616c6c0000006064820152608401610737565b6107d8838361259b565b505050565b6107e73382612609565b6108035760405162461bcd60e51b8152600401610737906135b1565b6107d8838383612687565b6107d88383836040518060200160405280600081525061196b565b6060600080805b600c5481101561087b576000818152600b60205260409020546001600160a01b03808716911603610869578161086581613614565b9250505b8061087381613614565b915050610830565b506000816001600160401b03811115610896576108966132fb565b6040519080825280602002602001820160405280156108cf57816020015b6108bc612e75565b8152602001906001900390816108b45790505b5090506000805b600c54811015610ad2576000818152600b60205260409020546001600160a01b03808916911603610ac0576000818152600b6020526040908190208151610120810190925280546001600160a01b03166060830190815260018201546080840152600282015460a0840152600382015460c0840152600482018054849291849160e0850191906109659061357d565b80601f01602080910402602001604051908101604052809291908181526020018280546109919061357d565b80156109de5780601f106109b3576101008083540402835291602001916109de565b820191906000526020600020905b8154815290600101906020018083116109c157829003601f168201915b505050505081526020016005820180546109f79061357d565b80601f0160208091040260200160405190810160405280929190818152602001828054610a239061357d565b8015610a705780601f10610a4557610100808354040283529160200191610a70565b820191906000526020600020905b815481529060010190602001808311610a5357829003601f168201915b505050919092525050508152600682015460ff16151560208201526007909101546040909101528383610aa281613614565b945081518110610ab457610ab461362d565b60200260200101819052505b80610aca81613614565b9150506108d6565b506000866001600160a01b03166350d25bcd6040518163ffffffff1660e01b8152600401602060405180830381865afa158015610b13573d6000803e3d6000fd5b505050506040513d601f19601f82011682018060405250810190610b379190613643565b929792965091945050505050565b600080600034846060013514610b9d5760405162461bcd60e51b815260206004820152601760248201527f77726f6e6720636f6c6c61746572616c20616d6f756e740000000000000000006044820152606401610737565b600a8054859160099160009182610bb383613614565b9190505581526020019081526020016000208181610bd191906137b7565b9050506000604051806060016040528086610beb90613853565b815260016020808301829052600c5460409384018190526000908152600b82528390208451805182546001600160a01b0319166001600160a01b039091161782558083015193820193909355928201516002840155606082015160038401556080820151805194955085948492610c69926004850192910190612e9c565b5060a08201518051610c85916005840191602090910190612e9c565b505050602082015160068201805460ff1916911515919091179055604090910151600790910155600c54610cba9033906127eb565b600c8054610d18916000610ccd83613614565b90915550610cde608088018861365c565b8080601f01602080910402602001604051908101604052809392919081815260200183838082843760009201919091525061280592505050565b6000604051806060016040528087610d2f90613853565b815260006020808301829052600c5460409384018190528252600b8152908290208351805182546001600160a01b0319166001600160a01b03909116178255808301516001830155928301516002820155606083015160038201556080830151805194955085949193928492610dab9260048501920190612e9c565b5060a08201518051610dc7916005840191602090910190612e9c565b505050602082015160068201805460ff1916911515919091179055604090910151600790910155600c54610dfc9033906127eb565b600c8054610e20916000610e0f83613614565b90915550610cde60a089018961365c565b7f1d80b5c03c77e5ff9ecc40eae1411a6af134c136587a0735b3cbf80722299043610e4e60208801886130f7565b8760200135886040013589606001356001600a54610e6c91906138ee565b6002600c54610e7b91906138ee565b6001600c54610e8a91906138ee565b604080516001600160a01b0390981688526020880196909652948601939093526060850191909152608084015260a083015260c082015260e00160405180910390a16001600a54610edb91906138ee565b6002600c54610eea91906138ee565b6001600c54610ef991906138ee565b94509450945050509193909250565b6000818152600260205260408120546001600160a01b0316806106045760405162461bcd60e51b8152602060048201526018602482015277115490cdcc8c4e881a5b9d985b1a59081d1bdad95b88125160421b6044820152606401610737565b60006001600160a01b038216610fd25760405162461bcd60e51b815260206004820152602960248201527f4552433732313a2061646472657373207a65726f206973206e6f7420612076616044820152683634b21037bbb732b960b91b6064820152608401610737565b506001600160a01b031660009081526003602052604090205490565b6060806000805b600c5481101561106357846001600160a01b031661101282610f08565b6001600160a01b031614801561103e57506000818152600b60205260409020546001600160a01b031615155b15611051578161104d81613614565b9250505b8061105b81613614565b915050610ff5565b506000816001600160401b0381111561107e5761107e6132fb565b6040519080825280602002602001820160405280156110b757816020015b6110a4612e75565b81526020019060019003908161109c5790505b5090506000826001600160401b038111156110d4576110d46132fb565b6040519080825280602002602001820160405280156110fd578160200160208202803683370190505b5090506000805b600c548110156113bc57876001600160a01b031661112182610f08565b6001600160a01b031614801561114d57506000818152600b60205260409020546001600160a01b031615155b156113aa576000818152600b60209081526040918290205482516350d25bcd60e01b815292516001600160a01b03909116926350d25bcd9260048083019391928290030181865afa1580156111a6573d6000803e3d6000fd5b505050506040513d601f19601f820116820180604052508101906111ca9190613643565b8383815181106111dc576111dc61362d565b6020908102919091018101919091526000828152600b9091526040908190208151610120810190925280546001600160a01b03166060830190815260018201546080840152600282015460a0840152600382015460c0840152600482018054849291849160e08501919061124f9061357d565b80601f016020809104026020016040519081016040528092919081815260200182805461127b9061357d565b80156112c85780601f1061129d576101008083540402835291602001916112c8565b820191906000526020600020905b8154815290600101906020018083116112ab57829003601f168201915b505050505081526020016005820180546112e19061357d565b80601f016020809104026020016040519081016040528092919081815260200182805461130d9061357d565b801561135a5780601f1061132f5761010080835404028352916020019161135a565b820191906000526020600020905b81548152906001019060200180831161133d57829003601f168201915b505050919092525050508152600682015460ff1615156020820152600790910154604090910152848361138c81613614565b94508151811061139e5761139e61362d565b60200260200101819052505b806113b481613614565b915050611104565b5091969095509350505050565b6060600180546106199061357d565b6113e33383836128d7565b5050565b336113f182610f08565b6001600160a01b0316146114575760405162461bcd60e51b815260206004820152602760248201527f50726564696374696f6e4d61726b65743a206e6f742074686520636f727265636044820152663a1037bbb732b960c91b6064820152608401610737565b6000818152600b60205260409020546001600160a01b03166114ac5760405162461bcd60e51b815260206004820152600e60248201526d13585c9ad95d081a5cc81919585960921b6044820152606401610737565b6000818152600b60205260408082208151610120810190925280546001600160a01b03166060830190815260018201546080840152600282015460a0840152600382015460c0840152600482018054849291849160e08501919061150f9061357d565b80601f016020809104026020016040519081016040528092919081815260200182805461153b9061357d565b80156115885780601f1061155d57610100808354040283529160200191611588565b820191906000526020600020905b81548152906001019060200180831161156b57829003601f168201915b505050505081526020016005820180546115a19061357d565b80601f01602080910402602001604051908101604052809291908181526020018280546115cd9061357d565b801561161a5780601f106115ef5761010080835404028352916020019161161a565b820191906000526020600020905b8154815290600101906020018083116115fd57829003601f168201915b505050919092525050508152600682015460ff1615156020820152600790910154604091820152815101519091504210156116a35760405162461bcd60e51b815260206004820152602360248201527f50726564696374696f6e4d61726b65743a206e6f7420617420657870697279206044820152621e595d60ea1b6064820152608401610737565b60008160000151600001516001600160a01b03166350d25bcd6040518163ffffffff1660e01b8152600401602060405180830381865afa1580156116eb573d6000803e3d6000fd5b505050506040513d601f19601f8201168201806040525081019061170f9190613643565b9050816020015115611745578151602001518112156117405760405162461bcd60e51b815260040161073790613905565b611769565b81516020015181126117695760405162461bcd60e51b815260040161073790613905565b6000838152600b6020526040812080546001600160a01b03191681556001810182905560028101829055600381018290559081816117aa6004830182612f20565b6117b8600583016000612f20565b50505060068101805460ff19169055600060079091015560208201511561185757600b60006117e8856001613952565b81526020810191909152604001600090812080546001600160a01b031916815560018101829055600281018290556003810182905590818161182d6004830182612f20565b61183b600583016000612f20565b50505060068101805460ff1916905560006007909101556118d1565b600b60006118666001866138ee565b81526020810191909152604001600090812080546001600160a01b03191681556001810182905560028101829055600381018290559081816118ab6004830182612f20565b6118b9600583016000612f20565b50505060068101805460ff1916905560006007909101555b81516060015160405160009133918381818185875af1925050503d8060008114611917576040519150601f19603f3d011682016040523d82523d6000602084013e61191c565b606091505b50509050806119655760405162461bcd60e51b81526020600482015260156024820152743330b4b632b21032ba3432b9103a3930b739b332b960591b6044820152606401610737565b50505050565b6119753383612609565b6119915760405162461bcd60e51b8152600401610737906135b1565b611965848484846129a5565b600960205260009081526040902080546001820154600283015460038401546004850180546001600160a01b03909516959394929391926119dd9061357d565b80601f0160208091040260200160405190810160405280929190818152602001828054611a099061357d565b8015611a565780601f10611a2b57610100808354040283529160200191611a56565b820191906000526020600020905b815481529060010190602001808311611a3957829003601f168201915b505050505090806005018054611a6b9061357d565b80601f0160208091040260200160405190810160405280929190818152602001828054611a979061357d565b8015611ae45780601f10611ab957610100808354040283529160200191611ae4565b820191906000526020600020905b815481529060010190602001808311611ac757829003601f168201915b5050505050905086565b60606000600c546001600160401b03811115611b0c57611b0c6132fb565b604051908082528060200260200182016040528015611b4557816020015b611b32612e75565b815260200190600190039081611b2a5790505b50905060005b600c54811015611d1d576000818152600b6020526040908190208151610120810190925280546001600160a01b03166060830190815260018201546080840152600282015460a0840152600382015460c0840152600482018054849291849160e085019190611bb99061357d565b80601f0160208091040260200160405190810160405280929190818152602001828054611be59061357d565b8015611c325780601f10611c0757610100808354040283529160200191611c32565b820191906000526020600020905b815481529060010190602001808311611c1557829003601f168201915b50505050508152602001600582018054611c4b9061357d565b80601f0160208091040260200160405190810160405280929190818152602001828054611c779061357d565b8015611cc45780601f10611c9957610100808354040283529160200191611cc4565b820191906000526020600020905b815481529060010190602001808311611ca757829003601f168201915b505050919092525050508152600682015460ff16151560208201526007909101546040909101528251839083908110611cff57611cff61362d565b60200260200101819052508080611d1590613614565b915050611b4b565b50919050565b6060611d2e82612539565b60008281526006602052604081208054611d479061357d565b80601f0160208091040260200160405190810160405280929190818152602001828054611d739061357d565b8015611dc05780601f10611d9557610100808354040283529160200191611dc0565b820191906000526020600020905b815481529060010190602001808311611da357829003601f168201915b505050505090506000611dde60408051602081019091526000815290565b90508051600003611df0575092915050565b815115611e22578082604051602001611e0a92919061396a565b60405160208183030381529060405292505050919050565b611e2b846129d8565b949350505050565b6007546001600160a01b03163314611eac5760405162461bcd60e51b815260206004820152603660248201527f4f6e6c79206465706c6f7965722063616e206368616e6765207468652070726560448201527564696374696f6e206d61726b6574206164647265737360501b6064820152608401610737565b600880546001600160a01b0319166001600160a01b0392909216919091179055565b600080600080600080611ee08b610b45565b9250925092506000604051806101000160405280336001600160a01b03168152602001306001600160a01b031681526020018b81526020018381526020014281526020018a81526020018d6000016020810190611f3d91906130f7565b6001600160a01b0316815260200189905290508a15611fbd576008546040516358d5c96f60e11b81526001600160a01b039091169063b1ab92de90611f86908490600401613999565b600060405180830381600087803b158015611fa057600080fd5b505af1158015611fb4573d6000803e3d6000fd5b50505050612027565b606081018390526008546040516358d5c96f60e11b81526001600160a01b039091169063b1ab92de90611ff4908490600401613999565b600060405180830381600087803b15801561200e57600080fd5b505af1158015612022573d6000803e3d6000fd5b505050505b50919a90995090975095505050505050565b600b60209081526000918252604091829020825160c08101845281546001600160a01b0316815260018201549281019290925260028101549282019290925260038201546060820152600482018054839160808401916120989061357d565b80601f01602080910402602001604051908101604052809291908181526020018280546120c49061357d565b80156121115780601f106120e657610100808354040283529160200191612111565b820191906000526020600020905b8154815290600101906020018083116120f457829003601f168201915b5050505050815260200160058201805461212a9061357d565b80601f01602080910402602001604051908101604052809291908181526020018280546121569061357d565b80156121a35780601f10612178576101008083540402835291602001916121a3565b820191906000526020600020905b81548152906001019060200180831161218657829003601f168201915b505050919092525050506006820154600790920154909160ff169083565b6121c9612f5a565b600082815260096020908152604091829020825160c08101845281546001600160a01b031681526001820154928101929092526002810154928201929092526003820154606082015260048201805491929160808401919061222a9061357d565b80601f01602080910402602001604051908101604052809291908181526020018280546122569061357d565b80156122a35780601f10612278576101008083540402835291602001916122a3565b820191906000526020600020905b81548152906001019060200180831161228657829003601f168201915b505050505081526020016005820180546122bc9061357d565b80601f01602080910402602001604051908101604052809291908181526020018280546122e89061357d565b80156123355780601f1061230a57610100808354040283529160200191612335565b820191906000526020600020905b81548152906001019060200180831161231857829003601f168201915b5050505050815250509050919050565b61234d612e75565b6000828152600b6020526040908190208151610120810190925280546001600160a01b03166060830190815260018201546080840152600282015460a0840152600382015460c0840152600482018054849291849160e0850191906123b19061357d565b80601f01602080910402602001604051908101604052809291908181526020018280546123dd9061357d565b801561242a5780601f106123ff5761010080835404028352916020019161242a565b820191906000526020600020905b81548152906001019060200180831161240d57829003601f168201915b505050505081526020016005820180546124439061357d565b80601f016020809104026020016040519081016040528092919081815260200182805461246f9061357d565b80156124bc5780601f10612491576101008083540402835291602001916124bc565b820191906000526020600020905b81548152906001019060200180831161249f57829003601f168201915b505050919092525050508152600682015460ff161515602082015260079091015460409091015292915050565b60006001600160e01b031982166380ac58cd60e01b148061251a57506001600160e01b03198216635b5e139f60e01b145b8061060457506301ffc9a760e01b6001600160e01b0319831614610604565b6000818152600260205260409020546001600160a01b03166125985760405162461bcd60e51b8152602060048201526018602482015277115490cdcc8c4e881a5b9d985b1a59081d1bdad95b88125160421b6044820152606401610737565b50565b600081815260046020526040902080546001600160a01b0319166001600160a01b03841690811790915581906125d082610f08565b6001600160a01b03167f8c5be1e5ebec7d5bd14f71427d1e84f3dd0314c0f7b2291e5b200ac8c7c3b92560405160405180910390a45050565b60008061261583610f08565b9050806001600160a01b0316846001600160a01b0316148061265c57506001600160a01b0380821660009081526005602090815260408083209388168352929052205460ff165b80611e2b5750836001600160a01b03166126758461069c565b6001600160a01b031614949350505050565b826001600160a01b031661269a82610f08565b6001600160a01b0316146126c05760405162461bcd60e51b815260040161073790613a00565b6001600160a01b0382166127225760405162461bcd60e51b8152602060048201526024808201527f4552433732313a207472616e7366657220746f20746865207a65726f206164646044820152637265737360e01b6064820152608401610737565b826001600160a01b031661273582610f08565b6001600160a01b03161461275b5760405162461bcd60e51b815260040161073790613a00565b600081815260046020908152604080832080546001600160a01b03199081169091556001600160a01b0387811680865260038552838620805460001901905590871680865283862080546001019055868652600290945282852080549092168417909155905184937fddf252ad1be2c89b69c2b068fc378daa952ba7f163c4a11628f55a4df523b3ef91a4505050565b6113e3828260405180602001604052806000815250612a4c565b6000828152600260205260409020546001600160a01b03166128805760405162461bcd60e51b815260206004820152602e60248201527f45524337323155524953746f726167653a2055524920736574206f66206e6f6e60448201526d32bc34b9ba32b73a103a37b5b2b760911b6064820152608401610737565b6000828152600660209081526040909120825161289f92840190612e9c565b506040518281527ff8e1a15aba9398e019f0b49df1a4fde98ee17ae345cb5f6b5e2c27f5033e8ce79060200160405180910390a15050565b816001600160a01b0316836001600160a01b0316036129385760405162461bcd60e51b815260206004820152601960248201527f4552433732313a20617070726f766520746f2063616c6c6572000000000000006044820152606401610737565b6001600160a01b03838116600081815260056020908152604080832094871680845294825291829020805460ff191686151590811790915591519182527f17307eab39ab6107e8899845ad3d59bd9653f200f220920489ca2b5937696c31910160405180910390a3505050565b6129b0848484612687565b6129bc84848484612a7f565b6119655760405162461bcd60e51b815260040161073790613a45565b60606129e382612539565b60006129fa60408051602081019091526000815290565b90506000815111612a1a5760405180602001604052806000815250612a45565b80612a2484612b80565b604051602001612a3592919061396a565b6040516020818303038152906040525b9392505050565b612a568383612c12565b612a636000848484612a7f565b6107d85760405162461bcd60e51b815260040161073790613a45565b60006001600160a01b0384163b15612b7557604051630a85bd0160e11b81526001600160a01b0385169063150b7a0290612ac3903390899088908890600401613a97565b6020604051808303816000875af1925050508015612afe575060408051601f3d908101601f19168201909252612afb91810190613ad4565b60015b612b5b573d808015612b2c576040519150601f19603f3d011682016040523d82523d6000602084013e612b31565b606091505b508051600003612b535760405162461bcd60e51b815260040161073790613a45565b805181602001fd5b6001600160e01b031916630a85bd0160e11b149050611e2b565b506001949350505050565b60606000612b8d83612d9d565b60010190506000816001600160401b03811115612bac57612bac6132fb565b6040519080825280601f01601f191660200182016040528015612bd6576020820181803683370190505b5090508181016020015b600019016f181899199a1a9b1b9c1cb0b131b232b360811b600a86061a8153600a8504945084612be057509392505050565b6001600160a01b038216612c685760405162461bcd60e51b815260206004820181905260248201527f4552433732313a206d696e7420746f20746865207a65726f20616464726573736044820152606401610737565b6000818152600260205260409020546001600160a01b031615612ccd5760405162461bcd60e51b815260206004820152601c60248201527f4552433732313a20746f6b656e20616c7265616479206d696e746564000000006044820152606401610737565b6000818152600260205260409020546001600160a01b031615612d325760405162461bcd60e51b815260206004820152601c60248201527f4552433732313a20746f6b656e20616c7265616479206d696e746564000000006044820152606401610737565b6001600160a01b038216600081815260036020908152604080832080546001019055848352600290915280822080546001600160a01b0319168417905551839291907fddf252ad1be2c89b69c2b068fc378daa952ba7f163c4a11628f55a4df523b3ef908290a45050565b60008072184f03e93ff9f4daa797ed6e38ed64bf6a1f0160401b8310612ddc5772184f03e93ff9f4daa797ed6e38ed64bf6a1f0160401b830492506040015b6d04ee2d6d415b85acef81000000008310612e08576d04ee2d6d415b85acef8100000000830492506020015b662386f26fc100008310612e2657662386f26fc10000830492506010015b6305f5e1008310612e3e576305f5e100830492506008015b6127108310612e5257612710830492506004015b60648310612e64576064830492506002015b600a83106106045760010192915050565b6040518060600160405280612e88612f5a565b815260006020820181905260409091015290565b828054612ea89061357d565b90600052602060002090601f016020900481019282612eca5760008555612f10565b82601f10612ee357805160ff1916838001178555612f10565b82800160010185558215612f10579182015b82811115612f10578251825591602001919060010190612ef5565b50612f1c929150612f99565b5090565b508054612f2c9061357d565b6000825580601f10612f3c575050565b601f0160209004906000526020600020908101906125989190612f99565b6040518060c0016040528060006001600160a01b0316815260200160008152602001600081526020016000815260200160608152602001606081525090565b5b80821115612f1c5760008155600101612f9a565b6001600160e01b03198116811461259857600080fd5b600060208284031215612fd657600080fd5b8135612a4581612fae565b60005b83811015612ffc578181015183820152602001612fe4565b838111156119655750506000910152565b60008151808452613025816020860160208601612fe1565b601f01601f19169290920160200192915050565b602081526000612a45602083018461300d565b60006020828403121561305e57600080fd5b5035919050565b6001600160a01b038116811461259857600080fd5b803561308581613065565b919050565b6000806040838503121561309d57600080fd5b82356130a881613065565b946020939093013593505050565b6000806000606084860312156130cb57600080fd5b83356130d681613065565b925060208401356130e681613065565b929592945050506040919091013590565b60006020828403121561310957600080fd5b8135612a4581613065565b60018060a01b0381511682526020810151602083015260408101516040830152606081015160608301526000608082015160c0608085015261315960c085018261300d565b905060a083015184820360a0860152613172828261300d565b95945050505050565b60008151606084526131906060850182613114565b9050602083015115156020850152604083015160408501528091505092915050565b6000815180845260208085019450848260051b860182860160005b858110156131f75783830389526131e583835161317b565b988501989250908401906001016131cd565b5090979650505050505050565b60408152600061321760408301856131b2565b90508260208301529392505050565b600060c08284031215611d1d57600080fd5b60006020828403121561324a57600080fd5b81356001600160401b0381111561326057600080fd5b611e2b84828501613226565b60408152600061327f60408301856131b2565b82810360208481019190915284518083528582019282019060005b818110156131f75784518352938301939183019160010161329a565b8035801515811461308557600080fd5b600080604083850312156132d957600080fd5b82356132e481613065565b91506132f2602084016132b6565b90509250929050565b634e487b7160e01b600052604160045260246000fd5b60405160c081016001600160401b0381118282101715613333576133336132fb565b60405290565b60006001600160401b0380841115613353576133536132fb565b604051601f8501601f19908116603f0116810190828211818310171561337b5761337b6132fb565b8160405280935085815286868601111561339457600080fd5b858560208301376000602087830101525050509392505050565b600080600080608085870312156133c457600080fd5b84356133cf81613065565b935060208501356133df81613065565b92506040850135915060608501356001600160401b0381111561340157600080fd5b8501601f8101871361341257600080fd5b61342187823560208401613339565b91505092959194509250565b60018060a01b038716815285602082015284604082015283606082015260c06080820152600061346060c083018561300d565b82810360a0840152613472818561300d565b9998505050505050505050565b602081526000612a4560208301846131b2565b600080600080600060a086880312156134aa57600080fd5b85356001600160401b038111156134c057600080fd5b6134cc88828901613226565b9550506134db602087016132b6565b94979496505050506040830135926060810135926080909101359150565b60608152600061350c6060830186613114565b93151560208301525060400152919050565b6000806040838503121561353157600080fd5b823561353c81613065565b9150602083013561354c81613065565b809150509250929050565b602081526000612a456020830184613114565b602081526000612a45602083018461317b565b600181811c9082168061359157607f821691505b602082108103611d1d57634e487b7160e01b600052602260045260246000fd5b6020808252602d908201527f4552433732313a2063616c6c6572206973206e6f7420746f6b656e206f776e6560408201526c1c881bdc88185c1c1c9bdd9959609a1b606082015260800190565b634e487b7160e01b600052601160045260246000fd5b600060018201613626576136266135fe565b5060010190565b634e487b7160e01b600052603260045260246000fd5b60006020828403121561365557600080fd5b5051919050565b6000808335601e1984360301811261367357600080fd5b8301803591506001600160401b0382111561368d57600080fd5b6020019150368190038213156136a257600080fd5b9250929050565b601f8211156107d857600081815260208120601f850160051c810160208610156136d05750805b601f850160051c820191505b818110156136ef578281556001016136dc565b505050505050565b6001600160401b0383111561370e5761370e6132fb565b6137228361371c835461357d565b836136a9565b6000601f841160018114613756576000851561373e5750838201355b600019600387901b1c1916600186901b1783556137b0565b600083815260209020601f19861690835b828110156137875786850135825560209485019460019092019101613767565b50868210156137a45760001960f88860031b161c19848701351681555b505060018560011b0183555b5050505050565b81356137c281613065565b81546001600160a01b0319166001600160a01b0391909116178155602082013560018201556040820135600282015560608201356003820155613808608083018361365c565b6138168183600486016136f7565b505061382560a083018361365c565b6119658183600586016136f7565b600082601f83011261384457600080fd5b612a4583833560208501613339565b600060c0823603121561386557600080fd5b61386d613311565b6138768361307a565b815260208301356020820152604083013560408201526060830135606082015260808301356001600160401b03808211156138b057600080fd5b6138bc36838701613833565b608084015260a08501359150808211156138d557600080fd5b506138e236828601613833565b60a08301525092915050565b600082821015613900576139006135fe565b500390565b6020808252602d908201527f50726564696374696f6e4d61726b65743a2063616e277420657865726369736560408201526c0818481b1bdcda5b99c818995d609a1b606082015260800190565b60008219821115613965576139656135fe565b500190565b6000835161397c818460208801612fe1565b835190830190613990818360208801612fe1565b01949350505050565b60006101008201905060018060a01b0380845116835280602085015116602084015260408401516040840152606084015160608401526080840151608084015260a084015160a08401528060c08501511660c08401525060e083015160e083015292915050565b60208082526025908201527f4552433732313a207472616e736665722066726f6d20696e636f72726563742060408201526437bbb732b960d91b606082015260800190565b60208082526032908201527f4552433732313a207472616e7366657220746f206e6f6e20455243373231526560408201527131b2b4bb32b91034b6b83632b6b2b73a32b960711b606082015260800190565b6001600160a01b0385811682528416602082015260408101839052608060608201819052600090613aca9083018461300d565b9695505050505050565b600060208284031215613ae657600080fd5b8151612a4581612fae56fea2646970667358221220b62c78cf0ccde2551bc636eb324a2980a90cfddf3111e0fee3b27488752662b864736f6c634300080d0033",
  "linkReferences": {},
  "deployedLinkReferences": {}
}