{
  "_format": "hh-sol-artifact-1",
  "contractName": "USDPriceConverter",
  "sourceName": "contracts/USDPriceConverter.sol",
  "abi": [
    {
      "inputs": [],
      "stateMutability": "nonpayable",
      "type": "constructor"
    },
    {
      "inputs": [],
      "name": "getLatestPriceBtc",
      "outputs": [
        {
          "internalType": "int256",
          "name": "",
          "type": "int256"
        }
      ],
      "stateMutability": "view",
      "type": "function"
    },
    {
      "inputs": [],
      "name": "getLatestPriceEth",
      "outputs": [
        {
          "internalType": "int256",
          "name": "",
          "type": "int256"
        }
      ],
      "stateMutability": "view",
      "type": "function"
    },
    {
      "inputs": [],
      "name": "getLatestPriceIlv",
      "outputs": [
        {
          "internalType": "int256",
          "name": "",
          "type": "int256"
        }
      ],
      "stateMutability": "view",
      "type": "function"
    },
    {
      "inputs": [],
      "name": "getLatestPriceLink",
      "outputs": [
        {
          "internalType": "int256",
          "name": "",
          "type": "int256"
        }
      ],
      "stateMutability": "view",
      "type": "function"
    },
    {
      "inputs": [],
      "name": "getLatestPriceLtc",
      "outputs": [
        {
          "internalType": "int256",
          "name": "",
          "type": "int256"
        }
      ],
      "stateMutability": "view",
      "type": "function"
    },
    {
      "inputs": [],
      "name": "getLatestPriceRep",
      "outputs": [
        {
          "internalType": "int256",
          "name": "",
          "type": "int256"
        }
      ],
      "stateMutability": "view",
      "type": "function"
    },
    {
      "inputs": [],
      "name": "getLatestPriceSnx",
      "outputs": [
        {
          "internalType": "int256",
          "name": "",
          "type": "int256"
        }
      ],
      "stateMutability": "view",
      "type": "function"
    },
    {
      "inputs": [],
      "name": "getLatestPriceTrx",
      "outputs": [
        {
          "internalType": "int256",
          "name": "",
          "type": "int256"
        }
      ],
      "stateMutability": "view",
      "type": "function"
    },
    {
      "inputs": [],
      "name": "getLatestPriceXag",
      "outputs": [
        {
          "internalType": "int256",
          "name": "",
          "type": "int256"
        }
      ],
      "stateMutability": "view",
      "type": "function"
    },
    {
      "inputs": [],
      "name": "getLatestPriceXau",
      "outputs": [
        {
          "internalType": "int256",
          "name": "",
          "type": "int256"
        }
      ],
      "stateMutability": "view",
      "type": "function"
    },
    {
      "inputs": [],
      "name": "getLatestPriceXrp",
      "outputs": [
        {
          "internalType": "int256",
          "name": "",
          "type": "int256"
        }
      ],
      "stateMutability": "view",
      "type": "function"
    },
    {
      "inputs": [],
      "name": "getLatestPriceXtz",
      "outputs": [
        {
          "internalType": "int256",
          "name": "",
          "type": "int256"
        }
      ],
      "stateMutability": "view",
      "type": "function"
    },
    {
      "inputs": [],
      "name": "getLatestPriceZrx",
      "outputs": [
        {
          "internalType": "int256",
          "name": "",
          "type": "int256"
        }
      ],
      "stateMutability": "view",
      "type": "function"
    }
  ],
  "bytecode": "0x608060405234801561001057600080fd5b50600080546001600160a01b0319908116738a753747a1fa494ec906ce90e9f37563a8af630e179091556001805482167348731cf7e84dc94c5f84577882c14be11a5b745617905560028054821673ece365b379e1dd183b20fc5f022230c044d5140417905560038054821673d8bd0a1cb028a31aa859a21a3758685a95de4623179055600480548216734d38a35c2d87976f334c2d2379b535f1d461d9b4179055600580548216739331b55d9830ef609a2abcfac0fbce050a52fdea17905560068054821673e96c4407597cd507002df88ff6e0008ab41266ee1790556007805482167381570059a0cb83888f1459ec66aad1ac1673024317905560088054821673b29f616a0d54ff292e997922fff46012a63e2fae17905560098054821673c3e76f41caba4ab38f00c7255d4df663da02a024179055600a8054821673f7bbe4d7d13d600127b6aa132f1dcea301e9c8fc179055600b80548216739c1946428f4f159db4889aa6b218833f467e1bfd179055600c805490911673f57fca8b932c43dfe560d3274262b2597bcd2e5a179055610667806101b26000396000f3fe608060405234801561001057600080fd5b50600436106100cf5760003560e01c80636e98d8461161008c578063ceca029f11610066578063ceca029f1461012e578063d24e8d1314610136578063dcbc2d5c1461013e578063f7d159db1461014657600080fd5b80636e98d84614610116578063759e24b21461011e578063aec927171461012657600080fd5b806309663c66146100d4578063172a11d3146100ee5780633180be08146100f65780633b79fdd9146100fe57806356ceb54a1461010657806357d5dc711461010e575b600080fd5b6100dc61014e565b60405190815260200160405180910390f35b6100dc6101d3565b6100dc610229565b6100dc61027f565b6100dc6102c9565b6100dc610312565b6100dc610368565b6100dc6103be565b6100dc610414565b6100dc61046a565b6100dc6104c0565b6100dc610516565b6100dc61056c565b600080600a60009054906101000a90046001600160a01b03166001600160a01b031663feaf968c6040518163ffffffff1660e01b815260040160a060405180830381865afa1580156101a4573d6000803e3d6000fd5b505050506040513d601f19601f820116820180604052508101906101c891906105e1565b509195945050505050565b600080600860009054906101000a90046001600160a01b03166001600160a01b031663feaf968c6040518163ffffffff1660e01b815260040160a060405180830381865afa1580156101a4573d6000803e3d6000fd5b600080600360009054906101000a90046001600160a01b03166001600160a01b031663feaf968c6040518163ffffffff1660e01b815260040160a060405180830381865afa1580156101a4573d6000803e3d6000fd5b6000805460408051633fabe5a360e21b8152905183926001600160a01b03169163feaf968c9160048083019260a09291908290030181865afa1580156101a4573d6000803e3d6000fd5b6004805460408051633fabe5a360e21b8152905160009384936001600160a01b03169263feaf968c928183019260a0928290030181865afa1580156101a4573d6000803e3d6000fd5b600080600660009054906101000a90046001600160a01b03166001600160a01b031663feaf968c6040518163ffffffff1660e01b815260040160a060405180830381865afa1580156101a4573d6000803e3d6000fd5b600080600b60009054906101000a90046001600160a01b03166001600160a01b031663feaf968c6040518163ffffffff1660e01b815260040160a060405180830381865afa1580156101a4573d6000803e3d6000fd5b600080600160009054906101000a90046001600160a01b03166001600160a01b031663feaf968c6040518163ffffffff1660e01b815260040160a060405180830381865afa1580156101a4573d6000803e3d6000fd5b600080600760009054906101000a90046001600160a01b03166001600160a01b031663feaf968c6040518163ffffffff1660e01b815260040160a060405180830381865afa1580156101a4573d6000803e3d6000fd5b600080600960009054906101000a90046001600160a01b03166001600160a01b031663feaf968c6040518163ffffffff1660e01b815260040160a060405180830381865afa1580156101a4573d6000803e3d6000fd5b600080600c60009054906101000a90046001600160a01b03166001600160a01b031663feaf968c6040518163ffffffff1660e01b815260040160a060405180830381865afa1580156101a4573d6000803e3d6000fd5b600080600260009054906101000a90046001600160a01b03166001600160a01b031663feaf968c6040518163ffffffff1660e01b815260040160a060405180830381865afa1580156101a4573d6000803e3d6000fd5b600080600560009054906101000a90046001600160a01b03166001600160a01b031663feaf968c6040518163ffffffff1660e01b815260040160a060405180830381865afa1580156101a4573d6000803e3d6000fd5b805169ffffffffffffffffffff811681146105dc57600080fd5b919050565b600080600080600060a086880312156105f957600080fd5b610602866105c2565b9450602086015193506040860151925060608601519150610625608087016105c2565b9050929550929590935056fea26469706673582212205b6eeffb990c9e26919c89e5efbf3609b7f579234510d86848827233263fd58164736f6c634300080d0033",
  "linkReferences": {},
  "deployedLinkReferences": {}
}